S01B00006275696C642F72656C656173652F7A69676265652E73333714
S21400400008100020157F0000A9C6000063500300BA
S21400401063500300B1C60000B9C600006350030039
S21400402063500300635003006350030063500300B3
S214004030BDC600008C960400635003006350030066
S2140040406350030063500300635003002D7A0000A2
S2140040506350030063500300635003006350030083
S2140040606350030063500300BDCB000063500300A1
S2140040706350030063500300635003006350030063
S2140040806350030063500300635003006350030053
S2140040906350030063500300635003006350030043
S2140040A063500300DD820000C182000063500300FD
S2140040B06350030063500300635003000D1B0200AF
S2140040C055AC030051AC0300711202006BAC030048
S2140040D059AC0300CD1A02005DAC030001FF0100DD
S2140040E04D1B02006350030063500300635003003F
S2140040F063500300635003006350030063500300E3
S21400410063500300635003006350030063500300D2
S21400411063500300635003006350030063500300C2
S21400412063500300635003006350030063500300B2
S20800413063500300D0
S214004134F0B5114A114C124E00F00105E3695F0711
S21400414413D40DB9334213D103EA00078F4207D1C3
S2140041540B4A1A40002A14BF6FF001000020F0BD7D
S214004164013AEBD16FF00200F9E74FF0FF30F6E7C3
S2140041746FF00100F3E700BF80969800000003503C
S214004184020001000B4B70B5D96911F480310DD1D2
S21400419401244FF48072084E084DF46020462C64C7
S2140041A41A61FFF7C5FF3464EC6070BD6FF0010060
S2140041B4FBE700BF0000035000100350002003502C
S2140041C438B541F6713301220C4C0021E569E363EE
S2140041D40B4B05F48035DA600223606121202361ED
S2140041E4FFF7A6FF10B92120FFF7A2FF0122054B17
S2140041F4DA600DB10023E36338BD00BF000003504E
S214004204001003500020035070B5134C6061E3693E
S2140042145B071ED40E4656F8043B8D18A361AE42C7
S2140042240BD10423002121202361FFF781FF58B915
S214004234BDE870402120FFF77BBF08210846FFF742
S21400424477FF10B10423236170BD56F8043BA361C5
S214004254E5E74FF0FF30F7E7000003502DE9F84399
S214004264154641F67132164B8946DF69DA63012238
S214004274064603F58053DFF8508007F48037DA608B
S21400428455B9284601220F4BDA601FB10022A3F568
S2140042940053DA63BDE8F88306F5005404EA08041C
S2140042A4A41BAC4228BF2C46494622463046FFF79C
S2140042B4ABFF0028E6D12644A1442D1BE0E700BF4F
S2100042C4000003500020035000E0FFFF45
S2140042D02DE9F04F4FF0FD0BC9B09A460DF11B09C2
S2140042E09DF8503108AFCDF80C90CDF808B0019786
S2140042F0059303890446009383790E4690464188C9
S2140043008288407812F020F9054650B10090A388C4
S214004310002062883A4912F05BFC284649B0BDE8A6
S214004320F08F99F8000033F0B3FF38B12846A38821
S2140043306288344912F04CFC8D25EEE75A46394621
S21400434099F8000033F04CFF8346002851D0529B6A
S2140043501BB1BDF84C3198424BD8002399F8009019
S2140043600793A9F14102012A5FFA8BF123D8384658
S2140043700139254ADFF898C05FFA81FE734513DBE2
S214004380059B04210792C3B907AF18221F489FED6B
S2140043901A7B02FB060420460A460830394684ED9E
S2140043A0027B17F06BF911E010F8011F0133514042
S2140043B00CFB01F2E2E7059B33B123464A4638463A
S2140043C000960FF0E9FFA8E70829DED9B8F1000F3C
S2140043D001D088F80090BAF1000F01D0AAF800B01A
S2140043E0529B002B99D05A46184608A917F046F952
S2140043F093E7012591E700BF0000000000000000E1
S2140044001F40040054400400C59D1C81F01000208D
S21400441093010001000000002DE9F04F93B0CDE9B4
S2140044200A32DDE91C530E9353EC102BCDE908013C
S214004430104619468DED060B1E9E16F0A9FB80B1A0
S214004440DDE906014FF0FF32C54B16F0C9FB40B957
S214004450DDE906014FF0FF326FF4801316F0A2FB81
S21400446070B1DDE908019DED060B0E9B1E96CDE9A9
S2140044701C53DDE90A3213B0BDE8F04F00F088B9EE
S2140044800022DDE90601002316F08CFB002800F070
S2140044903381DDE906A303F1004BCBF30A5016F493
S2140044A08063A0F2FF3008BF06250F9316F09EF833
S2140044B09BA3D3E9002316F003F99BA3D3E90023BB
S2140044C015F048FFCBF31304894644F07F5180462D
S2140044D00022A44B504641F4401115F039FF94A336
S2140044E0D3E9002316F0ECF802460B464046494650
S2140044F015F030FF16F07EFB044616F077F88EA314
S214004500D3E900238046894616F0DAF80022964B57
S21400451015F020FF16F06EFB89A3D3E900230746AB
S2140045204946404616F0CCF880463846894616F08E
S2140045305DF885A3D3E9002316F0C2F802460B46C1
S2140045404046494615F004FF02460B46CDE90C23CB
S21400455016F0B6F8DDE90C23804689461046194663
S21400456015F0F8FE0022CDE91001804B4046494682
S21400457016F0D0F900227E4B15F0ECFE02460B46F4
S2140045804046494616F0C6F900227A4B15F0E2FE80
S21400459002460B464046494616F0BCF9DDE90C23B8
S2140045A08046894600204FF0804115F0D1FE024635
S2140045B00B464046494615F0CDFE02460B46DDE961
S2140045C0100116F0A7F907F2FF3700226A4B15F024
S2140045D0C1FE00223B0516F073F852465B46804645
S2140045E0894616F0FDFA002840F08980CDE90C894E
S2140045F004F16303C62B8CBF0527042731051BD5A2
S21400460053A3D3E900235046594616F0DFFA002894
S2140046107FD051A3D3E900235046594616F0C2FA7C
S214004620002876D00027A542C6BF2C1B04F1FF3514
S21400463000253C4646F480660E9B9F422CBF4FF0FA
S2140046400008A3EB070816F0020903D0002F18BFD6
S2140046504FF000083CB1DDE90C235046594616F0F1
S21400466059F982468B46DDE906010022002316F042
S21400467099FA10B10BF100439B46DDE9080126F4D8
S2140046800063CDE90183DDE90A324BEC10AB0095FF
S21400469000F07EF802465FB3DDE9091316F0200F3E
S2140046A000F10105089E0CBF65204520B047DDE9F6
S2140046B008010523002205930A23002CCDE90232C7
S2140046C007F1FF374FEAD473B8BF64422A46019316
S2140046D004970A9B009435F035FC0246B9F1000FAA
S2140046E006D00B9BC41A0B9B1A190E9BA34245D8E7
S2140046F0104613B0BDE8F08FDDE906ABCDE600222C
S214004700404649461A4B16F005F9013CCDE90C0126
S2140047106EE7002D90D00F9B002B8DD0013D8BE7D0
S214004720FB799F501344D33FB3C8608B288AC63F9B
S21400473061436F63A787D23F71A379094F930A40FD
S2140047401655B5BBB16B0240EF39FAFE422EE63F76
S2140047502D431CEBE2361A3F0000000080842E41F9
S214004760FFFFEF7F0000F83F0000E03F00002C4016
S21400477000002440000018400000F03F2020DDE943
S2140047800913089DA8470134ADE700BF00000000EC
S2140047902DE9F04F5BEC10AB97B0CDE90501DDE9F4
S2140047A02058CDE90723504652465B465946229F7D
S2140047B016F0EEF970B90323CDE902870193AA4BF0
S2140047C00093DDE90501DDE9072335F0EDFA17B0C2
S2140047D0BDE8F08F4FF0FF326FF480135046594615
S2140047E016F0E0F928B10423CDE9028701939F4B28
S2140047F0E6E74FF0FF32504659469D4B16F0F0F96B
S21400480068B19C4A07F00403002B08BF03229A4BAA
S2140048101CBF13460422CDE902870192D0E750461A
S2140048208DA3D3E90023594616F0DAF938B98CA3DC
S214004830D3E900235046594616F0B4F968B1DDE9CD
S2140048400723DDE905014BEC10ABCDE92187209568
S21400485017B0BDE8F04FFFF7DFBD0022002350463B
S214004860594616F09FF9002800F091805B465246A4
S2140048700020002115F06CFD012382468B4609932B
S21400488017F4806400F08580092D40F285800024AE
S21400489030210EABA5F109020134202C03F8011BD0
S2140048A0A5EB040901D09442F6D15946504616F0BD
S2140048B0A1F9724B054603EBC90393ED007B8DED22
S2140048C00A7B15F093FE02460B465046594615F0F5
S2140048D03FFDDDE90A2315F0F3FE02460B46CDE95F
S2140048E00C2316F0AFF9064615F070FE02460B468E
S2140048F0DDE90C0115F02CFD02460B46CDE90C2334
S21400490000225F4B16F06CF9002848D0013630467E
S21400491015F05CFE02460B46DDE90A0116F04CF97E
S21400492008B100260135B9F1000F45D1284615F02B
S2140049305DFE02460B465046594615F009FD00221C
S2140049404F4B16F02FF910B9E90700D501350A21AB
S2140049500EAB1A19202C0AD095FBF1F001FB10556E
S214004960303502F8015B013405460028F2D107F025
S2140049700302012A55D1B8F1000F52D0099A12B994
S21400498017F00C0F01D008F1FF38302240E00990F4
S21400499076E74FF0060988E7A946002485E7002257
S2140049A0DDE90C01364B16F0FDF80028BBD10EB140
S2140049B0F007B8D50136B6E70A210EAB1A19202C37
S2140049C00DD0B6FBF1F001FB1063092E03F13003A6
S2140049D009F1FF3904F1010402F8013B11D8302136
S2140049E0A1440EAA202CB2D04C4504F101030AD1F2
S2140049F004F158020DEB02042E2204F8202C1C466B
S214004A00A5E70646DBE7A1541C46EBE71A5501343A
S214004A10444506D2202CF9D1CDE9028701940EAB8D
S214004A20CEE6202CF8D0099B3BB12D2204F158038A
S214004A306B4403F8202C0134EEE77A0704D504F122
S214004A4058032B226B44F4E73B07E5D504F15803E3
S214004A5020226B44EDE700BF0000000065CDCD418D
S214004A600000000065CDCDC10E5E0400125E04009D
S214004A70FFFFEF7F055E04000A5E0400C8A5040081
S214004A800000E03F0000000070B58EB02C22002130
S214004A9003A816F063FC64234FF002320893CDE9B6
S214004AA005230B2301218DF834305B4B8DF8101055
S214004AB01D880D4040F0A980084639F001FD0A2205
S214004AC0564B574C1A704FF42873ADF812304FF00F
S214004AD0FF332360534B54491B8820460B82534BAD
S214004AE0534A1B68CD828B61524B0D621B884B82EA
S214004AF0514B1B68CB611DF09FF820B14FF41B7122
S214004B004E483AF01EFE0521206835F004FC20B120
S214004B1040F27D2149483AF014FE206815F0D4FB97
S214004B20474B2068196835F0B9FC0C253AF030F987
S214004B30684309903AF02CF968430DEB050107909D
S214004B40206817F0CDFA20B140F295213B483AF0A4
S214004B50F8FD25681FF01AFC00220146284635F0AD
S214004B6015FD20B140F2972134483AF0EAFD40F2B4
S214004B700353344D344E2B80052396F90000AB705A
S214004B807F2801D11DF04EF93378EB703AF000F92A
S214004B9000EB80008000A8803AF0FAF80023C000FE
S214004BA04FF0FF31E880AB604FF0FF3018A3D3E939
S214004BB0002339F0D7FD2549206835F0A0FC206891
S214004BC002A936F0BCF820B14FF434711B483AF015
S214004BD0B8FD042220680DEB020135F034FC0428F1
S214004BE004D040F2D72115483AF0ABFD01A90120C8
S214004BF035F03FF807F09CFD01201DF0A5FD31F0D3
S214004C0028F81DF0CBFD1DF0A5F80EB070BD00BF56
S214004C100A0020FF42030000EE5D002049650020E8
S214004C2020560020FABE0400346C002000BF0400AA
S214004C30E9E40300F8BE0400FCBE04003D95040051
S214004C408469002014560020546F00205DE50300A0
S214004C500348044B834202D0034B03B11847704706
S214004C60886F0020886F002000000000064B074970
S214004C70C91A891048BF0131491003D0044B0BB143
S214004C8001481847704700BF886F0020886F0020D3
S214004C900000000010B5064C237843B9FFF7D8FF94
S214004CA0044B13B10448AFF300800123237010BDFA
S214004CB0D816002000000000A0E2040008B5044B4F
S214004CC01BB104490448AFF30080BDE80840CDE7B7
S214004CD000000000DC160020A0E20400A3F5803AE5
S214004CE0704700BF154B002B08BF114B9D46FFF7C2
S214004CF0F5FF00218B460F461148124A121A16F08D
S214004D002DFB0C4B002B00D098470B4B002B00D0F4
S214004D1098470020002104000D000B4816F064FEA2
S214004D2016F0F4FA200029002FF077FE16F04AFE5F
S214004D30000008000000000000000000081000202E
S214004D4008100020AC65002051BA010007B501210B
S214004D5020200DF1070201F0F5F950B101212020C5
S214004D600DF107028DF8071001F0FCF903B05DF8AD
S214004D7004FB9DF807100129F8D00122084815F019
S214004D80DBF901210DF1070220208DF8071001F054
S214004D90E9F92FF0C4FD4FF4FA6001F01DF8E5E7DD
S214004DA088FB030038B501F065FB012805D001F04B
S214004DB061FB022801D001F083FB064D2B783BB93E
S214004DC001F058FB0128044602D12FF01DFE2C707E
S214004DD038BD00BFDA5E002010B5044600882FF00C
S214004DE069FDA37884F84400834202BF0123E37080
S214004DF02371074B04F11C00C4E9073401F0F8F9ED
S214004E00224620880349BDE8104001F035B900BFAE
S214004E104B4603001546030070B5C37804460D469E
S214004E201646002B34D1D1B1214815F085F901235F
S214004E30E370E36CA6600BB1E06D9847E368F61A82
S214004E4063699E4221D2217E1A480131C9B2217679
S214004E5015F072F9A36D13B1217EE06D9847E570E9
S214004E602FF070FD15B3237903BBA268238A801A3E
S214004E7083421BD801231048237115F05DF9236D7A
S214004E80A3B1E06DBDE87040184701232376E6E73E
S214004E900029E4D1094815F04FF9636DE660E57026
S214004EA02571002BDBD0E06D9847D8E770BD00BFBA
S214004EB0B0FB0300C1FB0300EFFB0300DCFB0300B9
S214004EC070B51E46838804460D46C18002810BB12C
S214004ED0868070BD817800882FF0D8FB0123E370B0
S214004EE0064BA680C4E903340C34204601F080F952
S214004EF029462046BDE870402FF01BBD97460300AC
S214004F002DE9F04104462FF01DFD94F93C60656CD8
S214004F106064451B30462FF0F7FC30462FF0F0FC5F
S214004F20074630462FF0EEFC30462FF0ECFC94F9A6
S214004F303D8040462FF0E8FC40462FF0E1FC064658
S214004F4040462FF0DFFC40462FF0DDFC002D54D00D
S214004F50394B4FF47A72BB4228BF3B465343B3FBF0
S214004F60F5F105FB11335343B3FBF5F302FB0133B5
S214004F70E268B3FBF2F347F6FF729A4228BF1A467E
S214004F8022840A22B3FBF2F36362D4E90A32DB1905
S214004F9042F10002C4E90A32236CA2693B4423644E
S214004FA0236C93422BD27DB1234B9E4228BF1E46D4
S214004FB04FF47A735E43B6FBF5F205FB12665E436A
S214004FC0B6FBF5F603FB026594F83E204FF6FF713C
S214004FD0DAB16369B5FBF3F38B4228BF0B46E38374
S214004FE0002A0CBF01230023A08884F83E30A37952
S214004FF013D1A3B92FF054FC13E02B46B8E79B1A45
S2140050002364236B01332363CAE72369B5FBF3F5F7
S2140050108D4228BF0D46A583E2E7002BEAD12FF08C
S21400502035FC636B0BB1A06B9847A16804F1480090
S214005030BDE8F0412FF07DBC00093D0038B583681F
S214005040044613B94FF4FA638360E3680BB953233D
S214005050E360236913B940F21F33236163690BB918
S2140050606C236361A36913B94FF47A73A3610022BA
S214005070012120882FF040FC84F83C00013005D147
S214005080234815F059F84FF0FF3038BD00220121B3
S21400509060882FF031FC431C054684F83D0009D19A
S2140050A01C4815F049F894F93C002FF028FC84F8C9
S2140050B03C50E8E70022A08811462FF0C8FBA379F1
S2140050C0A0880BB32FF0E2FB012394F93C0084F890
S2140050D03E302FF018FC94F93D002FF014FC2FF012
S2140050E031FC0D4B04F14805C4E9123460642846CF
S2140050F001F07EF82846A1682FF01BFCA16807483F
S21400510015F01AF80020C0E72FF0CAFBDCE700BF56
S21400511005FC03002DFC0300014F000056FC0300B5
S21400512010B501790446B1FA81F1008849092FF0DB
S21400513024FB21796088B1FA81F149092FF01DFB23
S214005140034B1A68A24204BF00221A6010BD00BFBB
S214005150F416002070B543790446A3B100880E4EBD
S21400516004F10805336813B10C4B1B786BB1217939
S2140051702FF003FB64210A4B3460A3602846BDE889
S21400518070402FF0D6BB4088E9E7064814F0D4FFFD
S214005190054B3221A360F1E7F4160020DC5E002008
S2140051A02151000089FC03005551000010B504464B
S2140051B0E0B10F4814F0C0FF01236371A37953B91F
S2140051C0217920882FF0D9FA236B7BB1606B0121FF
S2140051D0BDE8104018472046FFF7A2FF04F108007C
S2140051E02FF0ACFB2046FFF7B5FFEDE710BD00BF84
S2140051F0BFFC030010B50446F8B1104814F09CFF3D
S21400520000236371A3796BB921792088B1FA81F103
S21400521049092FF0B2FA236B7BB1606B0021BDE821
S214005220104018472046FFF77BFF04F108002FF0D8
S21400523085FB2046FFF78EFFEDE710BDCAFC030096
S21400524010B5044668B1074814F076FF6379204627
S2140052501BB1BDE81040FFF7CDBFBDE81040FFF71B
S214005260A5BF10BDD6FC030010B50E4C0E48214657
S21400527014F062FF82210D4814F05EFF82210220A6
S214005280A21E00F06FFF014630B134F8022C084829
S214005290BDE8104014F050BF0648BDE8104014F0BA
S2140052A04BBF00BF72570020E5FC030000FD030063
S2140052B00BFD03004FFD030038B5114C822122463A
S2140052C0022000F03FFFA51C014688B122880D4849
S2140052D014F032FF2A460C4B03F1380153F8040B46
S2140052E08B4242F8040BF9D11B78137038232380C5
S2140052F035F8021C054A0648BDE8384014F01CBFC5
S214005300705700205AFD0300DAFD03007257002094
S214005310B8FD0300034B1B781BB18B4201D82FF05E
S214005320FEBA7047F46E0020F8B51E4B1E4F1B7871
S214005330A3B11E4D1E4C2B785BB11E4B5B7943B15F
S21400534000211D4B4FF60C721878297021702FF033
S21400535022FB1A4B1B883BB900232370B9681848F8
S214005360BDE8F8402FF0E5BA7A6A9A42F4D323787B
S214005370FF2B10D12E78002EF0D10E48FFF73AFF03
S21400538001232B700C4B4FF60C72314618782670A2
S2140053902FF001FBE2E70133DBB2022B2370DDD9ED
S2140053A0E8E700BFE25E002008100020E55E00206F
S2140053B0DB5E00202421002070170020AC6E002049
S2140053C04817002010B5044601460E4814F0B4FEF7
S2140053D0012C11D10C4B0D481A884FF6FF739A42D8
S2140053E01EBF0022094B5A742FF0ADF901F040FFA2
S2140053F0BDE8104001F012BE0448BDE810402FF092
S214005400A4B900BF13FE0300A46E0020106900209C
S21400541070B50024254D264E3378A34225DC0024A3
S214005420244D254E3378A34225DC0024234D244EFC
S2140054303378A34225DC234C237833B1224D28460B
S214005440FFF7FCFD18B30023237001F013F80128C2
S2140054501E4828D12FF077F901F00AFF01F0DEFD93
S214005460BDE870401A4801F025B82846FFF7B4FC9E
S21400547001346035D0E728462FF04BF90134343537
S214005480D0E728462FF07EF901343835D0E7114CA6
S214005490114BC4E90030204600F0AAFE2046A96859
S2140054A02FF047FAD1E72FF050F9D9E75423002020
S2140054B0E35E002074270020E45E00202421002004
S2140054C0E25E0020E05E0020081000201069002048
S2140054D0C553000048170020295300002DE9F04F5F
S2140054E087B0FFF7E9FEB94B05A805932FF06EF9D4
S2140054F0054615F02FFEB64CC2B21F2A627004D9BC
S214005500B44814F019FE00F05BFC2946A01C16F007
S214005510B5F805A82FF05AF9054615F01BFEC2B2DD
S2140055201F2A84F8212001D9AB48EAE7294604F16E
S214005530220016F0A3F805A82FF048F932260446F4
S21400554000272578002D40F09D80A44CFFF760FFD3
S2140055502378DFF8D0A2DFF8D082A14F00939AF824
S214005560003098F8002039789E4814F0E5FD3A7827
S21400557098F800109AF8000053180344DFF89CB21D
S21400558020782C4603445846DBB2AA4200F31D831B
S214005590012B38BF0123944E029332460023354632
S2140055A04FF482704FF6FF71029C0133A3421370D2
S2140055B05080918002F10C02F6DB8C4B8A498448BD
S2140055C0AB6001F03FF8E879AB6800EB400003EB16
S2140055D0800000F001FEEB790133EB71844B1B7801
S2140055E02BB18448844B8049436001F013FC834B05
S2140055F01A884FF6FF739A4203D07B49804801F021
S21400560043F94FF00009794C3A784A4500F3E582B1
S21400561000264FF00C097B4ADFF8CCB198F8000062
S2140056203978B04200F3ED8246180C21002501FBC4
S21400563006B19AF800009423A842734A00F3FF824A
S2140056400C253E7898F8003000274FF070081E446E
S214005650064405FB06B5DFF8D4A1604B1B78BB42B9
S21400566000F300830299604800F044FE059B57490A
S2140056701A468B4240F00983644807B0BDE8F04FF5
S21400568014F05ABD532D0BD163784C2B40F04E814D
S214005690A378502B40F04A815D4B01221A7011E02E
S2140056A0442D18D16378303B092B0BD8601C2FF0A3
S2140056B09AF8584B584A1978002386B2994202F154
S2140056C0600204DC05A82FF081F8044639E722F8CA
S2140056D0466C0133F2E7422D0BD16378542B55D13B
S2140056E0A01C00F017FD454B188018462EF06FFFE3
S2140056F0E8E7582D34D8412DE4D9433D152DE1D89F
S21400570001A353F825F000BF395B0000C556000022
S214005710275A0000C5560000C5560000C5560000B2
S2140057207F580000C5560000C556000031580000DE
S21400573073570000C5560000C5560000C556000049
S214005740C5560000B15900002D590000C55600008E
S214005750C5560000C5560000C55600004F5A00004A
S214005760692DAFD1601C2FF03EF880B22FF0D3F831
S214005770A8E71B4B012019780023284A994202F11A
S214005780A8029FDD02F8A60C0133F7E7601C00F0C4
S214005790C1FC0546E01C2FF09EF801210246284673
S2140057A02FF055F860211B481B4C037859436218AC
S2140057B065524FF4FA6111824FF4487151611849ED
S2140057C056831165013303707CE700BF72570020D3
S2140057D0F467002032FE030049FE0300DD5E002071
S2140057E0E15E002059FE030070170020E817002035
S2140057F0E05E0020741D002008100020A46E00202B
S214005800F8160020741C0020B81A0020A9FE030019
S214005810DC5E0020E35E002054230020781E00207B
S214005820B7470300DE5E0020DF5E00206819002018
S214005830601C00F06FFC00224FF034088146AE4F2B
S21400584011462FF004F83878AC4D08FB00F325F825
S2140058500390EA18E3781046693B18BF012393705B
S2140058602EF057FF0021A64A3B785160012103FB2A
S21400587008550B443B7015600F46117422E7601CF8
S21400588000F048FC0022114681462EF0E0FF34224C
S214005890994DDFF86882287802FB00F328F8039019
S2140058A008EB0301E3780846693B18BF01238B70B9
S2140058B02EF02FFF934A00231046916B31BB00EB6E
S2140058C0831034232A7802FB038383638E4A0023E3
S2140058D01046D2F8A410F9B9A82202FB030034231C
S2140058E02A7802FB0383C0F8A4305FB9844A3B469B
S2140058F0114652F8040BA8B93422287800FB02821D
S21400590041F823202B7801332B70DBE60133042B80
S21400591002F14002D1D1D9E70133042B02F1A802EB
S214005920D7D1E2E70133042BE3D1EBE7601C00F0AC
S214005930F1FB8046E01C2EF0CEFF012102464046D9
S2140059402EF085FF60217148714D0278DFF8E0C1C6
S21400595051436B1825F801804FF44871198259613C
S2140059606C495E839965E178A824642904BF012107
S21400597099709CF80030DFF890E15C430EEB040170
S2140059800EF804304FF400744C8003240C718C71B4
S21400599002EB420405EB441532240133DBB201323C
S2140059A04B718D6081F8A04002708CF8003089E65B
S2140059B0601C00F0AFFB00224FF0380A8146DFF88B
S2140059C06C8111462EF043FF98F80030524D0AFBCA
S2140059D003F325F803904FF00109EA1882F80490C3
S2140059E0E37873B1E01C00F095FB002204461146F4
S2140059F02EF02DFF98F800300AFB03535C8083F8E6
S214005A00069046483F4A03789901535498F8001088
S214005A1002EB8314C1EBC10205EBC2054A1C6563A9
S214005A2088F80020CEE6601C00F074FB3C4D288011
S214005A30E01C00F06FFB6880601D00F06BFBE379F4
S214005A40A880693B18BF0123AB71364B25E6601C66
S214005A5000F060FB8046E01C00F05CFB0546601D25
S214005A602EF039FF04460246012140462EF0EFFE96
S214005A702246284601212EF0EAFE60204FF4487C9C
S214005A80DFF888E0224A9EF8003000FB03F422F894
S214005A900480DFF880801119A1F810C0C1F814C086
S214005AA04E83C1F85880591CC9B248431418A4F84C
S214005AB010C0C4F814C06683C4F8588094241552E5
S214005AC0194D981C8EF800002878DFF868C044430B
S214005AD003EB430301EB41010CEB040E02EB431313
S214005AE002EB41120CF80400CEF80430CEF8082081
S214005AF001302870E6E500BFE45E00207427002031
S214005B0010690020741C0020781E0020E35E002030
S214005B10542300201553000024210020DF5E0020BF
S214005B2008100020E05E0020DE5E0020E25E00201E
S214005B30E15E0020B81A0020601C00F0EBFA8046F8
S214005B40E01C00F0E7FA00220546114640462EF01B
S214005B507EFE00223824114628462EF078FE4F4856
S214005B604F4A03784FF0000E04FB03FC22F80C802B
S214005B704FF0010802EB0C0181F806E081F8048082
S214005B8003EB0801C9B24C4302EB040C15539C1CF2
S214005B9004707024434D8CF806E028788CF8048056
S214005BA04443DFF808C1C3EBC303C1EBC1010CEBF0
S214005BB0040E02EBC30302EBC1020CF80400CEF89D
S214005BC00430CEF80820404493E7467901358E42EB
S214005BD084BF04714471A830D7E4B9F1000F06D031
S214005BE016F8052C02EB420204EB8204B460314640
S214005BF0584601F011FD09F101090BF1A80B0C360E
S214005C0002E571180AD0481E09FB00B0C07900EB07
S214005C10400004EB800409FB01B08460104609FBD9
S214005C200151039201F0B6FA39781F48314409FB56
S214005C30015101F0D5F8039A01364032EEE4F54200
S214005C4018BF11F8050C03911EBF00EB400004EBD3
S214005C5080048C6003FB052000F0DAFF0399013511
S214005C600C31E6E4F74218BF15F8053C29461CBF80
S214005C7003EB430304EB830408FB07A018BFAC60E8
S214005C8000F09CFE01370C35E7E413F8011D0029EF
S214005C907FF4EDAC3B2102F8011CE8E4E25E002054
S214005CA024210020DD5E0020182100206819002035
S214005CB007B5012121200DF1050200F043FA18B9BD
S214005CC09DF80520074B1A70022123200DF10602CD
S214005CD000F038FA18B9044BBDF806201A8003B055
S214005CE05DF804FBF46E0020AC6E002007B5064B92
S214005CF08DF80700187001210DF10702212000F031
S214005D0031FA03B05DF804FBF46E0020B0F5666F60
S214005D1088BF4FF4666307B5ADF8060088BFADF8D8
S214005D200630BDF80620054B02211A8023200DF10F
S214005D30060200F017FA03B05DF804FBAC6E002014
S214005D4007B5022101200DF1060200F0FBF938B973
S214005D50044814F0F1F9BDF8060003B05DF804FB42
S214005D600020FAE7C6FE030007B50221ADF80600DC
S214005D700DF10602012000F0F5F9014610B10348C6
S214005D8014F0DAF903B05DF804FB00BFE7FE030089
S214005D9010B5FFF7D5FF04460146074814F0CCF9C6
S214005DA00121064814F0C8F924B9BDE810400120C6
S214005DB0FFF7DABF10BD00BF17FF030029FF03007F
S214005DC008B5044814F0B8F900F0DCF92EF0A7FD89
S214005DD02EF0A2FD3FFF030038B50446084D094BE0
S214005DE028462B6000F004FA002C18BF21462846EF
S214005DF0BDE8384008BF4FF496712EF09ABD00BF3C
S214005E0078280020054803002DE9F043384D91B06E
S214005E1008AC0746894690460FCD0FC495E80F009C
S214005E20002684E80F0001250323324C3248CDE9D2
S214005E300366CDE905668DF80E300796029539F0B3
S214005E4029FC2E4839F026FC32462D4920468DF88E
S214005E50176004F009FD334632462A498DF81900CA
S214005E60009020468DF82390CDF82C808DF8216088
S214005E7004F014FD0A9020468DF8097004F076FCB4
S214005E80204608AA05A904F02FFD02AA204603A969
S214005E902FF03BFE4FF400721B4B5A62194BE56025
S214005EA0626A920510D46BB94FF40072164B114813
S214005EB05A6204F05BFC114839F0EFFB002011B089
S214005EC0BDE8F083013BEBE7002BEDD0094908A8BD
S214005ED02FF04EFE4FF400720B4B06485A6204F049
S214005EE045FC064839F0D9FBBDF82000E7E700BFBF
S214005EF0449604000040005AEC980400E898040019
S214005F0080841E0040420F000060005A0122034BAE
S214005F101870034B1980034B1A707047E75E002019
S214005F20AE6E0020E65E0020F8B5454B1B780BB938
S214005F300020F8BD434B1B78012B03D1BDE8F84089
S214005F402EF063BC404B1C884FF6FF739C42EFD08C
S214005F503E4839F09FFB0023260AE4B21A46214643
S214005F60304604F0C3FB012E354604F0010335D05D
S214005F7015D9B51E012DDBD8002B0BBF4FF480754D
S214005F804FF080754FF470614FF070610BBF0127C2
S214005F904FF480370F204FF470202D4B11E0002B6C
S214005FA00BBF4FF480754FF080754FF470614FF063
S214005FB070610BBF01274FF480370F204FF470201D
S214005FC0244B1A6802401CD0BA421AD01A680A40FB
S214005FD032D11A6822EA01022A4316E0002B0BBFD0
S214005FE04FF480754FF080754FF470614FF070611C
S214005FF00BBF01274FF480370F204FF47020164B4D
S214006000DFE71A6822EA00023A431A602EF0FDFB28
S214006010054600288CD0083644EA06102A46032196
S214006020C0B2FFF7F1FE40F6FF73684300F2FF7060
S214006030B0FBF3F080B27CE795427FF479AFC8E717
S214006040E65E0020E75E0020AE6E0020EC980400BE
S21400605028C3035020C3035024C3035010B5044C78
S214006060237823B9034839F015FB0123237010BDAC
S214006070E95E0020EC9804002DE9F0431F4C85B043
S214006080074688469146FFF7E9FF23781BB901F0DB
S214006090DDFF012323707BBAADF80C3030220023DD
S2140060A0174E02FB03F4315DA51901BB01233355DE
S2140060B04FF0FF3304F1100012493044AB606F809C
S2140060C0C5F80480C5F80C9009F052FA04F10801EE
S2140060D0042231440C4B009503A802F08DF8A96801
S2140060E002460A4814F028F805B0BDE8F0830133EC
S2140060F0102BD6D1064814F01FF8F5E7E85E00200E
S214006100A02800202F480300414803004CFF03004E
S2140061107AFF030080B10278A2F14103032B0BD86B
S21400612040783038C0B2082806D8054B134413F818
S214006130413C40EA032070474FF6FF70704700BFAF
S2140061406496040008B50B4642B101460448006850
S21400615003F096F9BDE808402EF0D7BB022008BD34
S2140061607C69002008B50B4642B101460448006829
S21400617003F00EFBBDE808402EF0C7BB022008BDAA
S2140061807C690020F0B50026124F8DB0FF230093E7
S2140061900A223346386802A92FF074FAC0B102AB5F
S2140061A01D4603EB800404E055F8043BB34228BFC9
S2140061B05E1CAC423868E9D9296803F06FFC0028F9
S2140061C0F2D02D28F0D00DB0BDE8F0402EF09DBBEB
S2140061D00DB0F0BD7C69002028B1034B0360034B73
S2140061E04360002383607047190000032469002081
S2140061F0FF2307B50021044A0093083009F03CF954
S21400620003B05DF804FB00BF2D4903000B460449AC
S214006210024608680349097808B12EF09ABB704711
S214006220AC2B0020EB5E0020F7B50C4618B12921F8
S214006230194839F086FA246823685E795F88304604
S2140062403946FFF7E3FFF0B18568E5B1A089227D06
S2140062503946904291BF0020801AA36880B294BF4E
S21400626003469B18E27C00903046A8470138032876
S21400627003D8DFE800F0080F0B0D0024204632F0AC
S21400628071FD204600E0812003B0F0BD8024F5E7D4
S2140062909324F3E78724F1E7A2FF0300F8B5154639
S2140062A00D4A044610680D4A0B46117850B1224636
S2140062B02EF04FFB034628B100210C27C678B142CA
S2140062C001DB0020F8BD07FB01F45A681019125BC9
S2140062D0AA42F7D00131F2E7AC2B0020EB5E00209B
S2140062E008B5034B1B6803B19847002008BD00BFE4
S2140062F0A82B00202DE9F74F04460D460026454BF7
S214006300454F1860454B197033010021F85C013683
S2140063100FF008FF0C2EF7D10C2D28BF0C254FF0E0
S214006320000901953C4EDFF800A13D4DDFF8FC80EA
S214006330019B4B4502DC03B0BDE8F08F23784FF09D
S214006340000B337063887380A388B380A379C6F884
S2140063500880B371E379C8F8005088F804304FF02D
S2140063600003A768A8F80630E3795B450ADC01213C
S21400637016F8100B0FF0D6FE08F1080809F101090F
S2140063800C34D5E74FF0000338886B812880FB7803
S2140063904FF0000C2B81BA78C5F804A0002A0092B2
S2140063A00CBF802240222A7379680AF10C026345EA
S2140063B013DC03EB43030AEB830ABB6843B1009A82
S2140063C04FF6FF71B2FA82F2164B520932F05AFCBF
S2140063D014350BF1010B0C37C6E7B1F800E00CF1F1
S2140063E0010C22F80CEC91F802E00C3202F816ECE4
S2140063F091F804E00C3102F815EC11F809ECBEF146
S214006400010F14BF4FF0100E4FF0110E02F814ECEF
S214006410CDE700BFAC2B002074420020EB5E0020CE
S214006420B031002029620000B02B0020303400205C
S214006430014B1860704700BFA42B002070B512886F
S21400644005460E46FFF72AFF044670B10279049906
S214006450806814F0D5FF064B1B680BB9002070BD92
S2140064603146284622889847F8E78620F7E700BF97
S214006470A42B002008B50EF0F1FE022806D0012855
S21400648006D0044B18784000C0B208BD0120FCE7D7
S2140064900220FAE7EA5E0020054B10B51C682CB116
S2140064A0FFF7E8FF2346BDE81040184710BD00BFC1
S2140064B0A02B0020014B1860704700BFA02B0020C7
S2140064C0034B1A781AB901221A700AF0CDBE70472B
S2140064D0EA5E00200022024B1A70FFF7DDBF00BF05
S2140064E0EA5E002037B50446002836D00EF0B6FE29
S2140064F0022834D1608932F0B2FFE079237A00387E
S21400650018BF0120012B637A08BF40F008000BB1CA
S21400651040F0100063890BB140F00400257CA18890
S214006520A2790DB1E36893B90F4B10F0D7F9217833
S214006530084610F04FFA32F09EFA044610F008FAB9
S2140065407CB100280CBF0020032003B030BDCDE98D
S2140065500035064B10F0C2F9E9E70220F5E7012006
S214006560F3E72046F1E700BF384D04003B1C04006B
S21400657008B50CF0D7FF014630B1044813F0DCFD37
S214006580BDE808400DF072BB08BD00BF1400040053
S214006590034B044A5B7C012103201370FFF7E2BD26
S2140065A010690020EC5E002010B50446FFF7F0FFEF
S2140065B0B4F57F4F0BD10024144B1A8813449C70FB
S2140065C0FEF752FE2046BDE81040FFF705BC4FF62A
S2140065D001739C4204D1BDE810400D482EF09BB8D4
S2140065E04FF602739C4205D1BDE81040094B18785F
S2140065F0FFF77CBB4FF60B739C4205D1BDE81040FD
S214006600054B1888FFF782BB10BD00BF70570020EF
S21400661010690020F46E0020AC6E002010B5074C08
S214006620012122460320FFF78DFD28B92378044A6E
S214006630003B18BF0123537410BD00BFEC5E002062
S21400664010690020F8B5614B614D1A884FF6FF734C
S2140066509A421CBF03232B7008235E4A3224137011
S214006660302393705371D3714FF400135470D47069
S21400667036244364584B1471C364584B1472036534
S214006680574B01248365574B3926C365564B967185
S2140066904366564B06198366554BC6670367554BCC
S2140066A0554E4367202380F8783080F8843000F118
S2140066B02103C0F88830514B80F84840C0F88C3031
S2140066C080F8544080F8604080F86C40C0F88060E5
S2140066D080F89040C0F89450494D4A4BC0F8AC50F2
S2140066E0494DC0F89830C0F8B050092580F8B4502D
S2140066F0464D474BC0F8C450464DC0F8B820C0F8C9
S214006700C8508225444AC0F8A430C0F8BC200F23E5
S214006710022280F8CC50414D80F89C40C0F8D05002
S2140067203F4DC0F8A000C0F8D4503E4D80F8A830C9
S214006730C0F8DC503C4D80F8C0202D7880F8D8405A
S214006740002D40D080F8E420384A394DC0F8E820C3
S214006750384AC0F8E050C0F8EC20374A80F8F040DD
S214006760C0F8F420354C227C62B10C2202FB0302F6
S214006770334D01335564012582F8485004F1110564
S214006780D564DBB24FF0000CCD798E6805EB450280
S214006790970006EB820226F807C0D3700123443028
S2140067A09370EB185060CB71FFF782FAFFF736FF55
S2140067B0FFF760FE012808D1237C33B1BDE8F8401E
S2140067C01E482DF0A8BF0D23CCE7F8BDA46E002010
S2140067D0F56E0020ED5E00207D960400010020008E
S2140067E07C960400020020007B9604000300200034
S2140067F07A960400040042000500420007003000BC
S2140068006896040012001001060042007896040004
S2140068100040420000FF4401FDFF210070570020A9
S21400682002FF2001F46E0020E05E0020AC6E002027
S2140068300BFF21010CFF1000E55E00201069002010
S21400684001FF100113B504460D482DF0CBFE64225F
S214006850C0F30F43637083B2B3FBF2F3A0782370E8
S214006860202201212EF097F8A078212201212EF077
S21400687092F80449201D02B0BDE810402EF059B829
S214006880A46E0020E09304000B7870B583704CF67D
S2140068901E0303804FF02013C362012380F83030BC
S2140068A080F83C30C3180364124B0446436402234A
S2140068B0114A80F84830114B8263C3644063CA793A
S2140068C08D6802EB420305EB830004F12C0646605C
S2140068D00B4E45F8236000238360531CCB71094B95
S2140068E0201DC4E90134FFF783FC2046BDE8704054
S2140068F0FFF7A8BFFDFF2100210020007E960400C0
S2140069000100010345680000437B044A012113701F
S21400691000781130C0B2FFF725BC00BFF75E00203C
S21400692038B504460078054D11302A460121C0B21C
S214006930FFF708FC08B92B78637338BDF75E0020B4
S214006940024B53F820002EF0EDB800BF9034002024
S214006950012908B506D0022907D049B92EF0D9F882
S214006960002008BD2EF0D8F8FAE72EF0D8F8F7E7A2
S214006970024813F0E1FB0120F3E700BF41000400EA
S21400698010B4054C114654F820001A46BDF80430E1
S2140069905DF8044BFFF7DCBF90340020002310B5F1
S2140069A0044683810364A0F844304830FFF720FC97
S2140069B0014BC4E9123410BD0B4B030038B5044636
S2140069C00B781A4A43700D4642F82300FFF7E6FF9D
S2140069D02046FFF7A5FF4FF4401323610123144A16
S2140069E02375A261134A84F82030E261124A84F8C3
S2140069F02C306262114A84F83830A26204F10C022C
S214006A0022630F4A04F10D036263E363EA79A86820
S214006A1002EB420300EB830110344C60094C40F853
S214006A202340094B8B60531CEB7138BD903400201B
S214006A30F65E002008002000F66E002000FF300002
S214006A4001FF1001020101048169000010B47024E6
S214006A50427B0D48013A012904FB020006D00229B8
S214006A6008D059B95DF8044B2EF053B85DF8044BC6
S214006A702EF052B85DF8044B2EF051B803485DF87E
S214006A80044B13F059BB00BF681900205D000400DA
S214006A90B0F85C302DE9F0418B4204460E4638D003
S214006AA0437B077C8BB31C4A12789A422DD3702501
S214006AB01A4A013B05FB032390F80F801B7B4246D6
S214006AC02EF03EF8B845054601D1FF281FD13A46BC
S214006AD03146204694F890302EF032F82F46054680
S214006AE0552212216078A4F85C602DF054FFFF2F29
S214006AF003D039462046FFF7A9FFFF2D09D02946C7
S214006B002046BDE8F0412EF05BB8FF25DFE70746DC
S214006B10E6E7BDE8F08100BFDD5E002068190020D2
S214006B2041688268C978D27849B112B10321FFF76B
S214006B30AFBF837B002B0CBF01210221F7E72AB1F0
S214006B40837B002B0CBF02210121F0E7014813F0E4
S214006B50F3BA00BF6E000400037BD3B14368DA7853
S214006B6012B18268D278A2B91B7933B1837B002B2D
S214006B700CBF04210521FFF78BBF83681B792BB15F
S214006B80837B002B0CBF05210421F4E7014813F09A
S214006B90D3BA7047A0000400084A437B052113704F
S214006BA0837B5370C37B9370037CD370037B13711A
S214006BB000780E30C0B2FFF7D5BA00BFF85E0020EE
S214006BC038B5044600780C4D0E302A460521C0B272
S214006BD0FFF7B8FA20B1BDE83840084813F0ACBA61
S214006BE02B7863736B78A373AB78E373EB782374BB
S214006BF02B79237338BD00BFF85E0020DC0004004C
S214006C00024B53F820002EF025B800BFB834002001
S214006C10F8B504460B78424A43700D4642F8230006
S214006C20404E2EF035F8FFF7CBFF6268A3683E486B
S214006C303E49D6641165D4655065C3E91410DE6418
S214006C40DC654FF0987302266361012304F10C01A2
S214006C50E16137491032216204F10D01A162354924
S214006C602376E16204F10E016163334984F824302F
S214006C70A16304F10F012164304984F83030616467
S214006C8004F11001E1642E4984F83C3084F8483061
S214006C90216584F85460A265E879A96800EB400293
S214006CA001EB820704F1140CC7F804C04FF4817C92
S214006CB0244F41F82270C218D2B202EB420241F8C9
S214006CC022C001EB820700227A601F4A84F87030E7
S214006CD022661E4A84F88830A2661D4A1D4BE2666C
S214006CE01D4AC4F88C3062671C4A8319A26704F1F7
S214006CF05C02C4F88020DBB2194A03EB4303C4F8F5
S214006D00842084F8646084F87C6001EB830260343D
S214006D105460144A033041F82320E871F8BD00BFE0
S214006D20B8340020216B0000174C0300596B00009C
S214006D3001002001020010010300300104003001B0
S214006D400500210101FC01064A002100809604008E
S214006D50510010008296040083960400550021001E
S214006D606F0018001200010470B50D460646144662
S214006D7013460A460146164813F0DEF925B92046A2
S214006D80BDE87040FFF710BC072D05D12146304600
S214006D90BDE8704000F004BC4FF601439D4205D1AB
S214006DA021463046BDE87040FFF72ABF062D05D1C4
S214006DB021463046BDE8704000F0A6B9B5F5817FA3
S214006DC005D121463046BDE87040FFF7B9BD70BD1D
S214006DD00B0104000148FFF72BBB00BF696D0000E4
S214006DE04FF4C01330B5036001230371074B8C6862
S214006DF08360CA7902EB420304EB830568600448AB
S214006E0044F82300531CCB7130BD00BF84960400A9
S214006E10040001010B786E4A03700123836003F5BA
S214006E202023C0E90423C3604FF4D81383610423EE
S214006E30037700F108030362664B4268436202234D
S214006E40F0B502F11C04C462634C80F82830046379
S214006E5002F11E048463614C80F83430C46302F18E
S214006E60200444645E4C80F84030846400F10C04D6
S214006E7004655C4C80F84C30446500F10E04C46533
S214006E80594C80F85830046600F110048466574C5C
S214006E9080F86430C46600F112044467544C80F8ED
S214006EA07030846700F11404C0F88040514C80F8BC
S214006EB07C3080F8883000F11603C0F88440C0F8B3
S214006EC08C30CD798C6805EB450304EB830600F126
S214006ED018077760484F00F1900C44F823700024A0
S214006EE06B1CB460CB712346D2F830E000F18F07FC
S214006EF0C3F12006A3F120052EFA03F204FA06F6E3
S214006F00324324FA05F508332A43302B07F8012FBD
S214006F10EED101234FF47A72C0E926322B22A0F874
S214006F20A0204FF41412C0F8A420062280F8B43033
S214006F3080F8C03080F8E43080F8F03000F1A1032B
S214006F40C0F8F4302D4B0025C0F8C830032380F875
S214006F50A8202B4A80F8CC30C0F8B02000F196026A
S214006F60C0F8B820274A80F8D830C0F8BC2000F116
S214006F709702C0F8C42000F19802C0F8D02000F1B3
S214006F809C02C0F8DC20204AA0F89650C0F8E0200A
S214006F9000F1A002C0F8E8201C4AC0F8ACC0C0F857
S214006FA0EC201B4A00F1A407C0F8D420CA798E68EA
S214006FB002EB420306EB83046760164F46F8237025
S214006FC0531CA560CB714368134AC3E90D20F0BD7E
S214006FD00100E80305052100080521000B0529002E
S214006FE000062100010621000206210003062100FA
S214006FF00406210005062100040B010A01032200F5
S21400700000021800000330000303180006031800EF
S2140070100203220002070107B14C030038B5002422
S214007020044D55F8040B08B12DF095FE01340A2CDA
S214007030F7D138BDE0340020042908B50AD172B172
S2140070406BB113781BB92DF0B1FE002008BD2DF0F2
S214007050A3FEFAE7034813F06FF80120F6E70320D3
S214007060F4E700BF3E01040010B4054C114654F886
S21400707020001A46BDF804305DF8044BFFF7DCBF6D
S214007080E03400200229024608B50ED004D839B9EB
S21400709010462DF08BFE06E04029F9D0412907D195
S2140070A010462DF079FE002008BD2DF089FEFAE787
S2140070B0024813F041F80120F6E700BF5E01040025
S2140070C010B4054C114654F820001A46BDF804309A
S2140070D05DF8044BFFF7D6BFE0340020426B094B47
S2140070E052791A7082785A70C2789A70826B12B18E
S2140070F090F83C20DA70007804210930014AC0B2CA
S214007100FFF730B8FD5E0020024B53F820002DF04C
S21400711073BE00BFE034002038B504460078084D42
S21400712009302A460421C0B2FFF70CF830B96B7854
S214007130A370AB78E370EB7884F83C3038BD00BFC2
S214007140FD5E002038B504460078114D09302A4609
S2140071500421C0B2FEF7F6FFC8B9A3782A78022B3E
S2140071600CD004D863B920462DF020FE01E0FF2B9A
S2140071700AD02046BDE838402DF0EDBD002AF2D1F9
S21400718020462DF009FEF4E7002AF9D1EBE738BDDA
S214007190FD5E0020F8B504460B78284A0D4642F8F6
S2140071A023004370FFF7B8FF636B254A5C631A63DE
S2140071B02046FFF7C7FF20462DF0CDFD4FF4801385
S2140071C063600123626BA66B0532E2601D4A237280
S2140071D02261A21C2375A26166B11B4A84F8203086
S2140071E0E261E21C6262194A84F82C3004F13C0326
S2140071F0A26223630627EA79A96802EB4203002EFF
S21400720021F8237001EB83000CBF02230423C37014
S214007210012383700E4B04348360531C4460DBB23E
S2140072200C4C03EB430341F8234001EB830000239F
S2140072304360094B02328360EA71F8BDE0340020F7
S214007240D54D03000340300101FF300102FF10015D
S214007250C1700000080001006970000028B1034BEF
S2140072601B78834234BF002001207047DF5E002079
S21400727070B500250A4C0B4E3378AB4200DC70BD6F
S214007280D4F8A42042B123791BB16079FFF7E6FF5A
S21400729010B910462DF030FA0135A834ECE700BFDF
S2140072A0781E0020E15E002008B5427901461046AF
S2140072B0FFF7D4FFA8B1CB780A48013A042B00EBBD
S2140072C082100ED8012B08D81BB9BDE808402DF057
S2140072D063BDBDE808402DF069BDBDE808402DF04F
S2140072E06FBD08BD741C002008B5427901461046E3
S2140072F0FFF7B4FFA8B1CB780A48013A042B00EB9D
S21400730082100ED8012B08D81BB9BDE808402DF016
S2140073104DBDBDE808402DF03FBDBDE808402DF04E
S2140073204FBD08BD741C002010B586B00446FFF79C
S214007330A1F8012830D1E278042A2DD8DFE802F03F
S21400734013323403030061790846FFF787FF58B30A
S2140073501648032A00EB811050F80C3C58791DD1D2
S214007360003818BF012063784FF480728DF804301F
S2140073704FF48273ADF806300623ADF808300123CB
S2140073808DF80B3000238DF80A0001A8CDE9032301
S2140073908DF81430FFF7A6F806B010BDB0FA80F0EE
S2140073A04009E0E70020DEE70220DCE7741C00204E
S2140073B010B586B00446FFF75DF8012830D1E278B4
S2140073C0042A2DD8DFE802F0131332030300617994
S2140073D00846FFF743FF48B31548032A00EB811021
S2140073E050F80C3C5B791DD11A1E18BF0122637839
S2140073F08DF80A208DF804304FF48273ADF806300D
S2140074000623ADF8083001234FF480728DF80B3058
S214007410002301A8CDE903238DF81430FFF762F8A6
S21400742006B010BDB3FA83F25209E0E70222DEE7A7
S214007430741C002010B586B00446FFF71BF8012820
S21400744012D16378094A8DF804304FF48273ADF890
S21400745006304FF48073CDE90223002301A804937D
S2140074608DF81430FFF73EF806B010BD080007018F
S21400747010B586B00446FEF7FDFF012820D16278DD
S214007480104B8DF804204FF4827294F8A01094F8F4
S214007490A10059701870ADF8062004934FF480725E
S2140074A00223094901A88DF81430CDE90212FFF72E
S2140074B019F894F8A130013B18BF012384F8A130D5
S2140074C006B010BD015F00200800050110B58378E6
S2140074D0044603B30379022B0AD142791046FFF71C
S2140074E0BDFE28B10C48013A00EB82102DF068FC76
S2140074F0A379022B02D12046FFF716FF2046FFF79E
S214007500B7FF02236078A4F86C305522BDE810401F
S21400751012212DF040BA10BD741C00204388094A81
S214007520082113808388538083681B8A938090F891
S214007530A03093718379D37100780430C0B2FEF71F
S21400754011BE00BFF257002038B50D46044601783C
S214007550114812F0F1FD4FF602739D420ED10F4B0B
S2140075601B782BB963712046BDE83840FFF7D6BFBD
S21400757062790AB19342F6D20123F3E7B5F57F4F5D
S214007580F1D120462DF0B5FCA378022B0CBF0122CA
S2140075900022A3689A70E6E77A010400DF5E002006
S2140075A0024B53F82000FFF7CFBF00BF083500207E
S2140075B038B504460078144D04302A460821C0B277
S2140075C0FEF7C0FD20B1BDE83840104812F0B4BD4B
S2140075D02B8863806B88E978A380AA88A3681A82C0
S2140075E0AB7984F8A030EB79A371094B1B780BB903
S2140075F0637138BD09B19942FBD9064812F09CFD6B
S21400760023780133F4E700BFF2570020940104000A
S214007610DF5E0020BD010400F8B504460B78474A3B
S2140076200D4642F823004370FFF7C2FFA268444BA2
S214007630D465D364434B02265365434BA11C1365A4
S2140076404FF44013E36001236161E1623F49103269
S21400765021632265211D3E4AA1633E483E4962657C
S21400766004F1A002A061E163E265E01C611D3B4AF3
S214007670206261643A483B492266A21D2374237740
S21400768084F8283084F8343084F84030A16484F8D4
S2140076904C6084F8583084F864306062A266E879FA
S2140076A0AA6800EB400102EB810704F10C0CC7F856
S2140076B004C04FF0060C2C4F42F82170C118C9B216
S2140076C001EB410142F821C002EB810700217960FD
S2140076D0264F84F880302767254F84F89830A767B0
S2140076E0244F254BE767254F84F8746084F88C6038
S2140076F0C4F89C3004F16C06831CC4F88470C4F88B
S21400770090601F4F1F4EDBB203EB4303C4F8946038
S214007710C4F8887002EB83067034746008261A4C2E
S21400772042F82340C31CDBB203EB430302EB8304A3
S214007730043042F823606160E871F8BD0835002027
S214007740494E0300934E0300CD74000001FF300144
S21400775004FF20011000300102FF200105FF300168
S21400776000FF300103FF2101070001084A00210045
S214007770869604005100100088960400899604003E
S214007780550021006F0018001200010400239B6AB8
S214007790B3F5804F03D21968064A914203D00023FE
S2140077A0037083607047012202709A689B6942608A
S2140077B0F7E700BF07B0CD5E024B034A1A602EF013
S2140077C0BCBF00BF0000002002020FF073B53F4BA5
S2140077D004461A781AB102221A7002B070BDCDE9BA
S2140077E000220028F9D001261E7037F0B5FE384D6D
S2140077F0384B186017F082FA2B785BB902F0F2F972
S21400780040B935480823354A3549006801F038FE46
S21400781000B92E70334B5A68E260334A9A601A6E8B
S21400782022605A6E6260D3F87021A2601B6E5C0400
S2140078302CD52E4AD368D807FCD42D4B1A68531C77
S21400784029D04FF4801393402A4A13660423294C08
S2140078504FF0804223664FF480632366102323662E
S2140078604FF400536846236601A9226663662DF02E
S21400787058FB009B2366019B63662B78002BACD0DD
S214007880164B1A6822665B686366A6E71A4AD368D0
S214007890D907FCD4D1E7194B1B78002BD6D1184B4F
S2140078A05A68144B12B94FF480121A66154A526879
S2140078B012B94FF400121A66134B5B68002BC5D141
S2140078C04FF480020B4B1A66C0E700BF045F00202F
S2140078D0055F0020403500207C69002044350020EC
S2140078E0007108000080004455CEAC000000044043
S2140078F0486900200090004400000450035F002008
S2140079000080055000C005500000065038B5224DD6
S21400791004462B78012B02D001232B7038BD00289B
S214007920FCD02DF023FB013009D02DF01FFB40F2D8
S2140079300113984203D0194AD368DB07FCD42268A7
S214007940174B1A6662685A66A268C3F87021E26826
S214007950D40744BF00229A60124B1A68013213D132
S214007960114A127882B911494968C80748BF1A6097
S2140079700F4A5268D10744BF01221A600D4A526866
S214007980D20744BF02221A6017F0C0F90A4B1868E3
S21400799037F0DDFD0023C0E7045F00200000044050
S2140079A00080004448690020035F002000800550E6
S2140079B000C00550000006504035002070B5002479
S2140079C0A36AB3F5804F23D21A68134B9A421FD18D
S2140079D0124E337813F0FD0518D14FF4803410485A
S2140079E0FFF7F4FE032004F04FFC0E4B0320DC6090
S2140079F004F02EFC0C4B1C61AB6ADB69984704460E
S214007A000748FFF783FF0CB901233370204670BD8B
S214007A104FF48174FAE700BF07B0CD5E035F002025
S214007A203035002000A000440090004413B5204BE1
S214007A301B7803B9FEE700231E4CCDE900336A46E7
S214007A4008231D49206801F01BFDF8B91B4AD2F82F
S214007A504031D2F840211F2B4FF0010311D9203AB4
S214007A609340019A1A43019208236A4612492068F5
S214007A7001F08EFE124B134A1A602EF05EFE02B024
S214007A8010BD9340009A1A430092EDE72D28F1D1DD
S214007A900A4AD2F84031D2F840211F2B4FF001039A
S214007AA085BF203A93409340019398BF0093DBE74D
S214007AB0045F00207C6900200071080000800044FC
S214007AC0000000200B020FF038B50025AB6A044614
S214007AD0B3F5804F10D21B6BB3F5804F0CD207481E
S214007AE0FFF774FEAB6A20461B6B5B689847BDE8E1
S214007AF038400248FFF70ABF38BD00BF4C350020AB
S214007B0013B50024A36A0190B3F5804F13D21B6B04
S214007B10B3F5804F0FD20948FFF758FEA36A01213C
S214007B201B6B01A89B69984704460448FFF7EEFEC6
S214007B30204602B010BD4FF48174F9E74C350020A2
S214007B4070B50026B36A0446B3F5804F0D4612D2D0
S214007B501B6BB3F5804F0ED20848FFF737FEB36AAB
S214007B6020461B6B29469B69984704460348FFF747
S214007B70CDFE204670BD4FF48174FAE74C350020E8
S214007B8070B50026B36A0446B3F5804F0D4612D290
S214007B901B6BB3F5804F0ED20848FFF717FEB36A8B
S214007BA020461B6B2946DB69984704460348FFF7C7
S214007BB0ADFE204670BD4FF48174FAE74C350020C8
S214007BC0F8B50027BB6A0446B3F5804F0D46164647
S214007BD011D21B6B7BB10948FFF7F8FDBB6A204644
S214007BE01B6B324629465B6A984704460348FFF7F4
S214007BF08DFE2046F8BD4FF40174FAE74C350020A0
S214007C0070B50026B36A0446B3F5804F0D4612D20F
S214007C101B6BB3F5804F0ED20848FFF7D7FDB36A4B
S214007C2020461B6B29469B6A984704460348FFF785
S214007C306DFE204670BD4FF40174FAE74C35002007
S214007C40F0B50027BB6A0446B3F5804F0D461646CE
S214007C50ADF5337D20D21B6BB3F5804F1CD2104898
S214007C60FFF7B4FDBB6A20461B6B40F2C1225B6A7D
S214007C7001A99847044630B10948FFF747FE204659
S214007C800DF5337DF0BD836A32461B6B2946DB6AF1
S214007C9001A898470446EFE74FF40174EFE700BFEA
S214007CA04C35002010B50024A36AB3F5804F10D2DF
S214007CB01B6BB3F5804F0CD20748FFF787FDA36A0E
S214007CC01B6B1B6B984704460348FFF71FFE2046B6
S214007CD010BD0124FBE700BF4C350020F0B58FB087
S214007CE0044601A80E461546FFF7EEFE9DF80C303A
S214007CF0012B12D1B5F5402F27D8B4F5402F24D844
S214007D006319B3F5402F20D821462A46304613F093
S214007D10B5FC002420460FB0F0BD0027BB6AB3F5C3
S214007D20804F15D21B6BB3F5804F11D20A48FFF770
S214007D304DFDBB6A2A461B6B314620465B6B984757
S214007D4004460548FFF7E2FDE4E740F20244E1E7B7
S214007D5040F20114DEE700BF4C350020F0B58FB0CE
S214007D60044601A80E461546FFF7AEFE9DF80C30F9
S214007D70012B1FD1B5F5402F06D8B4F5402F03D8F8
S214007D806319B3F5402F13D940F2024420460FB0D2
S214007D90F0BDE258013225D104339D42F9D82A4677
S214007DA0314620462DF012F90028EDD00024EDE7EC
S214007DB00023F2E70027BB6AB3F5804F15D21B6B92
S214007DC0B3F5804F11D20A48FFF700FDBB6A2A467A
S214007DD01B6B314620469B6B984704460448FFF7CA
S214007DE095FDD3E740F20344D0E740F20114CDE717
S214007DF04C35002070B58EB0044601A80D46FFF73E
S214007E0063FE9DF80C30012B22D144EA0503C3F330
S214007E100C03002B33D1B5F5402F04D940F20244B1
S214007E2020460EB070BDB4F5402FF7D82544B5F502
S214007E30402FF3D8204604F500542DF0C0F8AC428D
S214007E4002D00028F6D1E9E70028E7D00024E7E7CB
S214007E500026B36AB3F5804F14D21B6BB3F5804F80
S214007E6010D20A48FFF7B2FCB36A29461B6B2046BD
S214007E70DB6B984704460548FFF748FDD0E740F21D
S214007E800444CDE740F20114CAE700BF4C35002099
S214007E90BFF34F8F0549064BCA6802F4E0621343EE
S214007EA0CB60BFF34F8F00BFFDE700BF00ED00E0E3
S214007EB00400FA0570B5D0B1C9B10E4E431E0139A3
S214007EC013F8014F2046325D02F00302012A11F832
S214007ED0012F08BF04F12000B55C05F00305012D55
S214007EE008BF2032801A01D1002CE9D170BD0120D4
S214007EF0FCE700BFE9BD04000348044A0449121A1F
S214007F0092102DF0AFB800BF34410000D042000000
S214007F104866002008B5154B83F30A8800F030F851
S214007F20FFF7EAFF124B13498B4212D30020124B85
S214007F3012498B4218D3FCF7D5FE186850F8224039
S214007F40586840F82240013298688242F5D30C33D4
S214007F50EAE70022F8E71C6844F8220001325C6871
S214007F60A242F8D30833E4E70022F8E7080000202E
S214007F70A8E20400B4E20400B4E20400B4E20400A0
S214007F80124B134A70B59A60D3F88820114D42F40C
S214007F907002C3F888206FF0010205F500542266CF
S214007FA041F2FF7262660222C3F8D020BFF34F8F01
S214007FB0BFF36F8F4FF44036032004F065F90320BB
S214007FC0E66004F045F92E6170BD00BF00ED00E0EC
S214007FD00040000000800044014B1860704700BF5E
S214007FE050690020054B1860054B1B6F03F0070314
S214007FF0032B01D135F062BB704700BF58690020E3
S214008000008000502DE9F04104464FF001080C2591
S2140080100D4E0CB9BDE8F08194FAA4F0B0FA80F0E9
S2140080200F2808FA00F2C8BF103824EA0204CABFB4
S21400803005FB006205FB0062B4325768002FE8D0EB
S2140080409168C0B2B847E4E75C35002008B50C4834
S21400805037F020FB192004F009F928B1192004F0A4
S21400806013F9192004F0F4F81A2004F0FFF828B1E8
S2140080701A2004F009F91A2004F0EAF8002008BDD6
S214008080EC9804002DE9F0410E461746054618B355
S2140080900F2923D80378DBB1013BDBB2022B19D8BA
S2140080A0104AD35C6A78D340DB0717D50E4BD3F85B
S2140080B01043ACB937F050FA80463A462846314667
S2140080C002F042FE404637F042FA2046BDE8F08114
S2140080D07F23E7E70023E5E72224F6E72124F4E7F9
S2140080E00224F2E7DC96040000C0035010B50446F4
S2140080F010B30378E3B1013BDBB2022B1AD8104A67
S214008100D35C6278D340DB0718D537F025FA012216
S214008110617823788A4030214B4341F2100103F105
S214008120A04303F570335A5037F011FA002010BD03
S2140081307F23E6E70023E4E72220F8E72120F6E79E
S214008140DC96040010B5044610B30378E3B1013B97
S214008150DBB2022B1AD8104AD35C6278D340DB0716
S21400816018D537F0F9F90122617823788A40302152
S2140081704B4342F2100103F1A04303F570335A500B
S21400818037F0E5F9002010BD7F23E6E70023E4E79B
S2140081902220F8E72120F6E7DC96040038B50D46E5
S2140081A0044618B311B30378E3B1013BDBB2022BEC
S2140081B01AD8104AD35C6278D340DB0718D537F05C
S2140081C0CBF930222378534303F1A04303F57033F1
S2140081D05B696278D34003F001032B7037F0B7F980
S2140081E0002038BD7F23E6E70023E4E72220F8E7F7
S2140081F02120F6E7DC9604002DE9F0410D461646F0
S2140082009846044600284FD000294DD00178002912
S21400821040D04B1EDBB2022B3ED8254AD25C637898
S214008220DA40D20701D4FF2940D1022E01D9042E0C
S2140082303CD137F091F923780746FF2B05D032461C
S2140082402046296802F0C6FD28602B68013309D154
S2140082502378FF2B06D1174B6078D3F824142DF023
S214008260DCFC286029684B1C18D00C23124A03FB40
S2140082700122069BC2F8048093602378FF2B04D06B
S21400828001230E4A8B40C2F82434384637F05FF993
S214008290002007E07F22C2E70022C0E7384637F01A
S2140082A056F92D20BDE8F0812220FBE72120F9E7D2
S2140082B0DC96040000C003505C35002000D003505C
S2140082C008B502F037FD044B00F05530C3F8200423
S2140082D0BDE80840FFF796BE00E0035008B502F080
S2140082E029FD044B00F0AA30C3F82004BDE808407E
S2140082F0FFF788BE00E003502DE9F04F1446054610
S2140083000E469B46C36B87B001225B6902A9606874
S2140083109847EB6B01225B6903A93046984702A891
S2140083202DF09FFA074648B10023A37563754FF0FA
S214008330FF33A360002007B0BDE8F08F03A82DF040
S2140083409DFA0123A375237E04EBC303DE611F841D
S2140083506368B3420ED1206003A82DF0B1FA4FF047
S214008360FF332075A360237D043B022B26D8002311
S214008370A375DFE723681A1A53425341A37503A86F
S2140083802DF09EFA237D834218BFA77503A82DF013
S21400839079FA074602A82DF075FA874218BF00231F
S2140083A003A818BFA3752DF075FA074602A82DF08E
S2140083B071FA87421CBF0023A375D4E703A82DF0EB
S2140083C061FA80B1EB6B022230465B6904A99847DC
S2140083D004A82DF066FA0346207D032839D8DFE886
S2140083E000F03838040903A8F3E7CC22237E04EB18
S2140083F0C3031A8401F06EFC109B187003A8277E36
S2140084002DF034FA04EBC70787F82200237E03A872
S21400841004EBC303B3F8209093F822702DF032FAE1
S214008420804603A82DF036FA8246B8F1000F15D024
S214008430EB6B022230465B6904A9984704A82DF02E
S214008440F5F96075637D6BB90023A3754FF00008DE
S21400845038E0227E04EBC2021384CBE703A82DF09B
S214008460D0F9EEE794F81680B8F1000FEED0B9F127
S214008470000F09D1DFB10123E375637E002B4FD1D6
S214008480012F42D1677614E06B6C06EB0A015A4264
S21400849086EA010010421CBF0022A2755A1E0A403E
S2140084A09B1A9945D0D8A37D002BE3D1CEE7E37D78
S2140084B043B94FF000084B465246314628462CF04A
S2140084C01BFFA060A27D12B123694B4423611A49A9
S2140084D0237E097899422AD901332376BBF1000F0F
S2140084E027D032B3E37D23B3B8F1000F21D1032F99
S2140084F01FD0A1684B1C1CD0109B22460093284618
S2140085000123FFF7F9FEA07513E095F8343063B940
S214008510EB6A0133CFD1032FCDD10123A376C8E771
S214008520012FCFD0032FC4D1F7E79846C3E7002327
S214008530A375A07DFFE600BF009704002DE9F04F6D
S2140085400E46984600238BB004464FF0FF31104687
S21400855017468DF8133001F0A7FBB6F5801F20D222
S214008560314605AA04F108002DF0CDF8451C014659
S21400857003D1237CBBB92D2010E0384601F094FBD4
S2140085800122394620460DF113032CF007FF002880
S214008590EFD09DF8133088F8003000200BB0BDE80F
S2140085A0F08FB01CE5D1E56A691C36D12046616AB9
S2140085B02CF0E8FD0546B31C18BF0123DFF8CC906D
S2140085C00193636A626C0293236805A902FB053A6D
S2140085D0E36B05225B695046984705A82DF0DCF949
S2140085E02DF0FFF950462DF007FA4FF0000B8246AB
S2140085F001464B1C05D0636C81EA0A025B421342BB
S21400860011D0294620462CF0BDFD029BAB422CD053
S214008610BBF1000F2CD10546D3E72368ED1A636C37
S214008620B5FBF3F5C7E7484601F03EFB0DF1130333
S21400863049462046019A2CF0B1FE034690B1B21C82
S21400864003D0D9F80020B2420CD19DF81320039332
S2140086500D4B88F8002049461A68384613F00EF885
S214008660039B9B46D9F80810C3E7BBF1000F82D0E6
S214008670B6F5801F91D2314698F800307A6804F13A
S214008680080001F03FFA88E7FC960400383D002019
S2140086902DE9F3410446174698460E46184D816A62
S2140086A0E36A8B4201D04B1C02D102B0BDE8F081D8
S2140086B0284601F0F9FA0122294620460DF1070363
S2140086C02CF06CFE38B14346294620469DF807201C
S2140086D0B8470028E9D0A9684A1C04D16968204632
S2140086E02CF0DDFD0146012EDAD16B6881EA03022B
S2140086F0636C5B421A4218BF4FF0FF31D0E700BFF1
S2140087000C3D00202DE9F04F4FF0FF334FF6FF727F
S2140087100025044600F10806C0E909238BB0C362B1
S21400872005620563304688462CF0BEFF20462CF0D6
S214008730F9FC60BB204641462CF074FD20462CF028
S214008740F1FC60BB5E200BB0BDE8F08F2368E26BE7
S214008750606C576900FB0530052205A9B84705A8D7
S2140087602DF01AF9012807460CD1294620462CF090
S2140087702AFD012F024600D10132294620462CF060
S214008780F0FC03E02DF032F90028EED10135E36964
S2140087909D42DBD320462CF0C5FC0028CAD000251D
S2140087A04FF0FF394FF6FF73CA46A846C4E9085390
S2140087B0E36998450AD3A5EB0905012D2CD84FF699
S2140087C0FF72636A93423CD16720BCE72368E26B82
S2140087D0606C576900FB0830052205A9B84705A854
S2140087E02DF0DAF8834605A82DF0ADF80746584672
S2140087F02DF0F7F868B1574538BFC4F82480B9455E
S21400880028BFB946BD4238BF3D46BA46236A013343
S214008810236208F10108CBE74FF6FF730025636279
S214008820E3699D42CBD2676C2068E36B052207FBA9
S21400883005005B6905A9984705A82DF084F8013561
S214008840EEE7E26B676C2068694607FB0300556934
S2140088500522A84768462DF076F8626A2368606CA1
S2140088604B4D00FB02302DF0C7F84FF0FF33A062EF
S214008870E3622A466FF00101204605ABFFF75EFE75
S214008880002846D1AD6829462046E5622CF026FC35
S214008890206320B92046E16A2CF001FDE0622946FB
S2140088A020462CF0FCFC0546A36A9D4233D12046A8
S2140088B02CF0E7FB00278046B946E36999453CD390
S2140088C0B84559D92046616A2CF05CFC002605465E
S2140088D004F1400AB74212D8626C2368694602FB6C
S2140088E00539E36B05225B694846984768462DF0D4
S2140088F02AF8534602464946E06B2DF07FF8294693
S21400890020462CF03FFC0136B0450546E2D16420F7
S21400891019E7A56AB7E7294620462CF0DFFB236B4C
S214008920294603440746236320462CF0B8FC054638
S214008930002FB9D1C4E90B07B6E7636C256805229A
S21400894003FB0955E36B05A95B692846984705A80C
S2140089502DF022F82DF045F858B128462DF04CF8A9
S214008960014620462CF0BAFB636C143B984208BFC5
S214008970013709F10109A0E730462CF095FE0023E7
S21400898020461946034AFFF783FE0020DBE600BFB9
S214008990643D00208B5303002DE9F041036B9046A5
S2140089A0826B07689A4288BF8363426C436A90B0C2
S2140089B002FB0377C36B0E46052201A95B690446DA
S2140089C03846984701A82CF0E7FF0128014630708A
S2140089D057D0656CE26B2368606AD2F814C005FB5A
S2140089E00030052206A9E04706A82CF0D5FF01288E
S2140089F04FF0000523D0D4E90A3201219342CDE995
S214008A000B458DF834800E958DF83C102AD119460A
S214008A1020462CF044FC236B626C14339B1AE062F5
S214008A2023630C9B53B99DF83C303BB1626A616C82
S214008A302368E06B01FB02312CF066FF0C9DE36BB4
S214008A4005225B6901A93846984701A82CF0A4FFC7
S214008A5030702846236BA26B9A4288BFA36310B07F
S214008A60BDE8F081237C33B91C490BAA04F1080049
S214008A7001F096F8D5E72046194A0BABFFF708FE3B
S214008A80CFE7237C23BB2246164904F1080001F0F9
S214008A9087F8616A20462CF096FB616A421C2046E5
S214008AA02CF05FFB054620B9236B626C1344143B25
S214008AB023632046A16A2CF0F2FB2368A062C01A4A
S214008AC0636CB0FBF3F0606220462CF02BFCB6E73C
S214008AD000232046044AFFF7DBFDDAE73D9200005C
S214008AE0B991000025540300C153030073B50D4629
S214008AF0D11E4A421C461B7E4A419A4226D129680C
S214008B002368994222D3636899421FD8114E0DF10B
S214008B1007033246FFF712FDC0B972686B689A42C7
S214008B2014D19DF80730DA1E53425341227E9342F9
S214008B300CD1636901336361D4E90323934205D200
S214008B402968A26842F8231001332361012002B08D
S214008B5070BD00BF643D00202DE9F04F9B4689B0F4
S214008B609DF848309046514A0193136907465B4585
S214008B700D46C0F09580D94653680093B9F1000FB2
S214008B807BD0FB6B01225B6905A90098984705A876
S214008B902CF074FE454B1B68984240F0848005A874
S214008BA02CF078FE0428064615D105A82CF079FE90
S214008BB0009B04461E44019B002B3ED1804512D9E3
S214008BC01C46A8EB0008384600992CF068FBA9EB79
S214008BD004090090D2E7FB6B02225B69009806A9A5
S214008BE0984706A8E2E7A0EB08045C4528BF5C4669
S214008BF0032C4644ABEB040B1DD9FB6B29463046D1
S214008C005B69A208984724F0030304F0030A1E4495
S214008C101D44DDF80480BAF1000FD4D0FB6B0122AE
S214008C2006A930465B6998475246284606A912F0C0
S214008C3025FD5544C7E7A246EBE7824600F003034E
S214008C4002932B1803930644039BA6EB0A00A3EBA0
S214008C500A05029B9A4514D1BAF1000FB3D0FB6BFC
S214008C60012206A95B6998475246284606A912F0D3
S214008C70C1FE0028DDD04FF03609484609B0BDE8F1
S214008C80F08FFB6B012206A95B69984704222846F1
S214008C9006A912F0AFFE0028EDD1AAF1040AD3E728
S214008CA04FF06309E9E74FF06F09E6E7903D0020D3
S214008CB02DE9F0410F4616469846044688B060B344
S214008CC090F83450FDB101212CF021FA00210E9BC2
S214008CD0CDE90511CDE902379DF83C30CDF804808A
S214008CE08DF81C30237C04968BB90D4901AA04F13B
S214008CF0080000F055FFDDE90553E06B002E08BFC5
S214008D001D462CF09DFB284608B0BDE8F0812046A5
S214008D10044A01ABFFF7BCFCEDE70546F3E700BFEE
S214008D20EF530300ED8A00007FB590F842600446DA
S214008D3001920DF10B030A46304611492CF088FBD0
S214008D40012E0546E36B17D132465B6903A99847A7
S214008D509DF80B10039B019A59B19BB243EA02435C
S214008D60012228460393E36B03A99B69984704B046
S214008D7070BD62F30F03F3E701229B6901A9F5E7D3
S214008D80903D00202DE9F04F99B00E460D920A69ED
S214008D90416C0B931439D31DB3FBF1F3013302EB93
S214008DA0C302036B04469342C0F001820023DFF83F
S214008DB004940893E36A48461946059300F074FF46
S214008DC0D6E9033707930B9B022B4DD1CC2F40F0EF
S214008DD0D7810D9B3BB1314620462CF08FFB656C4E
S214008DE01490012044E00120079B656C1B681493D7
S214008DF000F0010000280CBF04230823782F0E93F0
S214008E0049D8059A6B1E1340ED1A3B1D9D423CD275
S214008E10002F3DD0082D3ED80023042506934FF0A2
S214008E20040A336806990B98C9F80030C9F8107020
S214008E302CF04AFD4FEA9A030F93059B89F814001D
S214008E400393002309930C9304930A93616C039B8A
S214008E504A1E1A408B1A27B35544AB4223D8236BBD
S214008E605B1A134423632FE1782F656CB9D8F07D25
S214008E700D9B002BBCD0E36B01225B69706816A9C2
S214008E80984716A82CF0FEFCB4E700250695C6E722
S214008E9004250697C3E7012300254FF0080A06932A
S214008EA0BFE75345DBD3A3EB0A029742039BB846C2
S214008EB028BF90469742534428D90122D9F810106B
S214008EC089F817208F4226D10399C9F80410049216
S214008ED099F817200AB399F818100398CA1C09EBDA
S214008EE0C202506004980131A2F80880907289F896
S214008EF01810B8F1000F07D00B9A022A40F08180B4
S214008F00099A72B1012209929B46ABE0049A002AA4
S214008F1018BF0322DBE70222D9E7039AC9F8042028
S214008F20E7E70C9A4244032AEED9E26B18469569A5
S214008F3014A901220993A847099B05460028E1D0F9
S214008F403D2D40F01E8104F1080303932368059A23
S214008F50606CA2EB030ABAFBF0FA00FB0A302CF0B6
S214008F604BFDE16A804620462CF099F9A26A8242BF
S214008F7000F00F81626CD9F80830511E0B40216B4F
S214008F802768891A0B442363089BE062DF1BB7FB44
S214008F90F2F7BA4540F0FA80059BB3EB080A12D008
S214008FA0E36B4FEA9A0241469B6998478346E36A19
S214008FB0059A5344E362236B03989B1A4344236346
S214008FC02CF072FBDA462368616CE06B01FB07311C
S214008FD02CF087FC20462CF0A5F820462CF0A2F9B1
S214008FE02063BAF1000F00F0D4803269616CD31DA3
S214008FF01439B3FBF1F3013302EBC3029042A5D25E
S214009000BFE00D9A002A77D1B8F1030F4FEA980215
S2140090106ED9E16B18468D6907991093A847109B87
S2140090200546C0B918F0030515D0079A28F0030BBB
S21400903002EB0B019B444FF0FF3215A815922A460F
S214009040109312F01BFBE26B5846956915A9012296
S214009050A8470546109B9B46079A42440792002D58
S21400906040F08B80049B16A80193069B009399F80A
S21400907014204346316800F0CDFDE36B0F9A9B69E0
S214009080039816A99847039A051E089B18BF13460F
S214009090089343465246204603992CF02DF9236B3D
S2140090A008F10302A3EB0A0322F003029B1AC9F895
S2140090B008002363002D7FF443AF0C9BA7EB080743
S2140090C043440C93CDF80CB0204603992CF0E7F8F7
S2140090D000250390002F7FF4B9AE364A31689368B6
S2140090E004F10800E36252680B9B00F00BFD49E0B8
S2140090F09B46454607999EE79B4606F1200210923E
S214009100F27D7068A2B1002296F818C00A99D5B20E
S214009110AC4511D9109D02F1010E35F832508D4242
S21400912028D90E9806EBC2020144D069084403E031
S2140091300E9A0A990A441044E26B15A95569012251
S2140091401193A847159A0A9B1392E26B043395690C
S2140091505846012213A90A93A847119B054603EB1C
S2140091600802A2EB0B02042A7FF679AF28B90BF1AE
S214009170040BC5E77246491BC9E7CDF820B088E75F
S21400918070252F46384619B0BDE8F08F4FF0000A1C
S21400919019E73269616CD31D1439B3FBF1F301335F
S2140091A002EBC302236B9342BFF404AEE9E71C272D
S2140091B0E8E700BF383D0020032A2DE9F3410646C4
S2140091C00D4617461C4606D1237A012B23D00120D4
S2140091D002B0BDE8F081DFF86080096842460DF114
S2140091E00703FFF7ABF960600028EDD19DF8072074
S2140091F0237A032AE8D0D8F804106A689142E3D1AB
S214009200012B2969D4F80CC007D172690CEB010355
S214009210934202D92074207CDAE708316144E16089
S2140092203B46012229463046FFF7ACFD6060002829
S214009230CAD00020CCE700BF643D00202DE9F341F2
S214009240089C032A1746266806D1237A012B24D0C9
S214009250012002B0BDE8F081DFF89080304642463B
S2140092600DF10703FFF76AF960600028EDD1256865
S214009270D8F80400A96AD5F844C04840CCF10003E9
S2140092801840227AE1D1012A09D1E268D8F81030D4
S21400929013447269934202D92074207CD9E7286867
S2140092A0EB6A1B1A081AB3FBFCF3B0FBFCF0834214
S2140092B00BD1706CF36A421E1340326B121A1344C1
S2140092C0284633632BF0EBFFE862D8F81020E368FB
S2140092D008321344E36001223B4604492068FFF746
S2140092E051FD60600028B0D00020B2E7643D002049
S2140092F02DE9F0410025604B0E46D3F80080044669
S2140093001D6018B921252846BDE8F08190F8347014
S21400931007B30A6803689A4240F0A3804A68436825
S2140093209A4240F09E808A6883689A4240F099800C
S214009330CA68C3689A4240F094800A6943699A42B0
S21400934040F08F808A69C36B9A4240F08A804B69EE
S2140093508361D8E768223946856B11F0FFFFD6E9AE
S2140093600212336804F1080023607368A563636023
S214009370336963617369A3612CF0A8F9B36904F1DA
S2140093804000E3639B68984720B9676C17B1636831
S214009390B3FBF7F794F84330E761002BB2D0002315
S2140093A0656C2366002D64D0002F62D02368B3FB63
S2140093B0F5F205FB1233002B55D16668B6FBF5F3C4
S2140093C005FB1363002B4ED120462BF077FEA369D6
S2140093D0043303449E4248D340F634726369CC3B60
S2140093E0934244D8B5F5805F43D3032120462BF043
S2140093F08EFED4E90001E36B1B6898470546E36BD5
S2140094000220DB689847CDB941462046FFF77AF937
S2140094106428054604D141462046FFF773F9054601
S214009420666C5DB9236A2046143E5E432BF046FE0A
S214009430A369043303449E4238BF5A25002D0CBF4F
S2140094400123002384F8343007D1D4E900010B4A05
S2140094501368013313602CF0D3F9E06B2BF0F0FFA8
S21400946051E75D254FE759254DE75A254BE75F2520
S21400947049E75B2547E700BFC8360020C436002012
S2140094802DE9FF410C4616461F46054680B390F868
S21400949034307BB3B1F5801F2ED2DFF86080012117
S2140094A02BF035FE2146424628460DF10F03FFF706
S2140094B045F8044670B99DF80F30012B11D1D8F845
S2140094C01030BB4212D10246009031462846FFF7C4
S2140094D043FB0446E86B2BF0B3FF204604B0BDE820
S2140094E0F081022B14BF2D246024F3E76324F1E7F8
S2140094F02124F2E71124F0E72924EEE7903D00202E
S2140095002DE9F04385B00C4617461E460546DDF8A5
S214009510308098B390F8343093B3B1F5801F31D2D1
S214009520DFF8649001212BF0F2FD21464A462846DA
S2140095300DF10F03FFF702F8044688B99DF80F30C7
S214009540012B14D1D9F8102006EB08039A4213D346
S21400955000904346324639462846FFF7FDFA044651
S214009560E86B2BF06DFF204605B0BDE8F083022BBC
S21400957014BF2D246024F3E76324F1E72124F2E7E7
S2140095801124F0E72924EEE7903D002073B50C4641
S2140095901646054630B390F834302BB3B1F5801F2D
S2140095A024D201212BF0B3FD21462846104A0DF1A6
S2140095B00703FEF7C3FF044680B99DF80730032B68
S2140095C00CD0022B0CD1284609492BF097FF3060AF
S2140095D0E86B2BF035FF204602B070BD2D24F7E770
S2140095E06124F5E72124F6E71124F4E72924F2E7BD
S2140095F0903D00202DE9F3411E4600230C461746F9
S2140096000546336050B390F834304BB3B1F5801F45
S21400961028D2DFF8548001212BF079FD21464246FE
S21400962028460DF10703FEF789FF0446A0B99DF80A
S2140096300730032B10D0022B03BF01233B6004230B
S214009640D8F8103018BF38603360E86B2BF0F8FE9F
S214009650204602B0BDE8F0812D24F6E72124F7E786
S2140096601124F5E72924F3E7903D002073B504465E
S214009670056B2BF023FD636E03449D422CBF002335
S2140096800123854294BF00252D1A207C84F8503093
S214009690656584F85800A8B100230C4E1A46194692
S2140096A0204600962BF0EEFF002305461A46194684
S2140096B0204600962BF0EFFFE3682844984294BFBC
S2140096C00020C01AE06502B070BD00BFFFFF0F00AB
S2140096D02DE9F3471E4643690446B34288461746BB
S2140096E09DF828904ED300258DF8075020462BF085
S2140096F0E5FCD4F830A082450AD2236AB5EB430FC6
S21400970006D2002220460DF10701FFF745F9B8B34F
S2140097109DF80730012B05D1002220460DF10701E8
S214009720FFF73AF9B9F1030F06D0314620462BF081
S214009730B5FC256B854227D3144D4FF0FF312846E4
S21400974000F0B2FA4B46294600222046C5E90376C9
S214009750C5F80080FFF716FB236E054663B120466A
S214009760FFF784FF94F8503013B994F858301BB1C3
S214009770236E04F150009847284602B0BDE8F087F3
S2140097800135B3E76225F7E71C25F5E7643D0020C1
S2140097902DE9FF410F4690461E46054698B390F8C1
S2140097A0343093B3B1F5801F31D21A4C02212BF01E
S2140097B0AEFC2246394628460DF10F03FEF7BEFEE4
S2140097C0024678B10123424600933946334628467E
S2140097D0FFF77EFF0446E86B2BF032FE204604B00F
S2140097E0BDE8F0819DF80F30012BEBD12169B14225
S2140097F0E8D10093414633462846FFF7ADF90446C4
S2140098000028DFD1E7E72124E8E71124E6E729244A
S214009810E4E700BF903D00202DE9F04790F8423085
S21400982086B0012B05460391A1EB020740F0AA8003
S214009830FF2F03D81E464FF0640807E00226012BD0
S21400984014BF4FF032084FF06408013600244FF67C
S214009850FF79DFF844A195F84230012B14BF32237C
S21400986064239C4202D35FFA88F40DE005AB2246DF
S214009870514628462BF020FE95F84230012B059BDA
S21400988034D14B452DD1E4B295F84230012B14BFAC
S21400989032226422121BB24217D3012E39D1002283
S2140098A0012B05978DF8132027D1082205A90DF165
S2140098B013002CF0BDF89DF81330059A42EA0322F7
