S01B00006275696C642F72656C656173652F7A69676265652E73333714
S21400400008100020B582000049CA00006D0D0300AC
S2140040106D0D030051CA000059CA00006D0D030063
S2140040206D0D03006D0D03006D0D03006D0D030097
S2140040305DCA00002C5104006D0D03006D0D0300D9
S2140040406D0D03006D0D03006D0D0300CD7D0000AA
S2140040506D0D03006D0D03006D0D03006D0D030067
S2140040606D0D03006D0D03005DCF00006D0D0300A8
S2140040706D0D03006D0D03006D0D03006D0D030047
S2140040806D0D03006D0D03006D0D03006D0D030037
S2140040906D0D03006D0D03006D0D03006D0D030027
S2140040A06D0D03007D860000618600006D0D030027
S2140040B06D0D03006D0D03006D0D0300452302001A
S2140040C07F6803007B680300A91A02009568030056
S2140040D0836803000523020087680300390702008F
S2140040E0852302006D0D03006D0D03006D0D0300AA
S2140040F06D0D03006D0D03006D0D03006D0D0300C7
S2140041006D0D03006D0D03006D0D03006D0D0300B6
S2140041106D0D03006D0D03006D0D03006D0D0300A6
S2140041206D0D03006D0D03006D0D03006D0D030096
S2080041306D0D030009
S214004134F0B5114A114C124E00F00105E3695F0711
S21400414413D40DB9334213D103EA00078F4207D1C3
S2140041540B4A1A40002A14BF6FF001000020F0BD7D
S214004164013AEBD16FF00200F9E74FF0FF30F6E7C3
S2140041746FF00100F3E700BF80969800000003503C
S214004184020001000B4B70B5D96911F480310DD1D2
S21400419401244FF48072084E084DF46020462C64C7
S2140041A41A61FFF7C5FF3464EC6070BD6FF0010060
S2140041B4FBE700BF0000035000100350002003502C
S2140041C438B541F6713301220C4C0021E569E363EE
S2140041D40B4B05F48035DA600223606121202361ED
S2140041E4FFF7A6FF10B92120FFF7A2FF0122054B17
S2140041F4DA600DB10023E36338BD00BF000003504E
S214004204001003500020035070B5134C6061E3693E
S2140042145B071ED40E4656F8043B8D18A361AE42C7
S2140042240BD10423002121202361FFF781FF58B915
S214004234BDE870402120FFF77BBF08210846FFF742
S21400424477FF10B10423236170BD56F8043BA361C5
S214004254E5E74FF0FF30F7E7000003502DE9F84399
S214004264154641F67132164B8946DF69DA63012238
S214004274064603F58053DFF8508007F48037DA608B
S21400428455B9284601220F4BDA601FB10022A3F568
S2140042940053DA63BDE8F88306F5005404EA08041C
S2140042A4A41BAC4228BF2C46494622463046FFF79C
S2140042B4ABFF0028E6D12644A1442D1BE0E700BF4F
S2100042C4000003500020035000E0FFFF45
S2140042D02DE9F04F4FF0FD0BC9B09A460DF11B09C2
S2140042E09DF8503108AFCDF80C90CDF808B0019786
S2140042F0059303890446009383790E4690464188C9
S2140043008288407812F06AFD054650B10090A38876
S214004310002062883A4913F0A5F8284649B0BDE85F
S214004320F08F99F800002FF0FCFD38B12846A388DE
S2140043306288344913F096F88D25EEE75A463946DA
S21400434099F800002FF095FD8346002851D0529B27
S2140043501BB1BDF84C3198424BD8002399F8009019
S2140043600793A9F14102012A5FFA8BF123D8384658
S2140043700139254ADFF898C05FFA81FE734513DBE2
S214004380059B04210792C3B907AF18221F489FED6B
S2140043901A7B02FB060420460A460830394684ED9E
S2140043A0027B17F087FD11E010F8011F0133514022
S2140043B00CFB01F2E2E7059B33B123464A4638463A
S2140043C0009610F08DFCA8E70829DED9B8F1000F9A
S2140043D001D088F80090BAF1000F01D0AAF800B01A
S2140043E0529B002B99D05A46184608A917F062FD32
S2140043F093E7012591E700BF0000000000000000E1
S21400440000FA030035FA0300C59D1C81F010002059
S21400441093010001000000002DE9F04F93B0CDE9B4
S2140044200A32DDE91C530E9353EC102BCDE908013C
S214004430104619468DED060B1E9E16F0C5FF80B180
S214004440DDE906014FF0FF32C54B16F0E5FF40B937
S214004450DDE906014FF0FF326FF4801316F0BEFF61
S21400446070B1DDE908019DED060B0E9B1E96CDE9A9
S2140044701C53DDE90A3213B0BDE8F04F00F088B9EE
S2140044800022DDE90601002316F0A8FF002800F050
S2140044903381DDE906A303F1004BCBF30A5016F493
S2140044A08063A0F2FF3008BF06250F9316F0BAFC13
S2140044B09BA3D3E9002316F01FFD9BA3D3E900239B
S2140044C016F064FBCBF31304894644F07F51804614
S2140044D00022A44B504641F4401116F055FB94A31D
S2140044E0D3E9002316F008FD02460B46404649462F
S2140044F016F04CFB16F09AFF044616F093FC8EA3BB
S214004500D3E900238046894616F0F6FC0022964B37
S21400451016F03CFB16F08AFF89A3D3E90023074672
S2140045204946404616F0E8FC80463846894616F06E
S21400453079FC85A3D3E9002316F0DEFC02460B4681
S2140045404046494616F020FB02460B46CDE90C23B2
S21400455016F0D2FCDDE90C23804689461046194643
S21400456016F014FB0022CDE91001804B4046494668
S21400457016F0ECFD00227E4B16F008FB02460B46BA
S2140045804046494616F0E2FD00227A4B16F0FEFA47
S21400459002460B464046494616F0D8FDDDE90C2398
S2140045A08046894600204FF0804116F0EDFA02461C
S2140045B00B464046494616F0E9FA02460B46DDE948
S2140045C0100116F0C3FD07F2FF3700226A4B16F003
S2140045D0DDFA00223B0516F08FFC52465B4680460D
S2140045E0894616F019FF002840F08980CDE90C892D
S2140045F004F16303C62B8CBF0527042731051BD5A2
S21400460053A3D3E900235046594616F0FBFE002874
S2140046107FD051A3D3E900235046594616F0DEFE5C
S214004620002876D00027A542C6BF2C1B04F1FF3514
S21400463000253C4646F480660E9B9F422CBF4FF0FA
S2140046400008A3EB070816F0020903D0002F18BFD6
S2140046504FF000083CB1DDE90C235046594616F0F1
S21400466075FD82468B46DDE906010022002316F022
S214004670B5FE10B10BF100439B46DDE9080126F4B8
S2140046800063CDE90183DDE90A324BEC10AB0095FF
S21400469000F07EF802465FB3DDE9091316F0200F3E
S2140046A000F10105089E0CBF65204520B047DDE9F6
S2140046B008010523002205930A23002CCDE90232C7
S2140046C007F1FF374FEAD473B8BF64422A46019316
S2140046D004970A9B009431F040FA0246B9F1000FA5
S2140046E006D00B9BC41A0B9B1A190E9BA34245D8E7
S2140046F0104613B0BDE8F08FDDE906ABCDE600222C
S214004700404649461A4B16F021FD013CCDE90C0106
S2140047106EE7002D90D00F9B002B8DD0013D8BE7D0
S214004720FB799F501344D33FB3C8608B288AC63F9B
S21400473061436F63A787D23F71A379094F930A40FD
S2140047401655B5BBB16B0240EF39FAFE422EE63F76
S2140047502D431CEBE2361A3F0000000080842E41F9
S214004760FFFFEF7F0000F83F0000E03F00002C4016
S21400477000002440000018400000F03F2020DDE943
S2140047800913089DA8470134ADE700BF00000000EC
S2140047902DE9F04F5BEC10AB97B0CDE90501DDE9F4
S2140047A02058CDE90723504652465B465946229F7D
S2140047B016F00AFE70B90323CDE902870193AA4BCF
S2140047C00093DDE90501DDE9072331F0F8F817B0BD
S2140047D0BDE8F08F4FF0FF326FF480135046594615
S2140047E016F0FCFD28B10423CDE9028701939F4B08
S2140047F0E6E74FF0FF32504659469D4B16F00CFE4A
S21400480068B19C4A07F00403002B08BF03229A4BAA
S2140048101CBF13460422CDE902870192D0E750461A
S2140048208DA3D3E90023594616F0F6FD38B98CA3BC
S214004830D3E900235046594616F0D0FD68B1DDE9AD
S2140048400723DDE905014BEC10ABCDE92187209568
S21400485017B0BDE8F04FFFF7DFBD0022002350463B
S214004860594616F0BBFD002800F091805B46524684
S2140048700020002116F088F9012382468B46099312
S21400488017F4806400F08580092D40F285800024AE
S21400489030210EABA5F109020134202C03F8011BD0
S2140048A0A5EB040901D09442F6D15946504616F0BD
S2140048B0BDFD724B054603EBC90393ED007B8DED02
S2140048C00A7B16F0AFFA02460B465046594616F0DB
S2140048D05BF9DDE90A2316F00FFB02460B46CDE92D
S2140048E00C2316F0CBFD064616F08CFA02460B4655
S2140048F0DDE90C0116F048F902460B46CDE90C231B
S21400490000225F4B16F088FD002848D0013630465E
S21400491016F078FA02460B46DDE90A0116F068FD45
S21400492008B100260135B9F1000F45D1284616F02A
S21400493079FA02460B465046594616F025F90022EB
S2140049404F4B16F04BFD10B9E90700D501350A218B
S2140049500EAB1A19202C0AD095FBF1F001FB10556E
S214004960303502F8015B013405460028F2D107F025
S2140049700302012A55D1B8F1000F52D0099A12B994
S21400498017F00C0F01D008F1FF38302240E00990F4
S21400499076E74FF0060988E7A946002485E7002257
S2140049A0DDE90C01364B16F019FD0028BBD10EB11F
S2140049B0F007B8D50136B6E70A210EAB1A19202C37
S2140049C00DD0B6FBF1F001FB1063092E03F13003A6
S2140049D009F1FF3904F1010402F8013B11D8302136
S2140049E0A1440EAA202CB2D04C4504F101030AD1F2
S2140049F004F158020DEB02042E2204F8202C1C466B
S214004A00A5E70646DBE7A1541C46EBE71A5501343A
S214004A10444506D2202CF9D1CDE9028701940EAB8D
S214004A20CEE6202CF8D0099B3BB12D2204F158038A
S214004A306B4403F8202C0134EEE77A0704D504F122
S214004A4058032B226B44F4E73B07E5D504F15803E3
S214004A5020226B44EDE700BF0000000065CDCD418D
S214004A600000000065CDCDC1231704002717040001
S214004A70FFFFEF7F1A1704001F1704006060040092
S214004A800000E03F0000000070B58EB02C22002130
S214004A9003A817F07FF864234FF002320893CDE99D
S214004AA005230B2301218DF834305B4B8DF8101055
S214004AB01D880D4040F0A980084635F0A9F80A2266
S214004AC0564B574C1A704FF42873ADF812304FF00F
S214004AD0FF332360534B54491B8820460B82534BAD
S214004AE0534A1B68CD828B61524B0D621B884B82EA
S214004AF0514B1B68CB611DF0BBFC20B14FF41B7102
S214004B004E4836F020F90521206831F019FA20B118
S214004B1040F27D21494836F016F9206815F0F0FF7E
S214004B20474B2068196831F0CEFA0C2535F0D8FCD2
S214004B306843099035F0D4FC68430DEB05010790F7
S214004B40206817F0E9FE20B140F295213B4836F088
S214004B50FAF825681FF0C4FE00220146284631F008
S214004B602AFB20B140F29721344836F0ECF840F2A8
S214004B700353344D344E2B80052396F90000AB705A
S214004B807F2801D11DF06AFD3378EB7035F0A8FC64
S214004B9000EB80008000A88035F0A2FC0023C00057
S214004BA04FF0FF31E880AB604FF0FF3018A3D3E939
S214004BB0002335F07FF92549206831F0B5FA2068E2
S214004BC002A931F0D1FE20B14FF434711B4836F003
S214004BD0BAF8042220680DEB020131F049FA0428E5
S214004BE004D040F2D721154836F0ADF801A90120CF
S214004BF030F04AFE07F06CFF01201EF0B3F92CF0EF
S214004C00ADFE1EF0D9F91DF0C1FC0EB070BD00BFA0
S214004C100A0020FF420300009A5B0020CA620020C0
S214004C20C05500200E7A0400AC690020147A0400F7
S214004C30399C03000C7A0400107A0400EC4F040040
S214004C40F4660020B4550020846C0020AD9C030060
S214004C500348044B834202D0034B03B11847704706
S214004C60B06C0020B06C002000000000064B074926
S214004C70C91A891048BF0131491003D0044B0BB143
S214004C8001481847704700BFB06C0020B06C002089
S214004C900000000010B5064C237843B9FFF7D8FF94
S214004CA0044B13B10448AFF300800123237010BDFA
S214004CB02016002000000000949D040008B5044B58
S214004CC01BB104490448AFF30080BDE80840CDE7B7
S214004CD00000000024160020949D0400A3F5803AEE
S214004CE0704700BF154B002B08BF114B9D46FFF7C2
S214004CF0F5FF00218B460F461148124A121A16F08D
S214004D0049FF0C4B002B00D098470B4B002B00D0D4
S214004D1098470020002104000D000B4817F080FA89
S214004D2016F010FF200029002BF0E9FC17F066FAB9
S214004D30000008000000000000000000081000202E
S214004D40081000202063002089C2010007B5012159
S214004D5020200DF1070201F0F9F958B102230121D4
S214004D6020200DF107028DF8073001F0FFF903B09F
S214004D705DF804FB9DF807100229F8D002220948C6
S214004D8015F0F6FD022301210DF1070220208DF813
S214004D90073001F0EBF92BF00CFC4FF4FA6001F051
S214004DA01FF8E4E768B1030038B502F0DBFA01F05B
S214004DB06BFB012805D001F067FB022801D001F04B
S214004DC089FB064D2B783BB901F05EFB01280446B3
S214004DD002D12BF077FC2C7038BD00BF785C002029
S214004DE010B5044600882BF0AFFBA37884F8440087
S214004DF0834202BF0123E3702371074B04F11C00BA
S214004E00C4E9073401F0F8F9224620880349BDE8D2
S214004E10104001F035B900BFDF020300A90203000D
S214004E2070B5C37804460D461646002B34D1D1B172
S214004E30214815F09DFD0123E370E36CA6600BB1DD
S214004E40E06D9847E368F61A63699E4221D2217E98
S214004E501A480131C9B2217615F08AFDA36D13B147
S214004E60217EE06D9847E5702BF0B6FB15B32379ED
S214004E7003BBA268238A801A83421BD801231048EA
S214004E80237115F075FD236DA3B1E06DBDE870408C
S214004E90184701232376E6E70029E4D1094815F0F0
S214004EA067FD636DE660E5702571002BDBD0E06D75
S214004EB09847D8E770BD00BF90B10300A1B10300CA
S214004EC0CFB10300BCB1030070B51E46838804460C
S214004ED00D46C18002810BB1868070BD8178008846
S214004EE02BF01EFA0123E370064BA680C4E90334B8
S214004EF00C34204601F080F929462046BDE8704073
S214004F002BF061BB2B0303002DE9F04104462BF088
S214004F1063FB94F93C60656C6064451B30462BF07F
S214004F203DFB30462BF036FB074630462BF034FB75
S214004F3030462BF032FB94F93D8040462BF02EFB9A
S214004F4040462BF027FB064640462BF025FB404606
S214004F502BF023FB002D54D0394B4FF47A72BB4212
S214004F6028BF3B465343B3FBF5F105FB11335343D0
S214004F70B3FBF5F302FB0133E268B3FBF2F347F64B
S214004F80FF729A4228BF1A4622840A22B3FBF2F323
S214004F906362D4E90A32DB1942F10002C4E90A323C
S214004FA0236CA2693B442364236C93422BD27DB1CD
S214004FB0234B9E4228BF1E464FF47A735E43B6FBD1
S214004FC0F5F205FB12665E43B6FBF5F603FB0265DB
S214004FD094F83E204FF6FF71DAB16369B5FBF3F340
S214004FE08B4228BF0B46E383002A0CBF0123002315
S214004FF0A08884F83E30A37913D1A3B92BF09AFA8F
S21400500013E02B46B8E79B1A2364236B0133236314
S214005010CAE72369B5FBF3F58D4228BF0D46A58385
S214005020E2E7002BEAD12BF07BFA636B0BB1A06BA7
S2140050309847A16804F14800BDE8F0412BF0C3BAD8
S21400504000093D0038B58368044613B94FF4FA6387
S2140050508360E3680BB95323E360236913B940F216
S2140050601F33236163690BB96C236361A36913B9AA
S2140050704FF47A73A3610022012120882BF086FA70
S21400508084F83C00013005D1234815F071FC4FF040
S214005090FF3038BD0022012160882BF077FA431CD0
S2140050A0054684F83D0009D11C4815F061FC94F9CA
S2140050B03C002BF06EFA84F83C50E8E70022A0880B
S2140050C011462BF00EFAA379A0880BB32BF028FA22
S2140050D0012394F93C0084F83E302BF05EFA94F9F4
S2140050E03D002BF05AFA2BF077FA0D4B04F14805E9
S2140050F0C4E912346064284601F07EF82846A168A8
S2140051002BF061FAA168074815F032FC0020C0E7D2
S2140051102BF010FADCE700BFE5B103000DB2030088
S214005120094F000036B2030010B501790446B1FA03
S21400513081F1008849092BF06AF921796088B1FA73
S21400514081F149092BF063F9034B1A68A24204BFA8
S21400515000221A6010BD00BF3C16002070B54379CF
S2140051600446A3B100880E4E04F10805336813B157
S2140051700C4B1B786BB121792BF049F964210A4B53
S2140051803460A3602846BDE870402BF01CBA408807
S214005190E9E7064815F0ECFB054B3221A360F1E782
S2140051A03C1600207A5C00202951000069B20300FA
S2140051B05D51000010B50446E0B10F4815F0D8FB6D
S2140051C001236371A37953B9217920882BF01FF945
S2140051D0236B7BB1606B0121BDE810401847204669
S2140051E0FFF7A2FF04F108002BF0F2F92046FFF7C4
S2140051F0B5FFEDE710BD00BF9FB2030010B5044633
S214005200F8B1104815F0B4FB00236371A3796BB9AD
S21400521021792088B1FA81F149092BF0F8F8236B3F
S2140052207BB1606B0021BDE8104018472046FFF7B1
S2140052307BFF04F108002BF0CBF92046FFF78EFF2A
S214005240EDE710BDAAB2030010B5044668B10748E2
S21400525015F08EFB637920461BB1BDE81040FFF7C2
S214005260CDBFBDE81040FFF7A5BF10BDB6B2030026
S21400527010B50E4C0E48214615F07AFB82210D48DB
S21400528015F076FB82210220A21E00F06FFF014679
S21400529030B134F8022C0848BDE8104015F068BB61
S2140052A00648BDE8104015F063BB00BF0657002057
S2140052B0C5B20300E0B20300EBB203002FB3030055
S2140052C038B5114C82212246022000F03FFFA51C73
S2140052D0014688B122880D4815F04AFB2A460C4B39
S2140052E003F1380153F8040B8B4242F8040BF9D152
S2140052F01B7813703823238035F8021C054A0648AD
S214005300BDE8384015F034BB045700203AB303001C
S214005310BAB303000657002098B30300034B1B786C
S2140053201BB18B4201D82BF044B970472A6C002081
S214005330F8B51E4B1E4F1B78A3B11E4D1E4C2B7886
S2140053405BB11E4B5B7943B100211D4B4FF60C72CF
S2140053501878297021702BF07CF91A4B1B883BB902
S21400536000232370B9681848BDE8F8402BF02BB925
S2140053707A6A9A42F4D32378FF2B10D12E78002E27
S214005380F0D10E48FFF73AFF01232B700C4B4FF677
S2140053900C723146187826702BF05BF9E2E7013381
S2140053A0DBB2022B2370DDD9E8E700BF805C00206B
S2140053B008100020835C0020795C0020E420002098
S2140053C030170020E46B00200817002010B50446B4
S2140053D001460E4815F0CCFA012C11D10C4B0D48A5
S2140053E01A884FF6FF739A421EBF0022094B5A7462
S2140053F02AF0F3FF02F00CF9BDE8104001F0DEBF22
S2140054000448BDE810402AF0EABF00BFF3B303002B
S214005410DC6B00208066002070B50024254D264EEB
S2140054203378A34225DC0024244D254E3378A3424E
S21400543025DC0024234D244E3378A34225DC234C60
S214005440237833B1224D2846FFF7FCFD18B300231E
S214005450237001F019F801281E4828D12AF0BDFF54
S21400546002F0D6F801F0AAFFBDE870401A4801F035
S2140054702BB82846FFF7B4FC01346035D0E7284641
S2140054802AF091FF01343435D0E728462AF0C4FFCD
S21400549001343835D0E7114C114BC4E900302046B2
S2140054A000F0AAFE2046A9682BF08DF8D1E72AF076
S2140054B096FFD9E714230020815C002034270020C3
S2140054C0825C0020E4200020805C00207E5C0020BF
S2140054D00810002080660020CD530000081700202A
S2140054E0315300002DE9F04F87B0FFF7E9FEAE4BD1
S2140054F005A805932AF0B4FF054616F047FAAB4C0C
S214005500C2B21F2A627004D9A94815F031FA00F019
S2140055105BFC2946A01C16F0CDFC05A82AF0A0FFCF
S214005520054616F033FAC2B21F2A84F8212001D9A4
S214005530A048EAE7294604F1220016F0BBFC05A8BD
S2140055402AF08EFF3226044600272578002D40F0EC
S214005550A780994CFFF760FF2378DFF8A4A2DFF856
S214005560A482964F00939AF8003098F80020397875
S214005570934815F0FDF93A7898F800109AF800006C
S21400558053180344DFF874B220782C460344584678
S214005590DBB2AA4200F32783012B38BF0123894ED2
S2140055A002933246002335464FF482704FF6FF7161
S2140055B0029C01339C4213705080918002F10C02D1
S2140055C0F6DC814B7F497948AB6001F045F8E87915
S2140055D0AB6800EB400003EB800000F001FEEB79C7
S2140055E00133EB71794B1B782BB17948794B7549B0
S2140055F0436001F023FC4FF6FF73774C22889A42F3
S21400560003D07049754801F04BF94FF6FF732288B6
S2140056106C49D21A18BF0122714801F00FFE4FF0F4
S2140056200009694C3A784A4500F3E58200264FF0B7
S2140056300C096C4ADFF88CB198F800003978B04253
S21400564000F3ED8246180C21002501FB06B19AF8FE
S21400565000009423A842644A00F3FF820C253E789B
S21400566098F8003000274FF070081E44064405FBEB
S21400567006B5DFF894A1504B1B78BB4200F30083BD
S2140056800299504800F03AFE059B47491A468B425D
S21400569040F00983554807B0BDE8F04F15F068B9EB
S2140056A0532D0BD163784C2B40F04D81A378502BB3
S2140056B040F049814E4B01221A7011E0442D18D15A
S2140056C06378303B092B0BD8601C2AF0D6FE494B7A
S2140056D0494A1978002386B2994202F1600204DC36
S2140056E005A82AF0BDFE04462FE722F8466C0133D3
S2140056F0F2E7422D0CD16378542B40F08780A01C33
S21400570000F00CFD344B188018462AF0AAFDE7E797
S214005710582D33D8412DE3D9433D152DE0D801A3AC
S21400572053F825F0555B0000E1560000415A000092
S214005730E1560000E1560000E156000099580000CE
S214005740E1560000E15600004B5800008F5700005D
S214005750E1560000E1560000E1560000E156000068
S214005760CB59000047590000E1560000E156000002
S214005770E1560000E1560000695A0000692DAFD1DD
S214005780601C2AF07AFE80B22AF00FFFA8E70B4BC7
S214005790012019780023194A994202F1A8029FDDD8
S2140057A002F8A60C0133F7E70657002064650020D0
S2140057B012B4030029B403007B5C00207F5C002049
S2140057C039B4030030170020A81700207E5C0020A4
S2140057D0341D002008100020DC6B0020B8160020C6
S2140057E040160020341C0020781A002089B40300DC
S2140057F07A5C0020815C002014230020381E0020E4
S2140058007C5C00207D5C002028190020601C00F0D5
S21400581085FC0546E01C2AF0A8FE01210246284623
S2140058202AF05FFE6021BA48BA4C037859436218E2
S21400583065524FF4FA6111824FF448715161B649CE
S21400584056831165013303704AE7601C00F066FC5E
S21400585000224FF034088146B04F11462AF041FE30
S2140058603878AF4D08FB00F325F80390EA18E37884
S2140058701046693B18BF012393702AF094FD00215F
S214005880A84A3B785160012103FB08550B443B7046
S21400589015600F46117423E7601C00F03FFC0022E1
S2140058A0114681462AF01DFE34229C4DDFF8708298
S2140058B0287802FB00F328F8039008EB0301E3784E
S2140058C00846693B18BF01238B702AF06CFD964A88
S2140058D000231046916B31BB00EB831034232A78EB
S2140058E002FB03838363914A00231046D2F8A41078
S2140058F0F9B9A82202FB030034232A7802FB0383AB
S214005900C0F8A4305FB9874A3B46114652F8040BEC
S214005910A8B93422287800FB028241F823202B788D
S21400592001332B70DCE60133042B02F14002D1D1A7
S214005930D9E70133042B02F1A802D7D1E2E70133FD
S214005940042BE3D1EBE7601C00F0E8FB8046E01C8C
S2140059502AF00BFE0121024640462AF0C2FD6021D5
S2140059606B486C4D0278DFF8E4C151436B1825F89C
S21400597001804FF44871198259616D495E839965BB
S214005980E178A824642904BF012199709CF80030AE
S214005990DFF898E15C430EEB04010EF804304FF498
S2140059A000744C8003240C718C7102EB420405EBEE
S2140059B0441532240133DBB201324B718D6081F81D
S2140059C0A04002708CF800308AE6601C00F0A6FB4F
S2140059D000224FF0380A8146DFF86C8111462AF023
S2140059E080FD98F80030534D0AFB03F325F803902A
S2140059F04FF00109EA1882F80490E37873B1E01CCE
S214005A0000F08CFB0022044611462AF06AFD98F846
S214005A1000300AFB03535C8083F806904648424AEF
S214005A2003789901535498F8001002EB8314C1EBE5
S214005A30C10205EBC2054A1C656388F8002001E731
S214005A40601C00F06BFB3D4D2880E01C00F066FB00
S214005A506880601D00F062FBE379A880693B18BF90
S214005A600123AB71364B26E6601C00F057FB8046E0
S214005A70E01C00F053FB0546601D2AF076FD044648
S214005A800246012140462AF02CFD224628460121E6
S214005A902AF027FD60204FF4487CDFF874E01D4AAA
S214005AA09EF8003000FB03F422F80480DFF88080C4
S214005AB01119A1F810C0C1F814C04E83C1F858805F
S214005AC0591CC9B248431418A4F810C0C4F814C02E
S214005AD06683C4F85880942415521A4D981C8EF884
S214005AE000002878DFF868C0444303EB430301EB6B
S214005AF041010CEB040E02EB431302EB41120CF8CF
S214005B000400CEF80430CEF8082001302870E7E50F
S214005B10815C0020142300204B040300825C0020DC
S214005B203427002080660020341C0020381E002009
S214005B301D530000E42000207D5C0020081000209B
S214005B407E5C00207C5C0020805C00207F5C002067
S214005B50781A0020601C00F0E1FA8046E01C00F095
S214005B60DDFA00220546114640462AF0BAFC00221D
S214005B703824114628462AF0B4FC4F484F4A03788A
S214005B804FF0000E04FB03FC22F80C804FF00108D7
S214005B9002EB0C0181F806E081F8048003EB0801B3
S214005BA0C9B24C4302EB040C15539C1C04707024C1
S214005BB0434D8CF806E028788CF804804443DFF8E0
S214005BC008C1C3EBC303C1EBC1010CEB040E02EB2F
S214005BD0C30302EBC1020CF80400CEF80430CEF882
S214005BE00820404492E7467901358E4284BF04710E
S214005BF04471A830CDE4B9F1000F06D016F8052C94
S214005C0002EB420204EB8204B4603146584601F0CF
S214005C10D3FE09F101090BF1A80B0C3602E5711849
S214005C200AD0481E09FB00B0C07900EB400004EB28
S214005C30800409FB01B08460104609FB0151039201
S214005C4001F078FC39781F48314409FB015101F016
S214005C50DBF8039A01364032EEE4F54218BF11F83D
S214005C60050C03911EBF00EB400004EB80048C6023
S214005C7003FB052000F0D8FF039901350C31E6E45C
S214005C80F74218BF15F8053C29461CBF03EB430333
S214005C9004EB830408FB07A018BFAC6000F09AFE74
S214005CA001370C35E7E413F8011D00297FF4EDAC4D
S214005CB03B2102F8011CE8E4805C0020E420002080
S214005CC07B5C0020D82000202819002007B5012181
S214005CD021200DF1050200F039FA18B99DF80520CB
S214005CE0074B1A70022123200DF1060200F02EFA4F
S214005CF018B9044BBDF806201A8003B05DF804FB03
S214005D002A6C0020E46B002007B5064B8DF80700D0
S214005D10187001210DF10702212000F027FA03B0C8
S214005D205DF804FB2A6C002007B5064BADF80600AC
S214005D30188002210DF10602232000F017FA03B0A6
S214005D405DF804FBE46B002007B5022101200DF18D
S214005D50060200F0FBF938B9044814F009FEBDF855
S214005D60060003B05DF804FB0020FAE7A6B40300C3
S214005D7007B50221ADF806000DF10602012000F07D
S214005D80F5F9014610B1034814F0F2FD03B05DF8D2
S214005D9004FB00BFC7B4030010B5FFF7D5FF0446E9
S214005DA00146074814F0E4FD0121064814F0E0FD22
S214005DB024B9BDE810400120FFF7DABF10BD00BFD0
S214005DC0F7B4030009B5030008B5044814F0D0FD85
S214005DD000F0DCF92AF0EDFB2AF0E8FB1FB5030023
S214005DE038B50446084D094B28462B6000F004FAE7
S214005DF0002C18BF21462846BDE8384008BF4FF49F
S214005E0096712AF0E0BB00BF3828002099040300F2
S214005E102DE9F043384D91B008AC074689469046C8
S214005E200FCD0FC495E80F00002684E80F0001256B
S214005E300323324C3248CDE90366CDE905668DF87A
S214005E400E300796029534F027FF2E4834F024FFD4
S214005E5032462D4920468DF8176004F0D5FE3346AD
S214005E6032462A498DF81900009020468DF8239076
S214005E70CDF82C808DF8216004F0E0FE0A902046D4
S214005E808DF8097004F042FE204608AA05A904F021
S214005E90FBFE02AA204603A92BF0BCFC4FF40072BE
S214005EA01B4B5A62194BE560626A920510D46BB9B7
S214005EB04FF40072164B11485A6204F027FE114840
S214005EC034F0EDFE002011B0BDE8F083013BEBE7B7
S214005ED0002BEDD0094908A82BF0CFFC4FF4007238
S214005EE00B4B06485A6204F011FE064834F0D7FE03
S214005EF0BDF82000E7E700BFE45004000040005A69
S214005F008C5304008853040080841E0040420F0017
S214005F100060005A0122034B1870034B1980034B94
S214005F201A707047855C0020E66B0020845C0020B9
S214005F30F8B5454B1B780BB90020F8BD434B1B78D2
S214005F40012B03D1BDE8F8402AF0A9BA404B1C88C3
S214005F504FF6FF739C42EFD03E4834F09DFE002380
S214005F60260AE4B21A462146304604F08FFD012E7A
S214005F70354604F0010335D015D9B51E012DDBD802
S214005F80002B0BBF4FF480754FF080754FF4706197
S214005F904FF070610BBF01274FF480370F204FF48E
S214005FA070202D4B11E0002B0BBF4FF480754FF087
S214005FB080754FF470614FF070610BBF01274FF48E
S214005FC080370F204FF47020244B1A6802401CD0F4
S214005FD0BA421AD01A680A4032D11A6822EA010276
S214005FE02A4316E0002B0BBF4FF480754FF08075E8
S214005FF04FF470614FF070610BBF01274FF480378C
S2140060000F204FF47020164BDFE71A6822EA0002D2
S2140060103A431A602AF043FA054600288CD0083620
S21400602044EA06102A460321C0B2FFF7F1FE40F606
S214006030FF73684300F2FF70B0FBF3F080B27CE7BA
S21400604095427FF479AFC8E7845C0020855C002029
S214006050E66B00208C53040028C3035020C3035073
S21400606024C3035010B5044C237823B9034834F0F6
S21400607013FE0123237010BD875C00208C530400A0
S2140060802DE9F0431F4C85B0074688469146FFF73A
S214006090E9FF23781BB902F0A9F9012323707BBA24
S2140060A0ADF80C3030220023174E02FB03F4315DAE
S2140060B0A51901BB012333554FF0FF3304F110003F
S2140060C012493044AB606F80C5F80480C5F80C9068
S2140060D009F01EFC04F10801042231440C4B009523
S2140060E003A802F059FAA96802460A4814F040FCD0
S2140060F005B0BDE8F0830133102BD6D1064814F066
S21400610037FCF5E7865C002060280020C304030007
S214006110D50403002CB503005AB5030080B10278FD
S214006120A2F14103032B0BD840783038C0B20828C0
S21400613006D8054B134413F8413C40EA0320704749
S2140061404FF6FF70704700BF0451040008B50B46B9
S21400615042B101460448006803F062FBBDE808400F
S2140061602AF01DBA022008BDEC66002008B50B46D2
S21400617042B101460448006803F0DAFCBDE8084076
S2140061802AF00DBA022008BDEC660020F0B5002605
S214006190124F8DB0FF2300930A223346386802A9B7
S2140061A02BF0F5F8C0B102AB1D4603EB800404E00B
S2140061B055F8043BB34228BF5E1CAC423868E9D9A8
S2140061C0296803F03BFE0028F2D02D28F0D00DB051
S2140061D0BDE8F0402AF0E3B90DB0F0BDEC66002053
S2140061E028B1034B0360034B436000238360704772
S2140061F01900000394660020FF2307B50021044A17
S2140062000093083009F008FB03B05DF804FB00BFFC
S214006210C10503000B46044902460868034909788D
S21400622008B12AF0F4B970476C2B0020895C002076
S214006230F7B50C4618B12921194834F084FD2468B6
S21400624023685E795F8830463946FFF7E3FFF0B192
S2140062508568E5B1A089227D3946904291BF00202D
S214006260801AA36880B294BF03469B18E27C009015
S2140062703046A8470138032803D8DFE800F0080FA7
S2140062800B0D002420462EF0B4FB204600E08120B3
S21400629003B0F0BD8024F5E79324F3E78724F1E705
S2140062A082B50300F8B515460D4A044610680D4A37
S2140062B00B46117850B122462AF0A9F9034628B1B8
S2140062C000210C27C678B14201DB0020F8BD07FB91
S2140062D001F45A681019125BAA42F7D00131F2E7AE
S2140062E06C2B0020895C002008B5034B1B6803B1AB
S2140062F09847002008BD00BF682B00202DE9F74F07
S21400630004460D460026454B454F1860454B197010
S21400631033010021F85C013610F04EFB0C2EF7D14D
S2140063200C2D28BF0C254FF0000901953C4EDFF8D8
S21400633000A13D4DDFF8FC80019B4B4502DC03B01D
S214006340BDE8F08F23784FF0000B337063887380BE
S214006350A388B380A379C6F80880B371E379C8F838
S214006360005088F804304FF00003A768A8F80630FD
S214006370E3795B450ADC012116F8100B10F01CFBD4
S21400638008F1080809F101090C34D5E74FF00003BD
S21400639038886B812880FB784FF0000C2B81BA7808
S2140063A0C5F804A0002A00920CBF802240222A735F
S2140063B079680AF10C02634513DC03EB43030AEB2E
S2140063C0830ABB6843B1009A4FF6FF71B2FA82F2B5
S2140063D0164B52092EF09DFA14350BF1010B0C37B3
S2140063E0C6E7B1F800E00CF1010C22F80CEC91F8CD
S2140063F002E00C3202F816EC91F804E00C3102F8D8
S21400640015EC11F809ECBEF1010F14BF4FF0100E99
S2140064104FF0110E02F814ECCDE700BF6C2B0020F5
S214006420A4420020895C0020703100203162000008
S214006430702B0020F0330020014B1860704700BF1F
S214006440642B0020014B1860704700BF682B0020AB
S21400645070B5128805460E46FFF724FF044670B155
S21400646002790499806815F0E7FB064B1B680BB9A8
S214006470002070BD3146284622889847F8E78620D7
S214006480F7E700BF642B002008B50FF031FB0228A9
S21400649006D0012806D0044B18784000C0B208BDCC
S2140064A00120FCE70220FAE7885C0020054B10B5C7
S2140064B01C682CB1FFF7E8FF2346BDE810401847DC
S2140064C010BD00BF602B0020014B1860704700BF56
S2140064D0602B0020034B1A781AB901221A700BF0B1
S2140064E067BB7047885C00200022024B1A70FFF7DB
S2140064F0DDBF00BF885C002037B50446002836D0D4
S2140065000FF0F6FA022834D160892EF0D4FDE07937
S214006510237A003818BF0120012B637A08BF40F0A9
S21400652008000BB140F0100063890BB140F0040086
S214006530257CA188A2790DB1E36893B90F4B10F0C2
S21400654017FE2178084610F08FFE2EF0DDF8044680
S21400655010F048FE7CB100280CBF0020032003B0DA
S21400656030BDCDE90035064B10F002FEE9E702200B
S214006570F5E70120F3E72046F1E700BF4D060400EB
S21400658016D6030008B50DF071FC014630B104487C
S21400659014F0EEF9BDE808400EF00CB808BD00BFD8
S2140065A0F4B50300034B044A5B7C012103201370FF
S2140065B0FFF7DCBD806600208A5C002010B504462C
S2140065C0FFF7F0FFB4F57F4F0BD10024144B1A8869
S2140065D013449C70FEF74CFE2046BDE81040FFF7C3
S2140065E0FFBB4FF601739C4204D1BDE810400D4836
S2140065F029F0DBBE4FF602739C4205D1BDE8104081
S214006600094B1878FFF780BB4FF60B739C4205D1F9
S214006610BDE81040054B1888FFF786BB10BD00BFCD
S21400662004570020806600202A6C0020E46B0020BF
S21400663010B5074C012122460320FFF787FD28B935
S2140066402378044A003B18BF0123537410BD00BFD3
S2140066508A5C002080660020F8B5624B624D1A887E
S2140066604FF6FF739A421CBF03232B7008235F4A22
S21400667032241370302393705371D37134235470C3
S214006680D470362413724FF4001314713924436403
S214006690574B9471C364574B01240365564B061938
S2140066A08365564BC667C365554B564E4366564B79
S2140066B080F848408366554B80F854400367544B37
S2140066C080F860404367202380F8783080F8843074
S2140066D000F12103C0F888304E4B80F86C40C0F8BB
S2140066E08C30C0F8806080F89040C0F894504A4DD6
S2140066F04A4BC0F8AC504A4DC0F89830C0F8B0507D
S214006700092580F8B450474D474BC0F8C450474D54
S214006710C0F8B820C0F8C8508225454AC0F8A43052
S214006720C0F8BC200F23022280F8CC50414D80F8E0
S2140067309C40C0F8D050404DC0F8A000C0F8D450DF
S2140067403E4D80F8A830C0F8DC503D4D80F8C020A3
S2140067502D7880F8D840002D40D080F8E420394AC3
S214006760394DC0F8E820394AC0F8E050C0F8EC20AF
S214006770374A80F8F040C0F8F420364C227C62B1EC
S2140067800C2202FB0302344D01335564012582F8C6
S214006790485004F11105D564DBB24FF0000CCD79FA
S2140067A08E6805EB4502970006EB820226F807C0C6
S2140067B0D370012344309370EB185060CB71FFF711
S2140067C085FAFFF735FFFFF75FFE012808D1237C27
S2140067D033B1BDE8F8401F4829F0E7BD0D23CCE7EC
S2140067E0F8BD00BFDC6B00202B6C00208B5C00200B
S2140067F01D510400010020001C510400020020006E
S2140068001B51040005004200030020001A5104003A
S2140068100400420007003000085104001200100176
S21400682006004200185104000040420000FF4401E8
S214006830FDFF21000457002002FF20012A6C0020E3
S2140068407E5C0020E46B00200BFF21010CFF100093
S214006850835C00208066002001FF100113B504460B
S2140068600D4829F009FD6422C0F30F43637083B21C
S214006870B3FBF2F3A07823702022012129F0E9FE71
S214006880A0782122012129F0E4FE0449201D02B04F
S214006890BDE8104029F097BEDC6B0020E0930400B2
S2140068A00B7870B583704CF61E0303804FF02013F0
S2140068B0C362012380F8303080F83C30C31803648C
S2140068C0124B044643640223114A80F84830114BA9
S2140068D08263C3644063CA798D6802EB420305EBAA
S2140068E0830004F12C0646600B4E45F82360002317
S2140068F08360531CCB71094B201DC4E90134FFF79C
S2140069007BFC2046BDE87040FFF7A8BFFDFF2100D6
S214006910210020001E510400010001035D680000F4
S214006920437B044A0121137000781130C0B2FFF790
S2140069301DBC00BF955C002038B504460078054DA8
S21400694011302A460121C0B2FFF700FC08B92B78A7
S214006950637338BD955C0020024B53F8200029F085
S21400696053BF00BF50340020012908B506D00229C5
S21400697007D049B929F03FFF002008BD29F03EFFA7
S214006980FAE729F03EFFF7E7024813F0F1FF01208F
S214006990F3E700BF21B6030010B4054C114654F8C7
S2140069A020001A46BDF804305DF8044BFFF7DCBF44
S2140069B050340020002310B5044683810364A0F8F9
S2140069C044304830FFF718FC014BC4E9123410BDC0
S2140069D0EF07030038B504460B781A4A43700D4695
S2140069E042F82300FFF7E6FF2046FFF7A5FF4FF427
S2140069F0401323610123144A2375A261134A84F8C5
S214006A002030E261124A84F82C306262114A84F81F
S214006A103830A26204F10C0222630F4A04F10D031F
S214006A206263E363EA79A86802EB420300EB830142
S214006A3010344C60094C40F82340094B8B60531CC3
S214006A40EB7138BD50340020945C00200800200014
S214006A502C6C002000FF300001FF10010201010431
S214006A609969000010B47024427B0D48013A012950
S214006A7004FB020006D0022908D059B95DF8044B81
S214006A8029F0B9BE5DF8044B29F0B8BE5DF8044B9A
S214006A9029F0B7BE03485DF8044B13F069BF00BF8A
S214006AA0281900203DB60300B0F85C302DE9F0410F
S214006AB08B4204460E4638D0437B077C8BB31C4A79
S214006AC012789A422DD370251A4A013B05FB032300
S214006AD090F80F801B7B424629F0A4FEB845054679
S214006AE001D1FF281FD13A463146204694F890300F
S214006AF029F098FE2F460546552212216078A4F804
S214006B005C6029F0A6FDFF2F03D039462046FFF72C
S214006B10A9FFFF2D09D029462046BDE8F04129F0FF
S214006B20C1BEFF25DFE70746E6E7BDE8F08100BF08
S214006B307B5C00202819002041688268C978D278DA
S214006B4049B112B10321FFF7AFBF837B002B0CBF07
S214006B5001210221F7E72AB1837B002B0CBF02211B
S214006B600121F0E7014813F003BF00BF4EB6030053
S214006B70037BD3B14368DA7812B18268D278A2B9BF
S214006B801B7933B1837B002B0CBF04210521FFF753
S214006B908BBF83681B792BB1837B002B0CBF052131
S214006BA00421F4E7014813F0E3BE704780B6030003
S214006BB0084A437B05211370837B5370C37B937015
S214006BC0037CD370037B137100780E30C0B2FFF7DE
S214006BD0CDBA00BF965C002038B5044600780C4D50
S214006BE00E302A460521C0B2FFF7B0FA20B1BDE844
S214006BF03840084813F0BCBE2B7863736B78A373D9
S214006C00AB78E373EB7823742B79237338BD00BF1E
S214006C10965C0020BCB60300024B53F8200029F017
S214006C208BBE00BF78340020F8B504460B78424A85
S214006C3043700D4642F82300404E29F09BFEFFF7B6
S214006C40CBFF6268A3683E483E49D6641165D465AA
S214006C505065C3E91410DE64DC654FF098730226B5
S214006C606361012304F10C01E161374910322162AE
S214006C7004F10D01A16235492376E16204F10E01AB
S214006C806163334984F82430A16304F10F01216461
S214006C90304984F83030616404F11001E1642E4913
S214006CA084F83C3084F84830216584F85460A26546
S214006CB0E879A96800EB400201EB820704F1140CA6
S214006CC0C7F804C04FF4817C244F41F82270C218E4
S214006CD0D2B202EB420241F822C001EB8207002248
S214006CE07A601F4A84F8703022661E4A84F888301C
S214006CF0A2661D4A1D4BE2661D4AC4F88C306267C8
S214006D001C4A8319A26704F15C02C4F88020DBB237
S214006D10194A03EB4303C4F8842084F8646084F8BB
S214006D207C6001EB830260345460144A033041F8FF
S214006D302320E871F8BD00BF78340020396B0000CE
S214006D40FB080300716B0000010020010200100127
S214006D5003003001040030010500210101FC01069A
S214006D604A00210020510400510010002251040066
S214006D7023510400550021006F0018001200010482
S214006D8070B50D460646144613460A4601461A488E
S214006D9013F0EEFD25B92046BDE87040FFF70EBCA7
S214006DA0072D05D121463046BDE8704000F0C8BD2D
S214006DB04FF601439D4205D121463046BDE870405E
S214006DC0FFF72ABF062D05D121463046BDE87040A4
S214006DD000F06ABBB5F5817F05D121463046BDE897
S214006DE07040FFF7B9BD202D04D12046BDE87040A5
S214006DF000F0F0B970BD00BFEBB603000148FFF726
S214006E001BBB00BF816D00004FF4C01330B503609C
S214006E1001230371074B8C688360CA7902EB420337
S214006E2004EB83056860044844F82300531CCB71C8
S214006E3030BD00BF24510400040001010B786E4AE7
S214006E4003700123836003F52023C0E90423C36095
S214006E504FF4D81383610423037700F10803036219
S214006E60664B426843620223F0B502F11C04C4621A
S214006E70634C80F82830046302F11E048463614C7E
S214006E8080F83430C46302F1200444645E4C80F819
S214006E904030846400F10C0404655C4C80F84C308F
S214006EA0446500F10E04C465594C80F858300466F9
S214006EB000F110048466574C80F86430C46600F114
S214006EC012044467544C80F87030846700F1140450
S214006ED0C0F88040514C80F87C3080F8883000F153
S214006EE01603C0F88440C0F88C30CD798C6805EB6A
S214006EF0450304EB830600F118077760484F00F15E
S214006F00900C44F8237000246B1CB460CB712346AD
S214006F10D2F830E000F18F07C3F12006A3F1200578
S214006F202EFA03F204FA06F6324324FA05F508337D
S214006F302A43302B07F8012FEED101234FF47A7243
S214006F40C0E926322B22A0F8A0204FF41412C0F875
S214006F50A420062280F8B43080F8C03080F8E430F0
S214006F6080F8F03000F1A103C0F8F4302D4B002576
S214006F70C0F8C830032380F8A8202B4A80F8CC300D
S214006F80C0F8B02000F19602C0F8B820274A80F872
S214006F90D830C0F8BC2000F19702C0F8C42000F139
S214006FA09802C0F8D02000F19C02C0F8DC20204AED
S214006FB0A0F89650C0F8E02000F1A002C0F8E82043
S214006FC01C4AC0F8ACC0C0F8EC201B4A00F1A4076D
S214006FD0C0F8D420CA798E6802EB420306EB83041D
S214006FE06760164F46F82370531CA560CB71436844
S214006FF0134AC3E90D20F0BD0100E8030505210092
S214007000080521000B0529000006210001062100C5
S21400701002062100030621000406210005062100C1
S214007020040B010A010322000002180000033000CE
S21400703003031800060318000203220002070107D4
S214007040950903000368064A0C21136043685360E1
S21400705003891381438922205381FFF787B800BF35
S214007060A034002010B50368044686B0FBB1114872
S21400707013F07EFCA37B104A8DF804304FF4827325
S214007080ADF806300123CDE90223002301A80493BE
S2140070908DF81430FFF730FA2046618929F0CDFCD0
S2140070A02046FA2150F8143B594329F08CFA06B0D2
S2140070B010BD00BF1EB703002000000110B5064C2F
S2140070C0236843B1054813F053FC2068BDE8104020
S2140070D0418929F0B2BC10BDAC3400203FB7030094
S2140070E070B5364910460C68BDF81020002C5ED0EE
S2140070F003285CD8DFE800F0021E2745002B5AD094
S214007100022A58D91D78B3F80160291E18BF01213C
S21400711032462B4813F02CFC2DB13146204629F080
S2140071208CFC002070BDE573FA206368584329F094
S214007130D1FAF6E7234813F01BFCE37B002B38D08C
S2140071400023E373F0E7002B35D0032A33D91D68FC
S2140071501D48294613F00CFC1C4B2A1F9A4201D9E5
S2140071600220DFE723680BB19D42F9D823899D42B0
S214007170F6D3E37B6560B3B9FA20684329F0AAFA30
S21400718011E0002BCED0012ACCD91D881048294604
S21400719013F0EEFB002DE3D063689D42E0D8E37B5E
S2140071A02581002BE8D12046FFF74CFFB9E70120E8
S2140071B0B8E70420B6E70320B4E700BFAC340020ED
S2140071C062B7030099B70300B8B70300FCFF6D0071
S2140071D0E3B7030038B5154B1C6834B3F0B9216823
S2140071E0134813F0C5FB23683BB16268934204D290
S2140071F0104813F0BDFB6368236004F114052846AD
S21400720029F0E6F9236823B1FA212846594329F0E4
S214007210DAF92046BDE83840FFF714BF032804D14A
S2140072206189054813F0A4FBF3E738BDAC340020B1
S2140072300EB803003CB8030071B8030070B53E4BAF
S2140072400D46044609781860002A6FD101231A46B5
S214007250A1730021E1730121A1814FF46151C4E9BA
S21400726000132823354E22810C21324622206381CA
S214007270FEF76CFF60B9D6E900230AB19A4207D33D
S214007280318999429FBFC4E90023738921816381B4
S2140072902B4B2C4AE363042384F8403084F84C30AC
S2140072A0E3182365284BA2646365022304F10802F1
S2140072B0E265264A84F85830226604F10A02A2667D
S2140072C0234A84F8643084F8703004F10C03E266D4
S2140072D063676464EA79A86802EB420300EB830103
S2140072E004F13C064E601B4E40F82360FA261A4B0B
S2140072F01A488B60531CEB71FFF7A4F8208904F141
S2140073001405704329F0E6F96189204629F095FBBB
S214007310134B2846C4E90534FEF76EFF216849B1D1
S21400732028467143BDE8704029F04DB94FF4F0731C
S21400733002228DE770BD00BFAC340020A0340020D0
S21400734000002301010023000200210003002101A8
S214007350FDFF210020000105E1700000BD70000067
S21400736065700000134B10B51C680CB3E37BEBB1E3
S21400737029F032F92369C01A002809DB0E4813F0F9
S214007380F7FA0023FA20E3736368584329F0A2F95A
S214007390E37B5BB12489FA235C4329F0A6F9A0427B
S2140073A006D02046BDE8104029F094B96468F2E79C
S2140073B010BD00BFAC3400209EB8030038B50024D2
S2140073C0044D55F8040B08B129F04AFB01340A2C89
S2140073D0F7D138BDB0340020042908B50AD172B1FF
S2140073E06BB113781BB929F066FB002008BD29F0A5
S2140073F058FBFAE7034813F0BBFA0120F6E7032030
S214007400F4E700BFD8B8030010B4054C114654F892
S21400741020001A46BDF804305DF8044BFFF7DCBFC9
S214007420B03400200229024608B50ED004D839B977
S214007430104629F040FB06E04029F9D0412907D143
S214007440104629F02EFB002008BD29F03EFBFAE787
S214007450024813F08DFA0120F6E700BFF8B80300E3
S21400746010B4054C114654F820001A46BDF80430F6
S2140074705DF8044BFFF7D6BFB0340020426B094BD3
S21400748052791A7082785A70C2789A70826B12B1EA
S21400749090F83C20DA70007804210930014AC0B226
S2140074A0FEF764BE9B5C0020024B53F8200029F0D8
S2140074B028BB00BFB034002038B504460078084D1D
S2140074C009302A460421C0B2FEF740FE30B96B7878
S2140074D0A370AB78E370EB7884F83C3038BD00BF1F
S2140074E09B5C002038B504460078114D09302A46CA
S2140074F00421C0B2FEF72AFEC8B9A3782A78022B68
S2140075000CD004D863B9204629F0D5FA01E0FF2B49
S2140075100AD02046BDE8384029F0A2BA002AF2D1A7
S214007520204629F0BEFAF4E7002AF9D1EBE738BD89
S2140075309B5C0020F8B504460B78284A0D4642F8B6
S21400754023004370FFF7B8FF636B254A5C631A633A
S2140075502046FFF7C7FF204629F082FA4FF4801333
S21400756063600123626BA66B0532E2601D4A2372DC
S2140075702261A21C2375A26166B11B4A84F82030E2
S214007580E261E21C6262194A84F82C3004F13C0382
S214007590A26223630627EA79A96802EB4203002E5B
S2140075A021F8237001EB83000CBF02230423C37071
S2140075B0012383700E4B04348360531C4460DBB29B
S2140075C00C4C03EB430341F8234001EB83000023FC
S2140075D04360094B02328360EA71F8BDB034002084
S2140075E0DF0A03000340300101FF300102FF1001F3
S2140075F061740000080001000974000028B1034B04
S2140076001B78834234BF0020012070477D5C002039
S21400761070B500250A4C0B4E3378AB4200DC70BDCB
S214007620D4F8A42042B123791BB16079FFF7E6FFB6
S21400763010B9104628F0AAFE0135A834ECE700BFC2
S214007640381E00207F5C002008B5427901461046AF
S214007650FFF7D4FFA8B1CB780A48013A042B00EB19
S21400766082100ED8012B08D81BB9BDE8084029F0B7
S21400767018BABDE8084029F01EBABDE8084029F04F
S21400768024BA08BD341C002008B5427901461046CD
S214007690FFF7B4FFA8B1CB780A48013A042B00EBF9
S2140076A082100ED8012B08D81BB9BDE8084029F077
S2140076B002BABDE8084029F0F4B9BDE8084029F050
S2140076C004BA08BD341C002010B586B00446FEF788
S2140076D0DBFE012830D1E278042A2DD8DFE802F05C
S2140076E013323403030061790846FFF787FF58B367
S2140076F01648032A00EB811050F80C3C58791DD12F
S214007700003818BF012063784FF480728DF804307B
S2140077104FF48273ADF806300623ADF80830012327
S2140077208DF80B3000238DF80A0001A8CDE903235D
S2140077308DF81430FEF7E0FE06B010BDB0FA80F00B
S2140077404009E0E70020DEE70220DCE7341C0020EA
S21400775010B586B00446FEF797FE012830D1E278D1
S214007760042A2DD8DFE802F01313320303006179F0
S2140077700846FFF743FF48B31548032A00EB81107D
S21400778050F80C3C5B791DD11A1E18BF0122637895
S2140077908DF80A208DF804304FF48273ADF8063069
S2140077A00623ADF8083001234FF480728DF80B30B5
S2140077B0002301A8CDE903238DF81430FEF79CFEC4
S2140077C006B010BDB3FA83F25209E0E70222DEE704
S2140077D0341C002010B586B00446FEF755FE01287E
S2140077E012D16378094A8DF804304FF48273ADF8ED
S2140077F006304FF48073CDE90223002301A80493DA
S2140078008DF81430FEF778FE06B010BD08000701AC
S21400781010B586B00446FEF737FE012820D1627800
S214007820104B8DF804204FF4827294F8A01094F850
S214007830A10059701870ADF8062004934FF48072BA
S2140078400223094901A88DF81430CDE90212FEF78B
S21400785053FE94F8A130013B18BF012384F8A130F1
S21400786006B010BD9F5C00200800050110B58378A7
S214007870044603B30379022B0AD142791046FFF778
S214007880BDFE28B10C48013A00EB821029F01DF924
S214007890A379022B02D12046FFF716FF2046FFF7FA
S2140078A0B7FF02236078A4F86C305522BDE810407C
S2140078B0122128F0CEBE10BD341C00204388094A91
S2140078C0082113808388538083681B8A938090F8EE
S2140078D0A03093718379D37100780430C0B2FEF77C
S2140078E045BC00BF8657002038B50D4604460178D3
S2140078F0114813F03DF84FF602739D420ED10F4B20
S2140079001B782BB963712046BDE83840FFF7D6BF19
S21400791062790AB19342F6D20123F3E7B5F57F4FB9
S214007920F1D1204629F06AF9A378022B0CBF012278
S2140079300022A3689A70E6E714B903007D5C002075
S214007940024B53F82000FFF7CFBF00BFD83400200B
S21400795038B504460078144D04302A460821C0B2D3
S214007960FEF7F4FB20B1BDE83840104813F000B82D
S2140079702B8863806B88E978A380AA88A3681A821C
S214007980AB7984F8A030EB79A371094B1B780BB95F
S214007990637138BD09B19942FBD9064812F0E8FF79
S2140079A023780133F4E700BF865700202EB9030082
S2140079B07D5C002057B90300F8B504460B78474AAB
S2140079C00D4642F823004370FFF7C2FFA268444BFF
S2140079D0D465D364434B02265365434BA11C136501
S2140079E04FF44013E36001236161E1623F491032C6
S2140079F021632265211D3E4AA1633E483E496265D9
S214007A0004F1A002A061E163E265E01C611D3B4A4F
S214007A10206261643A483B492266A21D237423779C
S214007A2084F8283084F8343084F84030A16484F830
S214007A304C6084F8583084F864306062A266E87956
S214007A40AA6800EB400102EB810704F10C0CC7F8B2
S214007A5004C04FF0060C2C4F42F82170C118C9B272
S214007A6001EB410142F821C002EB81070021796059
S214007A70264F84F880302767254F84F89830A7670C
S214007A80244F254BE767254F84F8746084F88C6094
S214007A90C4F89C3004F16C06831CC4F88470C4F8E7
S214007AA090601F4F1F4EDBB203EB4303C4F8946095
S214007AB0C4F8887002EB83067034746008261A4C8B
S214007AC042F82340C31CDBB203EB430302EB830400
S214007AD0043042F823606160E871F8BDD8340020B5
S214007AE0530B03009D0B03006D78000001FF30016F
S214007AF004FF20011000300102FF200105FF3001C5
S214007B0000FF300103FF2101070001084A002100A1
S214007B102651040051001000285104002951040089
S214007B20550021006F0018001200010400239B6A14
S214007B30B3F5804F03D21968064A914203D000235A
S214007B40037083607047012202709A689B694260E6
S214007B50F7E700BF07B0CD5E024B034A1A602AF073
S214007B6071BC00BF0000002002020FF073B53F4B4F
S214007B7004461A781AB102221A7002B070BDCDE916
S214007B8000220028F9D001261E7032F0E7FF384D9B
S214007B90384B186017F0CEFC2B785BB902F0F2F980
S214007BA040B935480823354A3549006801F038FEA3
S214007BB000B92E70334B5A68E260334A9A601A6EE8
S214007BC022605A6E6260D3F87021A2601B6E5C045D
S214007BD02CD52E4AD368D807FCD42D4B1A68531CD4
S214007BE029D04FF4801393402A4A13660423294C65
S214007BF04FF0804223664FF480632366102323668B
S214007C004FF400536846236601A92266636629F08E
S214007C100DF8009B2366019B63662B78002BACD087
S214007C20164B1A6822665B686366A6E71A4AD3682C
S214007C30D907FCD4D1E7194B1B78002BD6D1184BAB
S214007C405A68144B12B94FF480121A66154A5268D5
S214007C5012B94FF400121A66134B5B68002BC5D19D
S214007C604FF480020B4B1A66C0E700BFA25C0020F0
S214007C70A35C002010350020EC66002014350020A0
S214007C80007108000080004455CEAC00000004409F
S214007C90B86600200090004400000450A15C00205C
S214007CA00080055000C005500000065038B5224D33
S214007CB004462B78012B02D001232B7038BD0028F8
S214007CC0FCD028F0D8FF013009D028F0D4FF40F2CD
S214007CD00113984203D0194AD368DB07FCD4226804
S214007CE0174B1A6662685A66A268C3F87021E26883
S214007CF0D40744BF00229A60124B1A68013213D18F
S214007D00114A127882B911494968C80748BF1A60F3
S214007D100F4A5268D10744BF01221A600D4A5268C2
S214007D20D20744BF02221A6017F00CFC0A4B1868F0
S214007D3032F00FFF0023C0E7A25C002000000440E2
S214007D4000800044B8660020A15C0020008005503A
S214007D5000C00550000006501035002070B5002405
S214007D60A36AB3F5804F23D21A68134B9A421FD1E9
S214007D70124E337813F0FD0518D14FF480341048B6
S214007D80FFF7F4FE032004F04FFC0E4B0320DC60EC
S214007D9004F02EFC0C4B1C61AB6ADB69984704466A
S214007DA00748FFF783FF0CB901233370204670BDE8
S214007DB04FF48174FAE700BF07B0CD5EA15C0020E7
S214007DC00035002000A000440090004413B5204B6E
S214007DD01B7803B9FEE700231E4CCDE900336A4644
S214007DE008231D49206801F01BFDF8B91B4AD2F88C
S214007DF04031D2F840211F2B4FF0010311D9203A11
S214007E009340019A1A43019208236A461249206851
S214007E1001F08EFE124B134A1A602AF013FB02B0D2
S214007E2010BD9340009A1A430092EDE72D28F1D139
S214007E300A4AD2F84031D2F840211F2B4FF00103F6
S214007E4085BF203A93409340019398BF0093DBE7A9
S214007E50A25C0020EC660020007108000080004450
S214007E60000000200B020FF038B50025AB6A044670
S214007E70B3F5804F10D21B6BB3F5804F0CD207487A
S214007E80FFF774FEAB6A20461B6B5B689847BDE83D
S214007E9038400248FFF70ABF38BD00BF1C35002037
S214007EA013B50024A36A0190B3F5804F13D21B6B61
S214007EB0B3F5804F0FD20948FFF758FEA36A012199
S214007EC01B6B01A89B69984704460448FFF7EEFE23
S214007ED0204602B010BD4FF48174F9E71C3500202F
S214007EE070B50026B36A0446B3F5804F0D4612D22D
S214007EF01B6BB3F5804F0ED20848FFF737FEB36A08
S214007F0020461B6B29469B69984704460348FFF7A3
S214007F10CDFE204670BD4FF48174FAE71C35002074
S214007F2070B50026B36A0446B3F5804F0D4612D2EC
S214007F301B6BB3F5804F0ED20848FFF717FEB36AE7
S214007F4020461B6B2946DB69984704460348FFF723
S214007F50ADFE204670BD4FF48174FAE71C35002054
S214007F60F8B50027BB6A0446B3F5804F0D461646A3
S214007F7011D21B6B7BB10948FFF7F8FDBB6A2046A0
S214007F801B6B324629465B6A984704460348FFF750
S214007F908DFE2046F8BD4FF40174FAE71C3500202C
S214007FA070B50026B36A0446B3F5804F0D4612D26C
S214007FB01B6BB3F5804F0ED20848FFF7D7FDB36AA8
S214007FC020461B6B29469B6A984704460348FFF7E2
S214007FD06DFE204670BD4FF40174FAE71C35002094
S214007FE0F0B50027BB6A0446B3F5804F0D4616462B
S214007FF0ADF5337D20D21B6BB3F5804F1CD21048F5
S214008000FFF7B4FDBB6A20461B6B40F2C1225B6AD9
S21400801001A99847044630B10948FFF747FE2046B5
S2140080200DF5337DF0BD836A32461B6B2946DB6A4D
S21400803001A898470446EFE74FF40174EFE700BF46
S2140080401C35002010B50024A36AB3F5804F10D26B
S2140080501B6BB3F5804F0CD20748FFF787FDA36A6A
S2140080601B6B1B6B984704460348FFF71FFE204612
S21400807010BD0124FBE700BF1C350020F0B58FB013
S214008080044601A80E461546FFF7EEFE9DF80C3096
S214008090012B12D1B5F5402F27D8B4F5402F24D8A0
S2140080A06319B3F5402F20D821462A46304613F0F0
S2140080B001FF002420460FB0F0BD0027BB6AB3F5D1
S2140080C0804F15D21B6BB3F5804F11D20A48FFF7CD
S2140080D04DFDBB6A2A461B6B314620465B6B9847B4
S2140080E004460548FFF7E2FDE4E740F20244E1E714
S2140080F040F20114DEE700BF1C350020F0B58FB05B
S214008100044601A80E461546FFF7AEFE9DF80C3055
S214008110012B1FD1B5F5402F06D8B4F5402F03D854
S2140081206319B3F5402F13D940F2024420460FB02E
S214008130F0BDE258013225D104339D42F9D82A46D3
S2140081403146204628F0C7FD0028EDD00024EDE794
S2140081500023F2E70027BB6AB3F5804F15D21B6BEE
S214008160B3F5804F11D20A48FFF700FDBB6A2A46D6
S2140081701B6B314620469B6B984704460448FFF726
S21400818095FDD3E740F20344D0E740F20114CDE773
S2140081901C35002070B58EB0044601A80D46FFF7CA
S2140081A063FE9DF80C30012B22D144EA0503C3F38D
S2140081B00C03002B33D1B5F5402F04D940F202440E
S2140081C020460EB070BDB4F5402FF7D82544B5F55F
S2140081D0402FF3D8204604F5005428F075FDAC4235
S2140081E002D00028F6D1E9E70028E7D00024E7E728
S2140081F00026B36AB3F5804F14D21B6BB3F5804FDD
S21400820010D20A48FFF7B2FCB36A29461B6B204619
S214008210DB6B984704460548FFF748FDD0E740F279
S2140082200444CDE740F20114CAE700BF1C35002025
S214008230BFF34F8F0549064BCA6802F4E06213434A
S214008240CB60BFF34F8F00BFFDE700BF00ED00E03F
S2140082500400FA0570B5D0B1C9B10E4E431E0139FF
S21400826013F8014F2046325D02F00302012A11F88E
S214008270012F08BF04F12000B55C05F00305012DB1
S21400828008BF2032801A01D1002CE9D170BD012030
S214008290FCE700BFFD7804000348044A0449121AAC
S2140082A0921028F064BD00BF34410000D0420000A8
S2140082B0BC63002008B5154B83F30A8800F030F83D
S2140082C0FFF7EAFF124B13498B4212D30020124BE2
S2140082D012498B4218D3FCF705FD186850F8224067
S2140082E0586840F82240013298688242F5D30C3331
S2140082F0EAE70022F8E71C6844F8220001325C68CE
S214008300A242F8D30833E4E70022F8E7080000208A
S2140083109C9D0400A89D0400A89D0400A89D040040
S214008320124B134A70B59A60D3F88820114D42F468
S2140083307002C3F888206FF0010205F5005422662B
S21400834041F2FF7262660222C3F8D020BFF34F8F5D
S214008350BFF36F8F4FF44036032004F065F9032017
S214008360E66004F045F92E6170BD00BF00ED00E048
S2140083700040000000800044014B1860704700BFBA
S214008380C0660020054B1860054B1B6F03F0070303
S214008390032B01D130F03ABD704700BFC8660020FD
S2140083A0008000502DE9F04104464FF001080C25EE
S2140083B00D4E0CB9BDE8F08194FAA4F0B0FA80F046
S2140083C00F2808FA00F2C8BF103824EA0204CABF11
S2140083D005FB006205FB0062B4325768002FE8D048
S2140083E09168C0B2B847E4E72C35002008B50C48C1
S2140083F032F052FC192004F009F928B1192004F0D3
S21400840013F9192004F0F4F81A2004F0FFF828B144
S2140084101A2004F009F91A2004F0EAF8002008BD32
S2140084208C5304002DE9F0410E461746054618B356
S2140084300F2923D80378DBB1013BDBB2022B19D816
S214008440104AD35C6A78D340DB0717D50E4BD3F8B7
S2140084501043ACB932F082FB80463A462846314695
S21400846002F042FE404632F074FB2046BDE8F08142
S2140084707F23E7E70023E5E72224F6E72124F4E755
S2140084800224F2E77C51040000C0035010B50446F5
S21400849010B30378E3B1013BDBB2022B1AD8104AC3
S2140084A0D35C6278D340DB0718D532F057FB012245
S2140084B0617823788A4030214B4341F2100103F162
S2140084C0A04303F570335A5032F043FB002010BD32
S2140084D07F23E6E70023E4E72220F8E72120F6E7FB
S2140084E07C51040010B5044610B30378E3B1013B99
S2140084F0DBB2022B1AD8104AD35C6278D340DB0773
S21400850018D532F02BFB0122617823788A4030217F
S2140085104B4342F2100103F1A04303F570335A5067
S21400852032F017FB002010BD7F23E6E70023E4E7C8
S2140085302220F8E72120F6E77C51040038B50D46E6
S214008540044618B311B30378E3B1013BDBB2022B48
S2140085501AD8104AD35C6278D340DB0718D532F0BD
S214008560FDFA30222378534303F1A04303F570331A
S2140085705B696278D34003F001032B7032F0E9FAAE
S214008580002038BD7F23E6E70023E4E72220F8E753
S2140085902120F6E77C5104002DE9F0410D461646F1
S2140085A09846044600284FD000294DD0017800296F
S2140085B040D04B1EDBB2022B3ED8254AD25C6378F5
S2140085C0DA40D20701D4FF2940D1022E01D9042E69
S2140085D03CD132F0C3FA23780746FF2B05D032464B
S2140085E02046296802F0C6FD28602B68013309D1B1
S2140085F02378FF2B06D1174B6078D3F8241429F084
S21400860091F9286029684B1C18D00C23124A03FBEA
S2140086100122069BC2F8048093602378FF2B04D0C7
S21400862001230E4A8B40C2F82434384632F091FAC1
S214008630002007E07F22C2E70022C0E7384632F07B
S21400864088FA2D20BDE8F0812220FBE72120F9E7FB
S2140086507C51040000C003502C35002000D003508D
S21400866008B502F037FD044B00F05530C3F820047F
S214008670BDE80840FFF796BE00E0035008B502F0DC
S21400868029FD044B00F0AA30C3F82004BDE80840DA
S214008690FFF788BE00E003502DE9F04F144605466C
S2140086A00E469B46C36B87B001225B6902A96068D1
S2140086B09847EB6B01225B6903A93046984702A8EE
S2140086C028F054FF074648B10023A37563754FF0A2
S2140086D0FF33A360002007B0BDE8F08F03A828F0A2
S2140086E052FF0123A375237E04EBC303DE611F84C0
S2140086F06368B3420ED1206003A828F066FF4FF0EF
S214008700FF332075A360237D043B022B26D800236D
S214008710A375DFE723681A1A53425341A37503A8CB
S21400872028F053FF237D834218BFA77503A828F0BF
S2140087302EFF074602A828F02AFF874218BF00230C
S21400874003A818BFA37528F02AFF074602A828F03A
S21400875026FF87421CBF0023A375D4E703A828F092
S21400876016FF80B1EB6B022230465B6904A998477E
S21400877004A828F01BFF0346207D032839D8DFE82D
S21400878000F03838040903A8F3E7CC22237E04EB74
S214008790C3031A8401F06EFC109B187003A8277E92
S2140087A028F0E9FE04EBC70787F82200237E03A81B
S2140087B004EBC303B3F8209093F8227028F0E7FE8A
S2140087C0804603A828F0EBFE8246B8F1000F15D0CD
S2140087D0EB6B022230465B6904A9984704A828F090
S2140087E0AAFE6075637D6BB90023A3754FF0000881
S2140087F038E0227E04EBC2021384CBE703A828F0FD
S21400880085FEEEE794F81680B8F1000FEED0B9F1C9
S214008810000F09D1DFB10123E375637E002B4FD132
S214008820012F42D1677614E06B6C06EB0A015A42C0
S21400883086EA010010421CBF0022A2755A1E0A409A
S2140088409B1A9945D0D8A37D002BE3D1CEE7E37DD4
S21400885043B94FF000084B4652463146284628F0AA
S214008860D0FBA060A27D12B123694B4423611A4954
S214008870237E097899422AD901332376BBF1000F6B
S21400888027D032B3E37D23B3B8F1000F21D1032FF5
S2140088901FD0A1684B1C1CD0109B22460093284674
S2140088A00123FFF7F9FEA07513E095F8343063B99D
S2140088B0EB6A0133CFD1032FCDD10123A376C8E7CE
S2140088C0012FCFD0032FC4D1F7E79846C3E7002384
S2140088D0A375A07DFFE600BFA05104002DE9F04F70
S2140088E00E46984600238BB004464FF0FF311046E4
S2140088F017468DF8133001F0A7FBB6F5801F20D27F
S214008900314605AA04F1080028F082FD451C014600
S21400891003D1237CBBB92D2010E0384601F094FB30
S2140089200122394620460DF1130328F0BCFB00282F
S214008930EFD09DF8133088F8003000200BB0BDE86B
S214008940F08FB01CE5D1E56A691C36D12046616A15
S21400895028F09DFA0546B31C18BF0123DFF8CC901B
S2140089600193636A626C0293236805A902FB053AC9
S214008970E36B05225B695046984705A828F091FEF0
S21400898028F0B4FE504628F0BCFE4FF0000B82469E
S21400899001464B1C05D0636C81EA0A025B42134217
S2140089A011D02946204628F072FA029BAB422CD002
S2140089B0BBF1000F2CD10546D3E72368ED1A636C94
S2140089C0B5FBF3F5C7E7484601F03EFB0DF1130390
S2140089D049462046019A28F066FB034690B1B21C31
S2140089E003D0D9F80020B2420CD19DF8132003938F
S2140089F00D4B88F8002049461A68384613F05AFA94
S214008A00039B9B46D9F80810C3E7BBF1000F82D042
S214008A10B6F5801F91D2314698F800307A6804F196
S214008A20080001F03FFA88E79C510400083D00204A
S214008A302DE9F3410446174698460E46184D816ABE
S214008A40E36A8B4201D04B1C02D102B0BDE8F08134
S214008A50284601F0F9FA0122294620460DF10703BF
S214008A6028F021FB38B14346294620469DF80720CA
S214008A70B8470028E9D0A9684A1C04D1696820468E
S214008A8028F092FA0146012EDAD16B6881EA0302D9
S214008A90636C5B421A4218BF4FF0FF31D0E700BF4D
S214008AA0DC3C00202DE9F04F4FF0FF334FF6FF720D
S214008AB00025044600F10806C0E909238BB0C3620E
S214008AC0056205633046884628F073FC204628F089
S214008AD0AEF960BB2046414628F029FA204628F029
S214008AE0A6F960BB5E200BB0BDE8F08F2368E26B92
S214008AF0606C576900FB0530052205A9B84705A834
S214008B0028F0CFFD012807460CD12946204628F03C
S214008B10DFF9012F024600D101322946204628F00F
S214008B20A5F903E028F0E7FD0028EED10135E3695A
S214008B309D42DBD3204628F07AF90028CAD00025CB
S214008B404FF0FF394FF6FF73CA46A846C4E90853EC
S214008B50E36998450AD3A5EB0905012D2CD84FF6F5
S214008B60FF72636A93423CD16720BCE72368E26BDE
S214008B70606C576900FB0830052205A9B84705A8B0
S214008B8028F08FFD834605A828F062FD0746584664
S214008B9028F0ACFD68B1574538BFC4F82480B94505
S214008BA028BFB946BD4238BF3D46BA46236A0133A0
S214008BB0236208F10108CBE74FF6FF7300256362D6
S214008BC0E3699D42CBD2676C2068E36B052207FB06
S214008BD005005B6905A9984705A828F039FD013509
S214008BE0EEE7E26B676C2068694607FB0300556991
S214008BF00522A847684628F02BFD626A2368606C49
S214008C004B4D00FB023028F07CFD4FF0FF33A06296
S214008C10E3622A466FF00101204605ABFFF75EFED1
S214008C20002846D1AD6829462046E56228F0DBF8E4
S214008C30206320B92046E16A28F0B6F9E0622946AA
S214008C40204628F0B1F90546A36A9D4233D1204656
S214008C5028F09CF800278046B946E36999453CD33E
S214008C60B84559D92046616A28F011F9002605460C
S214008C7004F1400AB74212D8626C2368694602FBC8
S214008C800539E36B05225B6948469847684628F035
S214008C90DFFC534602464946E06B28F034FD294681
S214008CA0204628F0F4F80136B0450546E2D16420A7
S214008CB019E7A56AB7E72946204628F094F8236BFB
S214008CC02946034407462363204628F06DF90546E7
S214008CD0002FB9D1C4E90B07B6E7636C25680522F7
S214008CE003FB0955E36B05A95B692846984705A869
S214008CF028F0D7FC28F0FAFC58B1284628F001FDE9
S214008D000146204628F06FF8636C143B984208BF73
S214008D10013709F10109A0E7304628F04AFB002395
S214008D2020461946034AFFF783FE0020DBE600BF15
S214008D30343D0020951003002DE9F041036B90466A
S214008D40826B07689A4288BF8363426C436A90B01E
S214008D5002FB0377C36B0E46052201A95B69044636
S214008D603846984701A828F09CFC01280146307038
S214008D7057D0656CE26B2368606AD2F814C005FBB6
S214008D800030052206A9E04706A828F08AFC01283C
S214008D904FF0000523D0D4E90A3201219342CDE9F1
S214008DA00B458DF834800E958DF83C102AD1194667
S214008DB0204628F0F9F8236B626C14339B1AE062A5
S214008DC023630C9B53B99DF83C303BB1626A616CDF
S214008DD02368E06B01FB023128F01BFC0C9DE36B63
S214008DE005225B6901A93846984701A828F059FC76
S214008DF030702846236BA26B9A4288BFA36310B0DC
S214008E00BDE8F081237C33B91C490BAA04F10800A5
S214008E1001F096F8D5E72046194A0BABFFF708FE97
S214008E20CFE7237C23BB2246164904F1080001F055
S214008E3087F8616A204628F04BF8616A421C204693
S214008E4028F014F8054620B9236B626C1344143BD3
S214008E5023632046A16A28F0A7F82368A062C01AF8
S214008E60636CB0FBF3F06062204628F0E0F8B6E7EB
S214008E7000232046044AFFF7DBFDDAE7DD95000015
S214008E80599500002F110300CB10030073B50D4653
S214008E90D11E4A421C461B7E4A419A4226D1296868
S214008EA02368994222D3636899421FD8114E0DF168
S214008EB007033246FFF712FDC0B972686B689A4224
S214008EC014D19DF80730DA1E53425341227E934256
S214008ED00CD1636901336361D4E90323934205D25D
S214008EE02968A26842F8231001332361012002B0EA
S214008EF070BD00BF343D00202DE9F04F9B4689B081
S214008F009DF848309046514A0193136907465B45E1
S214008F100D46C0F09580D94653680093B9F1000F0E
S214008F207BD0FB6B01225B6905A90098984705A8D2
S214008F3028F029FB454B1B68984240F0848005A822
S214008F4028F02DFB0428064615D105A828F02EFB90
S214008F50009B04461E44019B002B3ED1804512D93F
S214008F601C46A8EB00083846009928F01DF8A9EB27
S214008F7004090090D2E7FB6B02225B69009806A901
S214008F80984706A8E2E7A0EB08045C4528BF5C46C5
S214008F90032C4644ABEB040B1DD9FB6B294630462D
S214008FA05B69A208984724F0030304F0030A1E44F2
S214008FB01D44DDF80480BAF1000FD4D0FB6B01220B
S214008FC006A930465B6998475246284606A912F01D
S214008FD071FF5544C7E7A246EBE7824600F003035D
S214008FE002932B1803930644039BA6EB0A00A3EBFD
S214008FF00A05029B9A4514D1BAF1000FB3D0FB6B59
S214009000012206A95B6998475246284606A913F02E
S2140090100DF90028DDD04FF03609484609B0BDE806
S214009020F08FFB6B012206A95B699847042228464D
S21400903006A913F0FBF80028EDD1AAF1040AD3E73D
S2140090404FF06309E9E74FF06F09E6E7603D00205F
S2140090502DE9F0410F4616469846044688B060B3A0
S21400906090F83450FDB1012127F0D6FE00210E9B6A
S214009070CDE90511CDE902379DF83C30CDF80480E6
S2140090808DF81C30237C04968BB90D4901AA04F197
S214009090080000F055FFDDE90553E06B002E08BF21
S2140090A01D4628F052F8284608B0BDE8F081204654
S2140090B0044A01ABFFF7BCFCEDE70546F3E700BF4B
S2140090C0F91003008D8E00007FB590F842600446CC
S2140090D001920DF10B030A463046114928F03DF87F
S2140090E0012E0546E36B17D132465B6903A9984704
S2140090F09DF80B10039B019A59B19BB243EA0243B9
S214009100012228460393E36B03A99B69984704B0A2
S21400911070BD62F30F03F3E701229B6901A9F5E72F
S214009120603D00202DE9F04F99B00E460D920A6979
S214009130416C0B931439D31DB3FBF1F3013302EBEF
S214009140C302036B04469342C0F001820023DFF89B
S21400915004940893E36A48461946059300F074FFA2
S214009160D6E9033707930B9B022B4DD1CC2F40F04B
S214009170D7810D9B3BB13146204628F044F8656CFC
S2140091801490012044E00120079B656C1B68149333
S21400919000F0010000280CBF04230823782F0E934C
S2140091A049D8059A6B1E1340ED1A3B1D9D423CD2D2
S2140091B0002F3DD0082D3ED80023042506934FF0FF
S2140091C0040A336806990B98C9F80030C9F810707D
S2140091D028F0FFF94FEA9A030F93059B89F81400CD
S2140091E00393002309930C9304930A93616C039BE7
S2140091F04A1E1A408B1A27B35544AB4223D8236B1A
S2140092005B1A134423632FE1782F656CB9D8F07D81
S2140092100D9B002BBCD0E36B01225B69706816A91E
S214009220984716A828F0B3F9B4E700250695C6E7D0
S21400923004250697C3E7012300254FF0080A069386
S214009240BFE75345DBD3A3EB0A029742039BB8461E
S21400925028BF90469742534428D90122D9F81010C7
S21400926089F817208F4226D10399C9F80410049272
S21400927099F817200AB399F818100398CA1C09EB36
S214009280C202506004980131A2F80880907289F8F2
S2140092901810B8F1000F07D00B9A022A40F0818010
S2140092A0099A72B1012209929B46ABE0049A002A01
S2140092B018BF0322DBE70222D9E7039AC9F8042085
S2140092C0E7E70C9A4244032AEED9E26B1846956902
S2140092D014A901220993A847099B05460028E1D056
S2140092E03D2D40F01E8104F1080303932368059A80
S2140092F0606CA2EB030ABAFBF0FA00FB0A3028F017
S21400930000FAE16A8046204627F04EFEA26A8242B4
S21400931000F00F81626CD9F80830511E0B40216BAB
S2140093202768891A0B442363089BE062DF1BB7FBA0
S214009330F2F7BA4540F0FA80059BB3EB080A12D064
S214009340E36B4FEA9A0241469B6998478346E36A75
S214009350059A5344E362236B03989B1A43442363A2
S21400936028F027F8DA462368616CE06B01FB0731CA
S21400937028F03CF9204627F05AFD204627F057FEF5
S2140093802063BAF1000F00F0D4803269616CD31DFF
S2140093901439B3FBF1F3013302EBC3029042A5D2BA
S2140093A0BFE00D9A002A77D1B8F1030F4FEA980272
S2140093B06ED9E16B18468D6907991093A847109BE4
S2140093C00546C0B918F0030515D0079A28F0030B18
S2140093D002EB0B019B444FF0FF3215A815922A466C
S2140093E0109312F067FDE26B5846956915A90122A5
S2140093F0A8470546109B9B46079A42440792002DB5
S21400940040F08B80049B16A80193069B009399F866
S21400941014204346316800F0CDFDE36B0F9A9B693C
S214009420039816A99847039A051E089B18BF13466B
S2140094300893434652462046039927F0E2FD236BE5
S21400944008F10302A3EB0A0322F003029B1AC9F8F1
S21400945008002363002D7FF443AF0C9BA7EB08079F
S21400946043440C93CDF80CB02046039927F09CFD9E
S21400947000250390002F7FF4B9AE364A3168936812
S21400948004F10800E36252680B9B00F00BFD49E014
S2140094909B46454607999EE79B4606F1200210929A
S2140094A0F27D7068A2B1002296F818C00A99D5B26B
S2140094B0AC4511D9109D02F1010E35F832508D429F
S2140094C028D90E9806EBC2020144D069084403E08E
S2140094D00E9A0A990A441044E26B15A955690122AE
S2140094E01193A847159A0A9B1392E26B0433956969
S2140094F05846012213A90A93A847119B054603EB79
S2140095000802A2EB0B02042A7FF679AF28B90BF10A
S214009510040BC5E77246491BC9E7CDF820B088E7BB
S21400952070252F46384619B0BDE8F08F4FF0000A78
S21400953019E73269616CD31D1439B3FBF1F30133BB
S21400954002EBC302236B9342BFF404AEE9E71C2789
S214009550E8E700BF083D0020032A2DE9F341064650
S2140095600D4617461C4606D1237A012B23D0012030
S21400957002B0BDE8F081DFF86080096842460DF170
S2140095800703FFF7ABF960600028EDD19DF80720D0
S214009590237A032AE8D0D8F804106A689142E3D107
S2140095A0012B2969D4F80CC007D172690CEB0103B2
S2140095B0934202D92074207CDAE708316144E160E6
S2140095C03B46012229463046FFF7ACFD6060002886
S2140095D0CAD00020CCE700BF343D00202DE9F3417F
S2140095E0089C032A1746266806D1237A012B24D026
S2140095F0012002B0BDE8F081DFF890803046424698
S2140096000DF10703FFF76AF960600028EDD12568C1
S214009610D8F80400A96AD5F844C04840CCF1000345
S2140096201840227AE1D1012A09D1E268D8F8103030
S21400963013447269934202D92074207CD9E72868C3
S214009640EB6A1B1A081AB3FBFCF3B0FBFCF0834270
S2140096500BD1706CF36A421E1340326B121A13441D
S2140096602846336327F0A0FCE862D8F81020E368A9
S21400967008321344E36001223B4604492068FFF7A2
S21400968051FD60600028B0D00020B2E7343D0020D5
S2140096902DE9F0410025604B0E46D3F800800446C5
S2140096A01D6018B921252846BDE8F08190F8347071
S2140096B007B30A6803689A4240F0A3804A68436882
S2140096C09A4240F09E808A6883689A4240F0998069
S2140096D0CA68C3689A4240F094800A6943699A420D
S2140096E040F08F808A69C36B9A4240F08A804B694B
S2140096F08361D8E768223946856B12F04BFAD6E9C3
S2140097000212336804F1080023607368A56363607F
S214009710336963617369A36127F05DFEB36904F181
S2140097204000E3639B68984720B9676C17B163688D
S214009730B3FBF7F794F84330E761002BB2D0002371
S214009740656C2366002D64D0002F62D02368B3FBBF
S214009750F5F205FB1233002B55D16668B6FBF5F320
S21400976005FB1363002B4ED1204627F02CFBA36984
S214009770043303449E4248D340F634726369CC3BBC
S214009780934244D8B5F5805F43D30321204627F0A3
S21400979043FBD4E90001E36B1B6898470546E36B7F
S2140097A00220DB689847CDB941462046FFF77AF994
S2140097B06428054604D141462046FFF773F905465E
S2140097C0666C5DB9236A2046143E5E4327F0FBFABA
S2140097D0A369043303449E4238BF5A25002D0CBFAC
S2140097E00123002384F8343007D1D4E900010B4A62
S2140097F013680133136027F088FEE06B27F0A5FCA2
S21400980051E75D254FE759254DE75A254BE75F257C
S21400981049E75B2547E700BF9836002094360020CE
S2140098202DE9FF410C4616461F46054680B390F8C4
S21400983034307BB3B1F5801F2ED2DFF86080012173
S21400984027F0EAFA2146424628460DF10F03FFF7B5
S21400985045F8044670B99DF80F30012B11D1D8F8A1
S2140098601030BB4212D10246009031462846FFF720
S21400987043FB0446E86B27F068FC204604B0BDE8CE
S214009880F081022B14BF2D246024F3E76324F1E754
S2140098902124F2E71124F0E72924EEE7603D0020BA
S2140098A02DE9F04385B00C4617461E460546DDF802
S2140098B0308098B390F8343093B3B1F5801F31D22E
