S01B00006275696C642F72656C656173652F7A69676265652E73333714
S2140060000810002029A0000049E8000029710300BC
S2140060102971030051E8000059E8000029710300C7
S21400602029710300297103002971030029710300F7
S2140060305DE8000050B504002971030029710300D3
S214006040297103002971030029710300F99A0000E1
S21400605029710300297103002971030029710300C7
S21400606029710300297103002971030029710300B7
S214006070C9ED00002971030029710300297103008E
S2140060802971030029710300297103002971030097
S2140060902971030029710300297103002971030087
S2140060A029710300F5A30000D5A3000029710300A1
S2140060B029710300A12C0200297103000537020094
S2140060C029CA030025CA0300E12E02003FCA0300C6
S2140060D02DCA0300D536020031CA03004537020038
S2140060E0B13D0200AD1A0200B1370200297103006B
S2140060F02971030029710300297103002971030027
S2140061002971030029710300297103002971030016
S2140061102971030029710300297103002971030006
S21400612029710300297103002971030029710300F6
S21400613029710300297103002971030029710300E6
S21400614082B030BF074BD3F8F030DB0704D500230E
S2140061500193019B052B01DD02B07047019B0133C3
S214006160F6E700BF00ED00E0F0B5114A114C124E04
S21400617000F00105E3695F0713D40DB9334213D16C
S21400618003EA00078F4207D10B4A1A40002A14BFC1
S2140061906FF001000020F0BD013AEBD16FF0020075
S2140061A0F9E74FF0FF30F6E76FF00100F3E700BFC6
S2140061B08096980000000350020001000B4B70B55B
S2140061C0D96911F480310DD101244FF48072084E44
S2140061D0084DF46020462C641A61FFF7C5FF34644E
S2140061E0EC6070BD6FF00100FBE700BF00000350DD
S2140061F000100350002003504FF4003238B50F4B08
S2140062000F4C9A6641F671330122E569E3630D4B44
S2140062100021DA60022360612120236105F48035C5
S214006220FFF7A2FF10B92120FFF79EFF0122064BC1
S214006230DA600DB10023E36338BD00BF0090005064
S21400624000000350001003500020035070B5134C9C
S2140062506061E3695B071ED40E4656F8043B8D1852
S214006260A361AE420BD10423002121202361FFF756
S2140062707BFF58B9BDE870402120FFF775BF0821A5
S2140062800846FFF771FF10B10423236170BD56F86E
S214006290043BA361E5E74FF0FF30F7E7000003504B
S2140062A02DE9F84315464FF40032184B89469A6696
S2140062B041F6713203F51C33DF69DA6301220646C4
S2140062C003F58053DFF84C8007F48037DA6055B961
S2140062D0284601220E4BDA601FB10022A3F50053B8
S2140062E0DA63BDE8F88306F5005404EA0804A41B44
S2140062F0AC4228BF2C46494622463046FFF7A6FF4A
S2140063000028E6D12644A1442D1BE0E7009000506B
S20C0063100020035000E0FFFF2F
S2140063182DE9F04F4FF0FD0BC9B09A460DF11B0959
S2140063289DF8503108AFCDF80C90CDF808B001971D
S214006338059303890446009383790E469046418860
S2140063488288407812F0ECF9054650B10090A38890
S214006358002062883A4912F027FD284649B0BDE871
S214006368F08F99F8000033F035FE38B12846A38838
S2140063786288344912F018FD8D25EEE75A463946EC
S21400638899F8000033F0CEFD8346002851D0529B82
S2140063981BB1BDF84C3198424BD8002399F80090B1
S2140063A80793A9F14102012A5FFA8BF123D83846F0
S2140063B80139254ADFF898C05FFA81FE734513DB7A
S2140063C8059B04210792C3B907AF18221F489FED03
S2140063D81A7B02FB060420460A460830394684ED36
S2140063E8027B17F063FB11E010F8011F01335140E0
S2140063F80CFB01F2E2E7059B33B123464A463846D2
S214006408009610F0B5F8A8E70829DED9B8F1000F0D
S21400641801D088F80090BAF1000F01D0AAF800B0B1
S214006428529B002B99D05A46184608A917F03EFBEF
S21400643893E7012591E700BF000000000000000078
S214006448DB5E0400105F0400C59D1C81F010002070
S21400645893010001000000002DE9F04F93B0CDE94C
S2140064680A32DDE91C530E9353EC102BCDE90801D4
S214006478104619468DED060B1E9E16F0A1FD80B13E
S214006488DDE906014FF0FF32C54B16F0C1FD40B9F5
S214006498DDE906014FF0FF326FF4801316F09AFD1F
S2140064A870B1DDE908019DED060B0E9B1E96CDE941
S2140064B81C53DDE90A3213B0BDE8F04F00F088B986
S2140064C80022DDE90601002316F084FD002800F00E
S2140064D83381DDE906A303F1004BCBF30A5016F42B
S2140064E88063A0F2FF3008BF06250F9316F096FAD1
S2140064F89BA3D3E9002316F0FBFA9BA3D3E900235A
S21400650816F040F9CBF31304894644F07F518046D1
S2140065180022A44B504641F4401116F031F994A3DA
S214006528D3E9002316F0E4FA02460B4640464946ED
S21400653816F028F916F076FD044616F06FFA8EA3C4
S214006548D3E900238046894616F0D2FA0022964BF5
S21400655816F018F916F066FD89A3D3E90023074656
S2140065684946404616F0C4FA80463846894616F02C
S21400657855FA85A3D3E9002316F0BAFA02460B4665
S2140065884046494616F0FCF802460B46CDE90C2371
S21400659816F0AEFADDE90C23804689461046194601
S2140065A816F0F0F80022CDE91001804B4046494627
S2140065B816F0C8FB00227E4B16F0E4F802460B469F
S2140065C84046494616F0BEFB00227A4B16F0DAF82B
S2140065D802460B464046494616F0B4FBDDE90C2356
S2140065E88046894600204FF0804116F0C9F80246DA
S2140065F80B464046494616F0C5F802460B46DDE906
S214006608100116F09FFB07F2FF3700226A4B16F0C0
S214006618B9F800223B0516F06BFA52465B468046F0
S214006628894616F0F5FC002840F08980CDE90C89EB
S21400663804F16303C62B8CBF0527042731051BD539
S21400664853A3D3E900235046594616F0D7FC002832
S2140066587FD051A3D3E900235046594616F0BAFC1A
S214006668002876D00027A542C6BF2C1B04F1FF35AC
S21400667800253C4646F480660E9B9F422CBF4FF092
S2140066880008A3EB070816F0020903D0002F18BF6E
S2140066984FF000083CB1DDE90C235046594616F089
S2140066A851FB82468B46DDE906010022002316F0E0
S2140066B891FC10B10BF100439B46DDE9080126F476
S2140066C80063CDE90183DDE90A324BEC10AB009597
S2140066D800F07EF802465FB3DDE9091316F0200FD6
S2140066E800F10105089E0CBF65204520B047DDE98E
S2140066F808010523002205930A23002CCDE902325F
S21400670807F1FF374FEAD473B8BF64422A460193AD
S21400671804970A9B009435F0CBFB0246B9F1000FAC
S21400672806D00B9BC41A0B9B1A190E9BA34245D87E
S214006738104613B0BDE8F08FDDE906ABCDE60022C3
S214006748404649461A4B16F0FDFA013CCDE90C01C5
S2140067586EE7002D90D00F9B002B8DD0013D8BE768
S214006768FB799F501344D33FB3C8608B288AC63F33
S21400677861436F63A787D23F71A379094F930A4095
S2140067881655B5BBB16B0240EF39FAFE422EE63F0E
S2140067982D431CEBE2361A3F0000000080842E4191
S2140067A8FFFFEF7F0000F83F0000E03F00002C40AE
S2140067B800002440000018400000F03F2020DDE9DB
S2140067C80913089DA8470134ADE700BF0000000084
S2140067D82DE9F04F5BEC10AB97B0CDE90501DDE98C
S2140067E82058CDE90723504652465B465946229F15
S2140067F816F0E6FB70B90323CDE902870193AA4B8E
S2140068080093DDE90501DDE9072335F083FA17B0C3
S214006818BDE8F08F4FF0FF326FF4801350465946AC
S21400682816F0D8FB28B10423CDE9028701939F4BC5
S214006838E6E74FF0FF32504659469D4B16F0E8FB08
S21400684868B19C4A07F00403002B08BF03229A4B42
S2140068581CBF13460422CDE902870192D0E75046B2
S2140068688DA3D3E90023594616F0D2FB38B98CA37A
S214006878D3E900235046594616F0ACFB68B1DDE96B
S2140068880723DDE905014BEC10ABCDE92187209500
S21400689817B0BDE8F04FFFF7DFBD002200235046D3
S2140068A8594616F097FB002800F091805B46524642
S2140068B80020002115F064FF012382468B460993C9
S2140068C817F4806400F08580092D40F28580002446
S2140068D830210EABA5F109020134202C03F8011B68
S2140068E8A5EB040901D09442F6D15946504616F055
S2140068F899FB724B054603EBC90393ED007B8DEDC0
S2140069080A7B16F08BF802460B465046594615F099
S21400691837FFDDE90A2316F0EBF802460B46CDE909
S2140069280C2316F0A7FB064616F068F802460B4638
S214006938DDE90C0115F024FF02460B46CDE90C23D1
S21400694800225F4B16F064FB002848D0013630461C
S21400695816F054F802460B46DDE90A0116F044FB29
S21400696808B100260135B9F1000F45D1284616F0C2
S21400697855F802460B465046594615F001FF0022C8
S2140069884F4B16F027FB10B9E90700D501350A2149
S2140069980EAB1A19202C0AD095FBF1F001FB105506
S2140069A8303502F8015B013405460028F2D107F0BD
S2140069B80302012A55D1B8F1000F52D0099A12B92C
S2140069C817F00C0F01D008F1FF38302240E009908C
S2140069D876E74FF0060988E7A946002485E70022EF
S2140069E8DDE90C01364B16F0F5FA0028BBD10EB1DE
S2140069F8F007B8D50136B6E70A210EAB1A19202CCF
S214006A080DD0B6FBF1F001FB1063092E03F130033D
S214006A1809F1FF3904F1010402F8013B11D83021CD
S214006A28A1440EAA202CB2D04C4504F101030AD189
S214006A3804F158020DEB02042E2204F8202C1C4602
S214006A48A5E70646DBE7A1541C46EBE71A550134D2
S214006A58444506D2202CF9D1CDE9028701940EAB25
S214006A68CEE6202CF8D0099B3BB12D2204F1580322
S214006A786B4403F8202C0134EEE77A0704D504F1BA
S214006A8858032B226B44F4E73B07E5D504F158037B
S214006A9820226B44EDE700BF0000000065CDCD4125
S214006AA80000000065CDCDC1CA7C0400CE7C040081
S214006AB8FFFFEF7FC17C0400C67C040048C40400C6
S214006AC80000E03F0000000070B58EB02C220021C8
S214006AD803A816F05BFE64234FF002320893CDE954
S214006AE805230B2301218DF834305B4B8DF81010ED
S214006AF81D880D4040F0A980084639F0ADFC0A22F2
S214006B08564B574C1A704FF42873ADF812304FF0A6
S214006B18FF332360534B54491B8820460B82534B44
S214006B28534A1B68CD828B61524B0D621B884B8281
S214006B38514B1B68CB611CF003FF20B14FF41B714F
S214006B484E483AF05CFD0521206836F00FF820B173
S214006B5840F27D2149483AF052FD206815F0CCFDF8
S214006B68474B2068196835F07BFB0C253AF0DCF8B3
S214006B78684309903AF0D8F868430DEB050107908A
S214006B88206817F09FFA20B140F295213B483AF06A
S214006B9836FD25681FF070FC00220146284635F0B1
S214006BA8D7FB20B140F2972134483AF028FD40F24E
S214006BB80353344D344E2B80052396F90000AB70F2
S214006BC87F2801D11DF0A4F93378EB703AF0ACF8C1
S214006BD800EB80008000A8803AF0A6F80023C000EA
S214006BE84FF0FF31E880AB604FF0FF3018A3D3E9D1
S214006BF8002339F083FD2549206835F062FB2068BC
S214006C0802A936F05AF820B14FF434711B483AF00E
S214006C18F6FC042220680DEB020135F0F6FA04288B
S214006C2804D040F2D72115483AF0E9FC01A9012022
S214006C3834F0C1FE07F048FE01201DF0FBFD31F0E0
S214006C485DF81DF021FE1DF0FBF80EB070BD00BF0C
S214006C580A0020FF420300004E5D0020AE640020BC
S214006C68805500206CDD0400DC6B002074DD040019
S214006C78890404006ADD040070DD0400F9B304002A
S214006C882469002074550020FA6E0020FD040400D4
S214006C980348044B834202D0034B03B1184770479E
S214006CA82C6F00202C6F002000000000064B0749C0
S214006CB8C91A891048BF0131491003D0044B0BB1DB
S214006CC801481847704700BF2C6F00202C6F002023
S214006CD80000000010B5064C237843B9FFF7D8FF2C
S214006CE8044B13B10448AFF300800123237010BD92
S214006CF8E016002000000000AC18050008B5044B9C
S214006D081BB104490448AFF30080BDE80840CDE74E
S214006D1800000000E4160020AC180500A3F5803A31
S214006D28704700BF154B002B08BF114B9D46FFF759
S214006D38F5FF00218B460F461148124A121A16F024
S214006D4825FD0C4B002B00D098470B4B002B00D092
S214006D5898470020002104000D000B4817F05CF847
S214006D6816F0ECFC200029002FF0CDFE17F042F8B4
S214006D7800000800000000000000000008100020C6
S214006D88081000201465002089DE010007B50121DF
S214006D9820200DF1070201F0EDF950B10121202065
S214006DA80DF107028DF8071001F0F4F903B05DF84D
S214006DB804FB9DF807100129F8D00122084815F0B1
S214006DC8C7FB01210DF1070220208DF8071001F0FE
S214006DD8E1F92FF01AFE4FF4FA6001F013F8E5E730
S214006DE8501A040038B501F05DFB012805D001F003
S214006DF859FB022801D001F07BFB064D2B783BB9E6
S214006E0801F050FB0128044602D12FF073FE2C70C7
S214006E1838BD00BF3A5E002010B5044600882FF043
S214006E28BFFDA37884F84400834202BF0123E370C1
S214006E382371074B04F11C00C4E9073401F0F0F98C
S214006E48224620880349BDE8104001F02DB900BF4E
S214006E583F6703000967030070B5C37804460D460C
S214006E681646002B34D1D1B1214815F071FB012309
S214006E78E370E36CA6600BB1E06D9847E368F61A1A
S214006E8863699E4221D2217E1A480131C9B2217611
S214006E9815F05EFBA36D13B1217EE06D9847E57093
S214006EA82FF0C6FD15B3237903BBA268238A801A80
S214006EB883421BD801231048237115F049FB236D24
S214006EC8A3B1E06DBDE87040184701232376E6E7D6
S214006ED80029E4D1094815F03BFB636DE660E570D0
S214006EE82571002BDBD0E06D9847D8E770BD00BF52
S214006EF8781A0400891A0400B71A0400A41A0400B1
S214006F0870B51E46838804460D46C18002810BB1C3
S214006F18868070BD817800882FF02EFC0123E370F0
S214006F28064BA680C4E903340C34204601F078F9F1
S214006F3829462046BDE870402FF071BD8B670300D8
S214006F482DE9F04104462FF073FD94F93C60656C1A
S214006F586064451B30462FF04DFD30462FF046FD49
S214006F68074630462FF044FD30462FF042FD94F990
S214006F783D8040462FF03EFD40462FF037FD064642
S214006F8840462FF035FD40462FF033FD002D54D0F7
S214006F98394B4FF47A72BB4228BF3B465343B3FB88
S214006FA8F5F105FB11335343B3FBF5F302FB01334D
S214006FB8E268B3FBF2F347F6FF729A4228BF1A4616
S214006FC822840A22B3FBF2F36362D4E90A32DB199D
S214006FD842F10002C4E90A32236CA2693B442364E6
S214006FE8236C93422BD27DB1234B9E4228BF1E466C
S214006FF84FF47A735E43B6FBF5F205FB12665E4302
S214007008B6FBF5F603FB026594F83E204FF6FF71D3
S214007018DAB16369B5FBF3F38B4228BF0B46E3830B
S214007028002A0CBF01230023A08884F83E30A379E9
S21400703813D1A3B92FF0AAFC13E02B46B8E79B1A86
S2140070482364236B01332363CAE72369B5FBF3F58F
S2140070588D4228BF0D46A583E2E7002BEAD12FF024
S2140070688BFC636B0BB1A06B9847A16804F14800D2
S214007078BDE8F0412FF0D3BC00093D0038B5836861
S214007088044613B94FF4FA638360E3680BB95323D5
S214007098E360236913B940F21F33236163690BB9B0
S2140070A86C236361A36913B94FF47A73A361002252
S2140070B8012120882FF096FC84F83C00013005D189
S2140070C8234815F045FA4FF0FF3038BD002201215D
S2140070D860882FF087FC431C054684F83D0009D1DC
S2140070E81C4815F035FA94F93C002FF07EFC84F81D
S2140070F83C50E8E70022A08811462FF01EFCA37932
S214007108A0880BB32FF038FC012394F93C0084F8D0
S2140071183E302FF06EFC94F93D002FF06AFC2FF0FD
S21400712887FC0D4B04F14805C4E912346064284610
S21400713801F076F82846A1682FF071FCA168074888
S21400714815F006FA0020C0E72FF020FCDCE700BFA9
S214007158CD1A0400F51A0400496F00001E1B04002F
S21400716810B501790446B1FA81F1008849092FF073
S2140071787AFB21796088B1FA81F149092FF073FB0F
S214007188034B1A68A24204BF00221A6010BD00BF53
S214007198FC16002070B543790446A3B100880E4E4D
S2140071A804F10805336813B10C4B1B786BB12179D1
S2140071B82FF059FB64210A4B3460A3602846BDE8CB
S2140071C870402FF02CBC4088E9E7064815F0C0F957
S2140071D8054B3221A360F1E7FC1600203C5E002038
S2140071E869710000511B04009D71000010B504462B
S2140071F8E0B10F4815F0ACF901236371A37953B9D0
S214007208217920882FF02FFB236B7BB1606B01213F
S214007218BDE8104018472046FFF7A2FF04F1080013
S2140072282FF002FC2046FFF7B5FFEDE710BD00BFC4
S214007238871B040010B50446F8B1104815F088F905
S21400724800236371A3796BB921792088B1FA81F19B
S21400725849092FF008FB236B7BB1606B0021BDE862
S214007268104018472046FFF77BFF04F108002FF070
S214007278DBFB2046FFF78EFFEDE710BD921B0400F0
S21400728810B5044668B1074815F062F963792046D8
S2140072981BB1BDE81040FFF7CDBFBDE81040FFF7B3
S2140072A8A5BF10BD9E1B040010B50E4C0E48214607
S2140072B815F04EF982210D4815F04AF98221022070
S2140072C8A21E00F067FF014630B134F8022C0848C9
S2140072D8BDE8104015F03CB90648BDE8104015F06A
S2140072E837B900BFD2560020AD1B0400C81B0400E7
S2140072F8D31B0400171C040038B5114C8221224603
S214007308022000F037FFA51C014688B122880D48E8
S21400731815F01EF92A460C4B03F12C0153F8040B02
S2140073288B4242F8040BF9D11B7813702C23238068
S21400733835F8021C054A0648BDE8384015F008B975
S214007348D0560020221C0400A21C0400D25600209E
S214007358801C0400034B1B781BB18B4201D82FF00E
S21400736854BB70479C6E0020F8B51E4B1E4F1B780A
S214007378A3B11E4D1E4C2B785BB11E4B5B7943B1F7
S21400738800211D4B4FF60C721878297021702FF0CB
S21400739878FB1A4B1B883BB900232370B96818483A
S2140073A8BDE8F8402FF03BBB7A6A9A42F4D32378BC
S2140073B8FF2B10D12E78002EF0D10E48FFF73AFF9B
S2140073C801232B700C4B4FF60C723146187826703A
S2140073D82FF057FBE2E70133DBB2022B2370DDD92F
S2140073E8E8E700BF425E002008100020455E002047
S2140073F83B5E00202C21002078170020546E0020C9
S2140074085017002010B5044601460E4815F0A0F89F
S214007418012C11D10C4B0D481A884FF6FF739A426F
S2140074281EBF0022094B5A742FF003FA01F03AFFE8
S214007438BDE8104001F00CBE0448BDE810402FF02F
S214007448FAB900BFCF1C04004C6E0020B0680020BC
S21400745870B50024254D264E3378A34225DC00243B
S214007468244D254E3378A34225DC0024234D244E94
S2140074783378A34225DC234C237833B1224D2846A3
S214007488FFF7FCFD18B30023237001F00BF8012862
S2140074981E4828D12FF0CDF901F004FF01F0D8FDE1
S2140074A8BDE870401A4801F01DB82846FFF7B4FC3E
S2140074B801346035D0E728462FF0A1F90134343579
S2140074C8D0E728462FF0D4F901343835D0E7114CE8
S2140074D8114BC4E90030204600F0A2FE2046A968F9
S2140074E82FF09DFAD1E72FF0A6F9D9E75C23002004
S2140074F8435E00207C270020445E00202C210020CC
S214007508425E0020405E002008100020B068002080
S2140075180D74000050170020717300002DE9F04F1D
S21400752887B0FFF7E9FEB94B05A805932FF0C4F915
S214007538054616F027F8B64CC2B21F2A627004D960
S214007548B44815F005F800F051FC2946A01C16F0C2
S214007558ADFA05A82FF0B0F9054616F013F8C2B232
S2140075681F2A84F8212001D9AB48EAE7294604F106
S214007578220016F09BFA05A82FF09EF9322604463C
S21400758800272578002D40F09D80A44CFFF760FF6B
S2140075982378DFF8D0A2DFF8D082A14F00939AF8BC
S2140075A8003098F8002039789E4814F0D1FF3A78D1
S2140075B898F800109AF8000053180344DFF89CB2B5
S2140075C820782C4603445846DBB2AA4200F31D83B3
S2140075D8012B38BF0123944E0293324600233546CA
S2140075E84FF482704FF6FF71029C0133A34213706A
S2140075F85080918002F10C02F6DB8C4B8A49844855
S214007608AB6001F037F8E879AB6800EB400003EBB5
S214007618800000F0F9FDEB790133EB71844B1B78A1
S2140076282BB18448844B8049436001F00DFC834BA2
S2140076381A884FF6FF739A4203D07B49804801F0B8
S2140076483DF94FF00009794C3A784A4500F3E5824F
S21400765800264FF00C097B4ADFF8CCB198F80000FA
S2140076683978B04200F3ED8246180C21002501FB5C
S21400767806B19AF800009423A842734A00F3FF82E2
S2140076880C253E7898F8003000274FF070081E4406
S214007698064405FB06B5DFF8D4A1604B1B78BB4251
S2140076A800F300830299604800F03CFE059B5749AA
S2140076B81A468B4240F00983644807B0BDE8F04F8D
S2140076C814F046BF532D0BD163784C2B40F04E81F7
S2140076D8A378502B40F04A815D4B01221A7011E0C6
S2140076E8442D18D16378303B092B0BD8601C2FF03B
S2140076F8F0F8584B584A1978002386B2994202F196
S214007708600204DC05A82FF0D7F8044639E722F80B
S214007718466C0133F2E7422D0BD16378542B55D1D2
S214007728A01C00F00FFD454B188018462EF0C5FF2C
S214007738E8E7582D34D8412DE4D9433D152DE1D836
S21400774801A353F825F000BF817B00000D770000E9
S2140077586F7A00000D7700000D7700000D770000A7
S214007768C77800000D7700000D77000079780000D4
S214007778BB7700000D7700000D7700000D7700003E
S2140077880D770000F9790000757900000D77000084
S2140077980D7700000D7700000D770000977A00003F
S2140077A8692DAFD1601C2FF094F880B22FF029F91C
S2140077B8A8E71B4B012019780023284A994202F1B2
S2140077C8A8029FDD02F8A60C0133F7E7601C00F05C
S2140077D8B9FC0546E01C2FF0F4F8012102462846BD
S2140077E82FF0ABF860211B481B4C037859436218EE
S2140077F865524FF4FA6111824FF448715161184985
S21400780856831165013303707CE700BFD25600200B
S21400781894670020EE1C0400051D04003D5E002051
S214007828415E0020151D040078170020F017002080
S214007838405E00207C1D0020081000204C6E0020B2
S214007848001700207C1C0020C01A0020651D0400BC
S2140078583C5E0020435E00205C230020801E002043
S214007868AB6803003E5E00203F5E002070190020D3
S214007878601C00F067FC00224FF034088146AE4FCB
S21400788811462FF05AF83878AC4D08FB00F325F867
S2140078980390EA18E3781046693B18BF01239370F3
S2140078A82EF0ADFF0021A64A3B785160012103FB6C
S2140078B808550B443B7015600F46117422E7601C90
S2140078C800F040FC0022114681462FF036F834229C
S2140078D8994DDFF86882287802FB00F328F80390B1
S2140078E808EB0301E3780846693B18BF01238B7051
S2140078F82EF085FF934A00231046916B31BB00EBB0
S214007908831034232A7802FB038383638E4A00237A
S2140079181046D2F8A410F9B9A82202FB03003423B3
S2140079282A7802FB0383C0F8A4305FB9844A3B4632
S214007938114652F8040BA8B93422287800FB0282B4
S21400794841F823202B7801332B70DBE60133042B18
S21400795802F14002D1D1D9E70133042B02F1A80283
S214007968D7D1E2E70133042BE3D1EBE7601C00F044
S214007978E9FB8046E01C2FF024F801210246404629
S2140079882EF0DBFF60217148714D0278DFF8E0C108
S21400799851436B1825F801804FF4487119825961D4
S2140079A86C495E839965E178A824642904BF01219F
S2140079B899709CF80030DFF890E15C430EEB040108
S2140079C80EF804304FF400744C8003240C718C714C
S2140079D802EB420405EB441532240133DBB20132D4
S2140079E84B718D6081F8A04002708CF8003089E6F3
S2140079F8601C00F0A7FB00224FF0380A8146DFF82B
S214007A086C8111462EF099FF98F80030524D0AFB0B
S214007A1803F325F803904FF00109EA1882F804905A
S214007A28E37873B1E01C00F08DFB00220446114693
S214007A382EF083FF98F800300AFB03535C8083F827
S214007A48069046483F4A03789901535498F8001020
S214007A5802EB8314C1EBC10205EBC2054A1C656341
S214007A6888F80020CEE6601C00F06CFB3C4D2880B1
S214007A78E01C00F067FB6880601D00F063FBE3799C
S214007A88A880693B18BF0123AB71364B25E6601CFE
S214007A9800F058FB8046E01C00F054FB0546601DCD
S214007AA82EF08FFF04460246012140462EF045FF81
S214007AB82246284601212EF040FF60204FF4487CDD
S214007AC8DFF888E0224A9EF8003000FB03F422F82C
S214007AD80480DFF880801119A1F810C0C1F814C01E
S214007AE84E83C1F85880591CC9B248431418A4F8E4
S214007AF810C0C4F814C06683C4F85880942415527D
S214007B08194D981C8EF800002878DFF868C04443A2
S214007B1803EB430301EB41010CEB040E02EB4313AA
S214007B2802EB41120CF80400CEF80430CEF8082018
S214007B3801302870E6E500BF445E00207C27002060
S214007B48B06800207C1C0020801E0020435E0020B9
S214007B585C2300205D7300002C2100203F5E00207F
S214007B6808100020405E00203E5E0020425E002096
S214007B78415E0020C01A0020601C00F0E3FA804630
S214007B88E01C00F0DFFA00220546114640462EF0BB
S214007B98D4FE00223824114628462EF0CEFE4F4842
S214007BA84F4A03784FF0000E04FB03FC22F80C80C3
S214007BB84FF0010802EB0C0181F806E081F804801A
S214007BC803EB0801C9B24C4302EB040C15539C1C8A
S214007BD804707024434D8CF806E028788CF80480EE
S214007BE84443DFF808C1C3EBC303C1EBC1010CEB88
S214007BF8040E02EBC30302EBC1020CF80400CEF835
S214007C080430CEF80820404493E7467901358E4282
S214007C1884BF04714471A830D7E4B9F1000F06D0C8
S214007C2816F8052C02EB420204EB8204B4603146D7
S214007C38584601F00BFD09F101090BF1A80B0C36AB
S214007C4802E571180AD0481E09FB00B0C07900EB9F
S214007C58400004EB800409FB01B08460104609FB71
S214007C680151039201F0B0FA39781F48314409FBF4
S214007C78015101F0CFF8039A01364032EEE4F5429E
S214007C8818BF11F8050C03911EBF00EB400004EB6B
S214007C9880048C6003FB052000F0D4FF03990135AF
S214007CA80C31E6E4F74218BF15F8053C29461CBF18
S214007CB803EB430304EB830408FB07A018BFAC6080
S214007CC800F096FE01370C35E7E413F8011D00298D
S214007CD87FF4EDAC3B2102F8011CE8E4425E00208C
S214007CE82C2100203D5E0020202100207019002055
S214007CF807B5012121200DF1050200F03BFA18B95D
S214007D089DF80520074B1A70022123200DF1060264
S214007D1800F030FA18B9044BBDF806201A8003B0F4
S214007D285DF804FB9C6E0020546E002007B5064BD9
S214007D388DF80700187001210DF10702212000F0C8
S214007D4829FA03B05DF804FB9C6E002007B5064BC5
S214007D58ADF80600188002210DF10602232000F077
S214007D6819FA03B05DF804FB546E002007B502212B
S214007D7801200DF1060200F0FDF938B9044814F0A8
S214007D88E7FBBDF8060003B05DF804FB0020FAE741
S214007D98821D040007B50221ADF806000DF10602A3
S214007DA8012000F0F7F9014610B1034814F0D0FBA3
S214007DB803B05DF804FB00BFA31D040010B5FFF771
S214007DC8D5FF04460146074814F0C2FB01210648C1
S214007DD814F0BEFB24B9BDE810400120FFF7DABF57
S214007DE810BD00BFD31D0400E51D040008B50448F7
S214007DF814F0AEFB00F0DEF92EF007FE2EF002FEC1
S214007E08FB1D040038B50446084D094B28462B6070
S214007E1800F006FA002C18BF21462846BDE8384070
S214007E2808BF4FF496712EF0FABD00BF80280020D8
S214007E38F96803002DE9F043394D93B008AC0746BE
S214007E48894690460FCD0FC40FCD00260FC495E87F
S214007E5803000323012584E80300324C3248CDE9A9
S214007E680366CDE905668DF80E300796029539F05B
S214007E7860FB2E4839F05DFB32462D4920468DF8CA
S214007E88176004F083FF334632462A498DF81900F6
S214007E98009020468DF82390CDF82C808DF8216030
S214007EA804F08EFF0A9020468DF8097004F0EEFE66
S214007EB8204608AA05A904F0A9FF02AA204603A995
S214007EC82FF09AFE4FF400721B4B5A62194BE5606E
S214007ED8626A920510D46BB94FF40072164B1148BB
S214007EE85A6204F0D3FE114839F026FB002013B07E
S214007EF8BDE8F083013BEBE7002BEDD0094908A865
S214007F082FF0ADFE4FF400720B4B06485A6204F091
S214007F18BDFE064839F010FBBDF82000E7E700BFB5
S214007F2800B504000040005A50B704004CB70400DF
S214007F3880841E0040420F000060005A0122034B56
S214007F481870034B1980034B1A707047475E002061
S214007F58566E0020465E0020F8B5454B1B780BB9D8
S214007F680020F8BD434B1B78012B03D1BDE8F84031
S214007F782EF0C1BC404B1C884FF6FF739C42EFD0D6
S214007F883E4839F0D6FA0023260AE4B21A462146B5
S214007F98304604F03BFE012E354604F0010335D08A
S214007FA815D9B51E012DDBD8002B0BBF4FF48075F5
S214007FB84FF080754FF470614FF070610BBF01276A
S214007FC84FF480370F204FF470202D4B11E0002B14
S214007FD80BBF4FF480754FF080754FF470614FF00B
S214007FE870610BBF01274FF480370F204FF47020C5
S214007FF8244B1A6802401CD0BA421AD01A680A40A3
S21400800832D11A6822EA01022A4316E0002B0BBF77
S2140080184FF480754FF080754FF470614FF07061C3
S2140080280BBF01274FF480370F204FF47020164BF4
S214008038DFE71A6822EA00023A431A602EF05BFC71
S214008048054600288CD0083644EA06102A4603213E
S214008058C0B2FFF7EFFE40F6FF73684300F2FF700A
S214008068B0FBF3F080B27CE795427FF479AFC8E7BF
S214008078465E0020475E0020566E002050B704007B
S21400808828C3035020C3035024C3035010B5044C20
S214008098237823B9034839F04CFA0123237010BD1E
S2140080A8495E002050B704002DE9F0431F4C85B008
S2140080B8074688469146FFF7E9FF23781BB902F082
S2140080C84BF8012323707BBAADF80C30302200231E
S2140080D8174E02FB03F4315DA51901BB0123335586
S2140080E84FF0FF3304F1100012493044AB606F8044
S2140080F8C5F80480C5F80C9009F026FB04F10801C1
S214008108042231440C4B009503A802F0FBF8A9683A
S21400811802460A4814F01CFA05B0BDE8F08301339D
S214008128102BD6D1064814F013FAF5E7485E00205F
S214008138A82800202369030035690300081E0400E8
S214008148361E040080B10278A2F14103032B0BD837
S21400815840783038C0B2082806D8054B134413F8C0
S214008168413C40EA032070474FF6FF70704700BF57
S21400817828B5040008B50B4642B101460448006815
S21400818803F008FABDE808402EF035BC022008BD0A
S2140081981C69002008B50B4642B101460448006831
S2140081A803F080FBBDE808402EF025BC022008BD81
S2140081B81C690020F0B50026124F8DB0FF230093EF
S2140081C80A223346386802A92FF0BBFAC0B102ABC0
S2140081D81D4603EB800404E055F8043BB34228BF71
S2140081E85E1CAC423868E9D9296803F0E1FC00282F
S2140081F8F2D02D28F0D00DB0BDE8F0402EF0FBBB35
S2140082080DB0F0BD1C69002028B1034B0360034B7A
S214008218436000238360704719000003C468002089
S214008228FF2307B50021044A0093083009F010FA26
S21400823803B05DF804FB00BF216A03000B4604493F
S214008248024608680349097808B12EF0F8BB70475B
S214008258B42B00204B5E0020F7B50C4618B1292138
S214008268194839F0CCF9246823685E795F88304667
S2140082783946FFF7E3FFF0B18568E5B1A089227DAE
S2140082883946904291BF0020801AA36880B294BFF6
S21400829803469B18E27C00903046A847013803281E
S2140082A803D8DFE800F0080F0B0D0024204632F054
S2140082B8FBFB204600E0812003B0F0BD8024F5E7F4
S2140082C89324F3E78724F1E75E1E0400F8B5154605
S2140082D80D4A044610680D4A0B46117850B12246DE
S2140082E82EF0ADFB034628B100210C27C678B14214
S2140082F801DB0020F8BD07FB01F45A681019125B71
S214008308AA42F7D00131F2E7B42B00204B5E0020DA
S21400831808B5034B1B6803B19847002008BD00BF8B
S214008328B02B00202DE9F74F04460D460026454B96
S214008338454F1860454B197033010021F85C01362B
S2140083480FF0DCFF0C2EF7D10C2D28BF0C254FF0B4
S214008358000901953C4EDFF800A13D4DDFF8FC8092
S214008368019B4B4502DC03B0BDE8F08F23784FF045
S214008378000B337063887380A388B380A379C6F82C
S2140083880880B371E379C8F8005088F804304FF0D5
S2140083980003A768A8F80630E3795B450ADC0121E4
S2140083A816F8100B0FF0AAFF08F1080809F10109E2
S2140083B80C34D5E74FF0000338886B812880FB78AB
S2140083C84FF0000C2B81BA78C5F804A0002A00925A
S2140083D80CBF802240222A7379680AF10C02634592
S2140083E813DC03EB43030AEB830ABB6843B1009A2A
S2140083F84FF6FF71B2FA82F2164B520932F0E4FADF
S21400840814350BF1010B0C37C6E7B1F800E00CF198
S214008418010C22F80CEC91F802E00C3202F816EC8B
S21400842891F804E00C3102F815EC11F809ECBEF1ED
S214008438010F14BF4FF0100E4FF0110E02F814EC97
S214008448CDE700BFB42B00209C4200204B5E0020E6
S214008458B831002061820000B82B00203834002094
S214008468014B1860704700BFAC2B002070B512880F
S21400847805460E46FFF72AFF044670B102790499AE
S214008488806815F0D5F9064B1B680BB9002070BD3F
S2140084983146284622889847F8E78620F7E700BF3F
S2140084A8AC2B002008B50EF0C5FF022806D0012820
S2140084B806D0044B18784000C0B208BD0120FCE77F
S2140084C80220FAE74A5E0020054B10B51C682CB15E
S2140084D8FFF7E8FF2346BDE81040184710BD00BF69
S2140084E8A82B0020014B1860704700BFA82B00205F
S2140084F8034B1A781AB901221A700AF0A1BF7047FE
S2140085084A5E00200022024B1A70FFF7DDBF00BF4C
S2140085184A5E002037B50446002836D00EF08AFF9B
S214008528022834D1608932F03CFEE079237A00389C
S21400853818BF0120012B637A08BF40F008000BB172
S21400854840F0100063890BB140F00400257CA18838
S214008558A2790DB1E36893B90F4B10F0ABFA217806
S214008568084610F023FB32F028F9044610F0DCFA2F
S2140085787CB100280CBF0020032003B030BDCDE935
S2140085880035064B10F096FAE9E70220F5E70120D9
S214008598F3E72046F1E700BFF46B0400F73A04005F
S2140085A808B50DF0ABF8014630B1044813F0D0FF1B
S2140085B8BDE808400DF046BC08BD00BFD01E04004C
S2140085C8034B044A5B7C012103201370FFF7E2BDCE
S2140085D8B06800204C5E002010B50446FFF7F0FF98
S2140085E8B4F57F4F0BD10024144B1A8813449C70A3
S2140085F8FEF75AFE2046BDE81040FFF703BC4FF6CC
S21400860801739C4204D1BDE810400D482EF0F9B81D
S2140086184FF602739C4205D1BDE81040094B187806
S214008628FFF784BB4FF60B739C4205D1BDE810409C
S214008638054B1888FFF78ABB10BD00BFD056002030
S214008648B06800209C6E0020546E002010B5074CC1
S214008658012122460320FFF78DFD28B92378044A16
S214008668003B18BF0123537410BD00BF4C5E0020AA
S214008678B0680020F8B5624B624D1A884FF6FF7353
S2140086889A421CBF03232B7008235F4A32241370B8
S214008698302393705371D37134235470D4703624B6
S2140086A813724FF40013147139244364574B9471B2
S2140086B8C364574B01240365564B06198365564B0E
S2140086C8C667C365554B564E4366564B80F84840BA
S2140086D88366554B80F854400367544B80F86040D7
S2140086E84367202380F8783080F8843000F121032F
S2140086F8C0F888304E4B80F86C40C0F88C30C0F814
S214008708806080F89040C0F894504A4D4A4BC0F8B4
S214008718AC504A4DC0F89830C0F8B050092580F8DB
S214008728B450474D474BC0F8C450474DC0F8B82022
S214008738C0F8C8508225454AC0F8A430C0F8BC2006
S2140087480F23022280F8CC50414D80F89C40C0F898
S214008758D050404DC0F8A000C0F8D4503E4D80F828
S214008768A830C0F8DC503D4D80F8C0202D7880F841
S214008778D840002D40D080F8E420394A394DC0F85A
S214008788E820394AC0F8E050C0F8EC20374A80F8AC
S214008798F040C0F8F420364C227C62B10C2202FB72
S2140087A80302344D01335564012582F8485004F11C
S2140087B81105D564DBB24FF0000CCD798E6805EB59
S2140087C84502970006EB820226F807C0D3700123FD
S2140087D844309370EB185060CB71FFF789FAFFF7B7
S2140087E835FFFFF75FFE012808D1237C33B1BDE8CB
S2140087F8F8401F482EF005B80D23CCE7F8BD00BF9B
S2140088084C6E00209D6E00204D5E002041B5040091
S2140088180100200040B50400020020003FB5040017
S21400882805004200030020003EB504000400420094
S214008838070030002CB504001200100106004200A4
S2140088483CB504000040420000FF4401FDFF210043
S214008858D056002002FF20019C6E0020405E0020BB
S214008868546E00200BFF21010CFF1000455E00200F
S214008878B068002001FF100113B504460D482DF01E
S21400888827FF6422C0F30F43637083B2B3FBF2F38F
S214008898A0782370202201212EF0F3F8A078212258
S2140088A801212EF0EEF80449201D02B0BDE8104064
S2140088B82EF0B5B84C6E0020E09304000B7870B527
S2140088C883704CF61E0303804FF02013C362012307
S2140088D880F8303080F83C30C3180364124B0446E6
S2140088E843640223114A80F84830114B8263C364FC
S2140088F84063CA798D6802EB420305EB830004F1F6
S2140089082C0646600B4E45F8236000238360531CF4
S214008918CB71094B201DC4E90134FFF781FC2046C2
S214008928BDE87040FFF7A8BFFDFF2100210020002A
S21400893842B504000100010381880000437B044A15
S2140089480121137000781130C0B2FFF723BC00BFB6
S214008958575E002038B504460078054D11302A4683
S2140089680121C0B2FFF706FC08B92B78637338BD3F
S214008978575E0020024B53F820002EF049B900BF7E
S21400898898340020012908B506D0022907D049B92D
S2140089982EF035F9002008BD2EF034F9FAE72EF04F
S2140089A834F9F7E7024813F0D3FD0120F3E700BFD8
S2140089B8FD1E040010B4054C114654F820001A4653
S2140089C8BDF804305DF8044BFFF7DCBF9834002090
S2140089D8002310B5044683810364A0F84430483069
S2140089E8FFF71EFC014BC4E9123410BDFF6B0300F1
S2140089F838B504460B781A4A43700D4642F82300E9
S214008A08FFF7E6FF2046FFF7A5FF4FF44013236164
S214008A180123144A2375A261134A84F82030E261C0
S214008A28124A84F82C306262114A84F83830A262FE
S214008A3804F10C0222630F4A04F10D036263E36338
S214008A48EA79A86802EB420300EB830110344C6015
S214008A58094C40F82340094B8B60531CEB7138BD1A
S214008A6898340020565E0020080020009E6E0020E5
S214008A7800FF300001FF100102010104BD8900005B
S214008A8810B47024427B0D48013A012904FB020009
S214008A9806D0022908D059B95DF8044B2EF0AFB8B5
S214008AA85DF8044B2EF0AEB85DF8044B2EF0ADB86A
S214008AB803485DF8044B13F04BBD00BF7019002047
S214008AC8191F0400B0F85C302DE9F0418B420446CB
S214008AD80E4638D0437B077C8BB31C4A12789A42E2
S214008AE82DD370251A4A013B05FB032390F80F8007
S214008AF81B7B42462EF09AF8B845054601D1FF285A
S214008B081FD13A463146204694F890302EF08EF81B
S214008B182F460546552212216078A4F85C602DF091
S214008B28B0FFFF2F03D039462046FFF7A9FFFF2DD9
S214008B3809D029462046BDE8F0412EF0B7B8FF25F3
S214008B48DFE70746E6E7BDE8F08100BF3D5E0020A8
S214008B587019002041688268C978D27849B112B184
S214008B680321FFF7AFBF837B002B0CBF0121022137
S214008B78F7E72AB1837B002B0CBF02210121F0E71F
S214008B88014813F0E5BC00BF2A1F0400037BD3B1DD
S214008B984368DA7812B18268D278A2B91B7933B101
S214008BA8837B002B0CBF04210521FFF78BBF83684E
S214008BB81B792BB1837B002B0CBF05210421F4E71E
S214008BC8014813F0C5BC70475C1F0400084A437B85
S214008BD805211370837B5370C37B9370037CD3701B
S214008BE8037B137100780E30C0B2FFF7D3BA00BF0C
S214008BF8585E002038B5044600780C4D0E302A46DC
S214008C080521C0B2FFF7B6FA20B1BDE838400848DB
S214008C1813F09EBC2B7863736B78A373AB78E373FF
S214008C28EB7823742B79237338BD00BF585E002079
S214008C38981F0400024B53F820002EF081B800BF9E
S214008C48C0340020F8B504460B78424A43700D46F7
S214008C5842F82300404E2EF091F8FFF7CBFF6268EB
S214008C68A3683E483E49D6641165D4655065C3E995
S214008C781410DE64DC654FF09873022663610123E6
S214008C8804F10C01E16137491032216204F10D014B
S214008C98A16235492376E16204F10E016163334926
S214008CA884F82430A16304F10F012164304984F864
S214008CB83030616404F11001E1642E4984F83C30D8
S214008CC884F84830216584F85460A265E879A96874
S214008CD800EB400201EB820704F1140CC7F804C04D
S214008CE84FF4817C244F41F82270C218D2B202EBAE
S214008CF8420241F822C001EB820700227A601F4A2E
S214008D0884F8703022661E4A84F88830A2661D4AA7
S214008D181D4BE2661D4AC4F88C3062671C4A8319EC
S214008D28A26704F15C02C4F88020DBB2194A03EBA0
S214008D384303C4F8842084F8646084F87C6001EBFC
S214008D48830260345460144A033041F82320E871E3
S214008D58F8BD00BFC03400205D8B00000B6D03001B
S214008D68958B00000100200102001001030030016D
S214008D78040030010500210101FC01064A0021001B
S214008D8844B504005100100046B5040047B5040079
S214008D98550021006F0018001200010470B50D463A
S214008DA80646144613460A460146164813F0D0FBF4
S214008DB825B92046BDE87040FFF70EBC072D05D143
S214008DC821463046BDE8704000F004BC4FF601432B
S214008DD89D4205D121463046BDE87040FFF72ABFC0
S214008DE8062D05D121463046BDE8704000F0A6B9EC
S214008DF8B5F5817F05D121463046BDE87040FFF7BE
S214008E08B9BD70BDC71F04000148FFF729BB00BFE6
S214008E18A58D00004FF4C01330B50360012303711D
S214008E28074B8C688360CA7902EB420304EB830520
S214008E386860044844F82300531CCB7130BD00BF5B
S214008E4848B50400040001010B786E4A037001233C
S214008E58836003F52023C0E90423C3604FF4D813C6
S214008E6883610423037700F108030362664B4268B4
S214008E7843620223F0B502F11C04C462634C80F816
S214008E882830046302F11E048463614C80F8343091
S214008E98C46302F1200444645E4C80F84030846465
S214008EA800F10C0404655C4C80F84C30446500F115
S214008EB80E04C465594C80F85830046600F1100456
S214008EC88466574C80F86430C46600F11204446720
S214008ED8544C80F87030846700F11404C0F8804061
S214008EE8514C80F87C3080F8883000F11603C0F8C2
S214008EF88440C0F88C30CD798C6805EB450304EBCC
S214008F08830600F118077760484F00F1900C44F884
S214008F18237000246B1CB460CB712346D2F830E073
S214008F2800F18F07C3F12006A3F120052EFA03F2FD
S214008F3804FA06F6324324FA05F508332A43302B9A
S214008F4807F8012FEED101234FF47A72C0E92632D2
S214008F582B22A0F8A0204FF41412C0F8A420062252
S214008F6880F8B43080F8C03080F8E43080F8F0300C
S214008F7800F1A103C0F8F4302D4B0025C0F8C83026
S214008F88032380F8A8202B4A80F8CC30C0F8B020FD
S214008F9800F19602C0F8B820274A80F8D830C0F802
S214008FA8BC2000F19702C0F8C42000F19802C0F86F
S214008FB8D02000F19C02C0F8DC20204AA0F8965089
S214008FC8C0F8E02000F1A002C0F8E8201C4AC0F86B
S214008FD8ACC0C0F8EC201B4A00F1A407C0F8D420A7
S214008FE8CA798E6802EB420306EB83046760164F65
S214008FF846F82370531CA560CB714368134AC3E92F
S2140090080D20F0BD0100E803050521000805210034
S2140090180B05290000062100010621000206210092
S214009028030621000406210005062100040B010A98
S2140090380103220000021800000330000303180092
S214009048060318000203220002070107A56D0300A5
S21400905838B50024044D55F8040B08B12DF0F1FE80
S21400906801340A2CF7D138BDE8340020042908B5A5
S2140090780AD172B16BB113781BB92DF00DFF002021
S21400908808BD2DF0FFFEFAE7034813F061FA012049
S214009098F6E70320F4E700BFFA1F040010B4054CF7
S2140090A8114654F820001A46BDF804305DF8044B03
S2140090B8FFF7DCBFE83400200229024608B50ED0C8
S2140090C804D839B910462DF0E7FE06E04029F9D055
S2140090D8412907D110462DF0D5FE002008BD2DF0F9
S2140090E8E5FEFAE7024813F033FA0120F6E700BF78
S2140090F81A20040010B4054C114654F820001A46ED
S214009108BDF804305DF8044BFFF7D6BFE8340020FE
S214009118426B094B52791A7082785A70C2789A70E4
S214009128826B12B190F83C20DA700078042109307E
S214009138014AC0B2FFF72EB85D5E0020024B53F816
S21400914820002DF0CFBE00BFE834002038B5044616
S2140091580078084D09302A460421C0B2FFF70AF8FD
S21400916830B96B78A370AB78E370EB7884F83C3052
S21400917838BD00BF5D5E002038B504460078114D46
S21400918809302A460421C0B2FEF7F4FFC8B9A3780E
S2140091982A78022B0CD004D863B920462DF07CFE22
S2140091A801E0FF2B0AD02046BDE838402DF049BE26
S2140091B8002AF2D120462DF065FEF4E7002AF9D100
S2140091C8EBE738BD5D5E0020F8B504460B78284A04
S2140091D80D4642F823004370FFF7B8FF636B254A35
S2140091E85C631A632046FFF7C7FF20462DF029FE6A
S2140091F84FF4801363600123626BA66B0532E2604E
S2140092081D4A23722261A21C2375A26166B11B4AFD
S21400921884F82030E261E21C6262194A84F82C3035
S21400922804F13C03A26223630627EA79A96802EBE5
S2140092384203002E21F8237001EB83000CBF0223A3
S2140092480423C370012383700E4B04348360531CBD
S2140092584460DBB20C4C03EB430341F8234001EBBC
S214009268830000234360094B02328360EA71F8BD2D
S214009278E8340020C96E03000340300101FF3001C6
S21400928802FF1001FD90000008000100A5900000F4
S21400929828B1034B1B78834234BF00200120704757
S2140092A83F5E002070B500250A4C0B4E3378AB4263
S2140092B800DC70BDD4F8A42042B123791BB16079D4
S2140092C8FFF7E6FF10B910462DF08CFA0135A834E2
S2140092D8ECE700BF801E0020415E002008B54279FA
S2140092E801461046FFF7D4FFA8B1CB780A48013AE2
S2140092F8042B00EB82100ED8012B08D81BB9BDE84A
S21400930808402DF0BFBDBDE808402DF0C5BDBDE83E
S21400931808402DF0CBBD08BD7C1C002008B542795E
S21400932801461046FFF7B4FFA8B1CB780A48013AC1
S214009338042B00EB82100ED8012B08D81BB9BDE809
S21400934808402DF0A9BDBDE808402DF09BBDBDE83E
S21400935808402DF0ABBD08BD7C1C002010B586B0BB
S2140093680446FFF79FF8012830D1E278042A2DD862
S214009378DFE802F013323403030061790846FFF78A
S21400938887FF58B31648032A00EB811050F80C3CA8
S21400939858791DD1003818BF012063784FF48072C1
S2140093A88DF804304FF48273ADF806300623ADF816
S2140093B8083001238DF80B3000238DF80A0001A829
S2140093C8CDE903238DF81430FFF7A4F806B010BDD6
S2140093D8B0FA80F04009E0E70020DEE70220DCE78C
S2140093E87C1C002010B586B00446FFF75BF8012801
S2140093F830D1E278042A2DD8DFE802F013133203BE
S214009408030061790846FFF743FF48B31548032A67
S21400941800EB811050F80C3C5B791DD11A1E18BF62
S214009428012263788DF80A208DF804304FF4827391
S214009438ADF806300623ADF8083001234FF48072E5
S2140094488DF80B30002301A8CDE903238DF81430DE
S214009458FFF760F806B010BDB3FA83F25209E0E7EA
S2140094680222DEE77C1C002010B586B00446FFF713
S21400947819F8012812D16378094A8DF804304FF498
S2140094888273ADF806304FF48073CDE902230023CB
S21400949801A804938DF81430FFF73CF806B010BD09
S2140094A80800070110B586B00446FEF7FBFF012842
S2140094B820D16278104B8DF804204FF4827294F80D
S2140094C8A01094F8A10059701870ADF806200493FF
S2140094D84FF480720223094901A88DF81430CDE9AB
S2140094E80212FFF717F894F8A130013B18BF0123C2
S2140094F884F8A13006B010BD615E002008000501A2
S21400950810B58378044603B30379022B0AD142794F
S2140095181046FFF7BDFE28B10C48013A00EB821052
S2140095282DF0C4FCA379022B02D12046FFF716FFC4
S2140095382046FFF7B7FF02236078A4F86C30552260
S214009548BDE8104012212DF09CBA10BD7C1C0020EE
S2140095584388094A082113808388538083681B8AB6
S214009568938090F8A03093718379D3710078043093
S214009578C0B2FEF70FBE00BF5257002038B50D46E2
S21400958804460178114812F0E3FF4FF602739D4235
S2140095980ED10F4B1B782BB963712046BDE83840B7
S2140095A8FFF7D6BF62790AB19342F6D20123F3E7F2
S2140095B8B5F57F4FF1D120462DF011FDA378022B8B
S2140095C80CBF01220022A3689A70E6E73620040042
S2140095D83F5E0020024B53F82000FFF7CFBF00BFC6
S2140095E81035002038B504460078144D04302A4655
S2140095F80821C0B2FEF7BEFD20B1BDE838401048CD
S21400960812F0A6BF2B8863806B88E978A380AA88A7
S214009618A3681A82AB7984F8A030EB79A371094B5A
S2140096281B780BB9637138BD09B19942FBD9064856
S21400963812F08EFF23780133F4E700BF525700205C
S214009648502004003F5E002079200400F8B5044648
S2140096580B78474A0D4642F823004370FFF7C2FFCF
S214009668A268444BD465D364434B02265365434BE8
S214009678A11C13654FF44013E36001236161E162A6
S2140096883F49103221632265211D3E4AA1633E48A8
S2140096983E49626504F1A002A061E163E265E01C50
S2140096A8611D3B4A206261643A483B492266A21D16
S2140096B82374237784F8283084F8343084F84030CC
S2140096C8A16484F84C6084F8583084F8643060628A
S2140096D8A266E879AA6800EB400102EB810704F16C
S2140096E80C0CC7F804C04FF0060C2C4F42F821703B
S2140096F8C118C9B201EB410142F821C002EB81074B
S21400970800217960264F84F880302767254F84F833
S2140097189830A767244F254BE767254F84F8746071
S21400972884F88C60C4F89C3004F16C06831CC4F87A
S2140097388470C4F890601F4F1F4EDBB203EB4303E0
S214009748C4F89460C4F8887002EB830670347460BA
S21400975808261A4C42F82340C31CDBB203EB43032B
S21400976802EB8304043042F823606160E871F8BDB8
S214009778103500203D6F0300876F03000995000031
S21400978801FF300104FF20011000300102FF200114
S21400979805FF300100FF300103FF21010700010823
S2140097A84A0021004AB50400510010004CB50400D8
S2140097B84DB50400550021006F0018001200010482
S2140097C800239B6AB3F5C04F03D21968064A914234
S2140097D803D00023037083607047012202709A68E2
S2140097E89B694260F7E700BF07B0CD5E024B034AAD
S2140097F81A602EF044BE00BF0000002002020FF0E0
S21400980873B5534B04461A781AB102221A7002B07E
S21400981870BDCDE900220028F9D001261E7037F069
S21400982867FE4C4D4C4B186017F094F82B785BB9D4
S21400983802F062FA40B949480823494A494900688B
S21400984801F0A8FE00B92E70474B5A6E62619B6EF7
S214009858464AA3614FF40043936603F18843596868
S214009868E16143499960196E2160596E6160D3F8C9
S2140098787011A160196CE160596C21613D49086C52
S2140098881864496C5964012151664FF40051916679
S2140098981A6E560436D53849CA68D407FCD45B6EA7
S2140098A85A0434D5354AD36B13F0430FFBD1344BE7
S2140098B81A68531C31D04FF400139340314A13668C
S2140098C80423304C684623664FF4806323661023CF
S2140098D823664FF4005323664FF0804323664FF405
S2140098E8804301A963662DF092FB009B2366019BCB
S2140098F863662B78002B8AD0194B1A6822665B6839
S214009908636684E72049CA68D007FCD4C7E71F4ABD
S214009918D36B13F0430FFBD1C9E71D4B1B78002B05
S214009928CED14FF48072114B5A661A4A52681AB949
S2140099384FF40011134A11664FF400725A66164B1C
S2140099485B68002BBCD14FF480020E4B1A66B7E753
S214009958645E0020655E0020583500201C690020E3
S2140099685C35002000710800008000500090005010
S21400997855CEAC0000C00054000004400000024C65
S214009988E868002000900044000004500000025CD4
S214009998635E002000C005500000065070B52C4DD0
S2140099A804462E78012E02D001232B7070BD0028A5
S2140099B8FCD02DF051FB01300BD02DF04DFB40F2C2
S2140099C80113984205D0234B234A5E66D368DE0708
S2140099D8FCD4224B22491B6E13F0040F4FF400539D
S2140099E814BF1C4A1F4A9366CA6B12F04302FBD187
S2140099F821681A4B196661685966A168C3F8701120
S214009A08E168196421695964E169C80748BF9A6022
S214009A18154B1A6801320DD1144A127852B91449F6
S214009A284968C90748BF1A60124A5268D20744BF35
S214009A3801221A606269104B5A66A2699A6616F085
S214009A4891FF0E4B186837F04EFD0023ADE700BFB8
S214009A58645E00200090004000000440008000443F
S214009A680000024C00900050E8680020635E00206A
S214009A7800C00550000006500080005058350020F1
S214009A8870B50024A36AB3F5C04F23D21A68134BE7
S214009A989A421FD1124E337813F0FD0518D14FF4B1
S214009AA880341048FFF7ACFE032004F0B9FC0E4BD8
S214009AB80320DC6004F098FC0C4B1C61AB6ADB6985
S214009AC8984704460748FFF769FF0CB90123337027
S214009AD8204670BD4FF48174FAE700BF07B0CD5E2C
S214009AE8635E00203835002000A000440090004443
S214009AF813B5204B1B7803B9FEE700231E4CCDE9AF
S214009B0800336A4608231D49206801F043FDF8B96A
S214009B181B4AD2F84031D2F840211F2B4FF00103E0
S214009B2811D9203A9340019A1A43019208236A46AB
S214009B381249206801F0B6FE124B134A1A602EF03E
S214009B489EFC02B010BD9340009A1A430092EDE7BF
S214009B582D28F1D10A4AD2F84031D2F840211F2BDD
S214009B684FF0010385BF203A93409340019398BF76
S214009B780093DBE7645E00201C6900200071080083
S214009B8800800044000000200B020FF038B50025C6
S214009B98AB6A0446B3F5C04F10D21B6BB3F5C04F83
S214009BA80CD20748FFF72CFEAB6A20461B6B5B6897
S214009BB89847BDE838400248FFF7F0BE38BD00BFFA
S214009BC86435002013B50024A36A0190B3F5C04F8E
S214009BD813D21B6BB3F5C04F0FD20948FFF710FE20
S214009BE8A36A01211B6B01A89B6998470446044891
S214009BF8FFF7D4FE204602B010BD4FF48174F9E793
S214009C086435002070B50026B36A0446B3F5C04F25
S214009C180D4612D21B6BB3F5C04F0ED20848FFF79D
S214009C28EFFDB36A20461B6B29469B699847044696
S214009C380348FFF7B3FE204670BD4FF48174FAE779
S214009C486435002070B50026B36A0446B3F5C04FE5
S214009C580D4612D21B6BB3F5C04F0ED20848FFF75D
S214009C68CFFDB36A20461B6B2946DB699847044636
S214009C780348FFF793FE204670BD4FF48174FAE759
S214009C8864350020F8B50027BB6A0446B3F5C04F14
S214009C980D46164611D21B6B7BB10948FFF7B0FD7F
S214009CA8BB6A20461B6B324629465B6A98470446C1
S214009CB80348FFF773FE2046F8BD4FF40174FAE731
S214009CC86435002070B50026B36A0446B3F5C04F65
S214009CD80D4612D21B6BB3F5C04F0ED20848FFF7DD
S214009CE88FFDB36A20461B6B29469B6A9847044635
S214009CF80348FFF753FE204670BD4FF40174FAE799
S214009D0864350020F0B50027BB6A0446B3F5C04F9B
S214009D180D461646ADF5177D20D21B6BB3F5C04F22
S214009D281CD21048FFF76CFDBB6A20461B6B40F23E
S214009D3851225B6A01A99847044630B10948FFF7E3
S214009D482DFE20460DF5177DF0BD836A32461B6B47
S214009D582946DB6A01A898470446EFE74FF40174E2
S214009D68EFE700BF6435002010B50024A36AB3F5FA
S214009D78C04F10D21B6BB3F5C04F0CD20748FFF785
S214009D883FFDA36A1B6B1B6B984704460348FFF707
S214009D9805FE204610BD0124FBE700BF6435002001
S214009DA8F0B58FB0044601A80E461546FFF7EEFE3E
S214009DB89DF80C30012B12D1B5F5002F27D8B4F535
S214009DC8002F24D86319B3F5002F20D821462A4639
S214009DD8304613F06BFE002420460FB0F0BD002777
S214009DE8BB6AB3F5C04F15D21B6BB3F5C04F11D283
S214009DF80A48FFF705FDBB6A2A461B6B3146204614
S214009E085B6B984704460548FFF7C8FDE4E740F251
S214009E180244E1E740F20114DEE700BF64350020A3
S214009E28F0B58FB0044601A80E461546FFF7AEFEFD
S214009E389DF80C30012B1FD1B5F5002F06D8B4F5C8
S214009E48002F03D86319B3F5002F13D940F2024444
S214009E5820460FB0F0BDE258013225D104339D42AA
S214009E68F9D82A463146204600F082F80028EDD078
S214009E780024EDE70023F2E70027BB6AB3F5C04FDE
S214009E8815D21B6BB3F5C04F11D20A48FFF7B8FCC2
S214009E98BB6A2A461B6B314620469B6B984704468E
S214009EA80448FFF77BFDD3E740F20344D0E740F2CF
S214009EB80114CDE76435002070B58EB0044601A8BD
S214009EC80D46FFF763FE9DF80C30012B22D144EABD
S214009ED80503C3F30C03002B33D1B5F5002F04D9C3
S214009EE840F2024420460EB070BDB4F5002FF7D8F5
S214009EF82544B5F5002FF3D8204604F5005400F0A5
S214009F0829F8AC4202D00028F6D1E9E70028E7D0C5
S214009F180024E7E70026B36AB3F5C04F14D21B6BDC
S214009F28B3F5C04F10D20A48FFF76AFCB36A294651
S214009F381B6B2046DB6B984704460548FFF72EFD4B
S214009F48D0E740F20444CDE740F20114CAE700BF68
S214009F58643500204FF4003208B5044B9A6637F093
S214009F686FFDB0FA80F0400908BD00BF00900050B1
S214009F78134610B562B103439B070BD14FF4003468
S214009F88054B9C6637F054FDB0FA80F0400910BDCA
S214009F980120FCE70020FAE700900050BFF34F8F3F
S214009FA80549064BCA6802F4E0621343CB60BFF368
S214009FB84F8F00BFFDE700BF00ED00E00400FA0584
S214009FC870B5D0B1C9B10E4E431E013913F8014F12
S214009FD82046325D02F00302012A11F8012F08BF5D
S214009FE804F12000B55C05F00305012D08BF2032FA
S214009FF8801A01D1002CE9D170BD0120FCE700BF12
S21400A00869DC04000348044A0449121A92102DF029
S21400A01888B800BF4061000018630000B0650020E3
S21400A02808B5154B83F30A8800F030F8FFF7EAFF07
S21400A038124B13498B4212D30020124B12498B4203
S21400A04818D3FCF76FFE186850F82240586840F896
S21400A0582240013298688242F5D30C33EAE70022A0
S21400A068F8E71C6844F8220001325C68A242F8D37C
S21400A0780833E4E70022F8E708000020B4180500D3
S21400A088C0180500C0180500C01805004FF40041A8
S21400A098134B144A70B59A60D3F88820124D42F4D0
S21400A0A87002C3F88820114A05F5005491664FF0EF
S21400A0B8FF3222664FF6DF7262660222C3F8D020AD
S21400A0C8BFF34F8FBFF36F8F4FF44036032004F073
S21400A0D8A7F90320E66004F087F92E6170BD00BF7B
S21400A0E800ED00E000600000008000440090005092
S21400A0F8054B1860054B1B6F03F00703032B01D1B4
S21400A10835F09CBA704700BFF86800200080005001
S21400A1182DE9F04104464FF001080C250D4E0CB908
S21400A128BDE8F08194FAA4F0B0FA80F00F2808FA97
S21400A13800F2C8BF103824EA0204CABF05FB006252
S21400A14805FB0062B4325768002FE8D09168C0B2A9
S21400A158B847E4E78435002008B50C4837F0E9F935
S21400A168192004F04FF928B1192004F059F91920DC
S21400A17804F03AF91A2004F045F928B11A2004F038
S21400A1884FF91A2004F030F9002008BD50B7040033
S21400A1982DE9F0410E461746054618B30F2923D871
S21400A1A80378DBB1013BDBB2022B19D8104AD35C2B
S21400A1B86A78D340DB0717D50E4BD3F81043ACB9F3
S21400A1C837F096F980463A462846314603F064F852
S21400A1D8404637F088F92046BDE8F0817F23E7E758
S21400A1E80023E5E72224F6E72124F4E70224F2E731
S21400A1F8A0B5040000C0035010B5044610B3037899
S21400A208E3B1013BDBB2022B1AD8104AD35C627862
S21400A218D340DB0718D537F06BF90122617823782D
S21400A2288A4030214B4341F2100103F1A04303F565
S21400A23870335A5037F057F9002010BD7F23E6E7F1
S21400A2480023E4E72220F8E72120F6E7A0B504007B
S21400A25810B5044610B30378E3B1013BDBB2022B1A
S21400A2681AD8104AD35C6278D340DB0718D537F083
S21400A2783FF90122617823788A4030214B4342F225
S21400A288100103F1A04303F570335A5037F02BF949
S21400A298002010BD7F23E6E70023E4E72220F8E746
S21400A2A82120F6E7A0B5040038B50D46044618B3D5
S21400A2B811B30378E3B1013BDBB2022B1AD8104A7C
S21400A2C8D35C6278D340DB0718D537F011F9302213
S21400A2D82378534303F1A04303F570335B69627830
S21400A2E8D34003F001032B7037F0FDF8002038BD8B
S21400A2F87F23E6E70023E4E72220F8E72120F6E7B5
S21400A308A0B504002DE9F0410D46164698460446C9
S21400A31800284FD000294DD00178002940D04B1E88
S21400A328DBB2022B3ED8254AD25C6378DA40D207E5
S21400A33801D4FF2940D1022E01D9042E3CD137F092
S21400A348D7F823780746FF2B05D0324620462968DB
S21400A35802F0E8FF28602B68013309D12378FF2B29
S21400A36806D1174B6078D3F824142DF0ABFC286080
S21400A37829684B1C18D00C23124A03FB0122069BA3
S21400A388C2F8048093602378FF2B04D001230E4A7A
S21400A3988B40C2F82434384637F0A5F8002007E08A
S21400A3A87F22C2E70022C0E7384637F09CF82D2007
S21400A3B8BDE8F0812220FBE72120F9E7A0B50400DC
S21400A3C800C003508435002000D0035008B502F0C2
S21400A3D859FF054B00F0553020F05020C3F82004F4
S21400A3E8BDE80840FFF794BE00E0035008B502F049
S21400A3F849FF054B00F0AA3020F0A020C3F820043F
S21400A408BDE80840FFF784BE00E003502DE9F04F92
S21400A418144605460E469B46C36B87B001225B6909
S21400A42802A960689847EB6B01225B6903A930466E
S21400A438984702A82DF074FA074648B10023A3757A
S21400A44863754FF0FF33A360002007B0BDE8F08FB8
S21400A45803A82DF072FA0123A375237E04EBC30329
S21400A468DE611F846368B3420ED1206003A82DF016
S21400A47886FA4FF0FF332075A360237D043B022B3A
S21400A48826D80023A375DFE723681A1A53425341D8
S21400A498A37503A82DF073FA237D834218BFA7750A
S21400A4A803A82DF04EFA074602A82DF04AFA87426E
S21400A4B818BF002303A818BFA3752DF04AFA07464D
S21400A4C802A82DF046FA87421CBF0023A375D4E7DE
S21400A4D803A82DF036FA80B1EB6B022230465B6992
S21400A4E804A9984704A82DF03BFA0346207D0328C4
S21400A4F839D8DFE800F03838040903A8F3E7CC2297
S21400A508237E04EBC3031A8401F06EFC109B1870BC
S21400A51803A8277E2DF009FA04EBC70787F8220060
S21400A528237E03A804EBC303B3F8209093F82270A5
S21400A5382DF007FA804603A82DF00BFA8246B8F1EC
S21400A548000F15D0EB6B022230465B6904A99847CA
S21400A55804A82DF0CAF96075637D6BB90023A3754E
S21400A5684FF0000838E0227E04EBC2021384CBE7E3
S21400A57803A82DF0A5F9EEE794F81680B8F1000FB9
S21400A588EED0B9F1000F09D1DFB10123E375637E80
S21400A598002B4FD1012F42D1677614E06B6C06EB87
S21400A5A80A015A4286EA010010421CBF0022A27520
S21400A5B85A1E0A409B1A9945D0D8A37D002BE3D192
S21400A5C8CEE7E37D43B94FF000084B465246314686
S21400A5D828462CF0F0FEA060A27D12B123694B44F9
S21400A5E823611A49237E097899422AD901332376AA
S21400A5F8BBF1000F27D032B3E37D23B3B8F1000FC9
S21400A60821D1032F1FD0A1684B1C1CD0109B2246BB
S21400A618009328460123FFF7F9FEA07513E095F886
S21400A628343063B9EB6A0133CFD1032FCDD1012380
S21400A638A376C8E7012FCFD0032FC4D1F7E79846F3
S21400A648C3E70023A375A07DFFE600BFC4B50400DA
S21400A6582DE9F04F0E46984600238BB004464FF07F
S21400A668FF31104617468DF8133001F0A7FBB6F5F4
S21400A678801F20D2314605AA04F108002DF0A2F862
S21400A688451C014603D1237CBBB92D2010E0384673
S21400A69801F094FB0122394620460DF113032CF0F5
S21400A6A8DCFE0028EFD09DF8133088F80030002034
S21400A6B80BB0BDE8F08FB01CE5D1E56A691C36D151
S21400A6C82046616A2CF0BDFD0546B31C18BF012361
S21400A6D8DFF8CC900193636A626C0293236805A93D
S21400A6E802FB053AE36B05225B695046984705A8C6
S21400A6F82DF0B1F92DF0D4F950462DF0DCF94FF0D5
S21400A708000B824601464B1C05D0636C81EA0A02A0
S21400A7185B42134211D0294620462CF092FD029B3C
S21400A728AB422CD0BBF1000F2CD10546D3E72368EB
S21400A738ED1A636CB5FBF3F5C7E7484601F03EFB38
S21400A7480DF1130349462046019A2CF086FE03466F
S21400A75890B1B21C03D0D9F80020B2420CD19DF8B3
S21400A768132003930D4B88F8002049461A6838468C
S21400A77813F09CF9039B9B46D9F80810C3E7BBF176
S21400A788000F82D0B6F5801F91D2314698F8003077
S21400A7987A6804F1080001F03FFA88E7C0B50400BB
S21400A7A8603D00202DE9F3410446174698460E46BC
S21400A7B8184D816AE36A8B4201D04B1C02D102B065
S21400A7C8BDE8F081284601F0F9FA0122294620461C
S21400A7D80DF107032CF041FE38B1434629462046C2
S21400A7E89DF80720B8470028E9D0A9684A1C04D174
S21400A7F8696820462CF0B2FD0146012EDAD16B6856
S21400A80881EA0302636C5B421A4218BF4FF0FF31BD
S21400A818D0E700BF343D00202DE9F04F4FF0FF335E
S21400A8284FF6FF720025044600F10806C0E9092322
S21400A8388BB0C36205620563304688462CF093FFEA
S21400A84820462CF0CEFC60BB204641462CF049FD45
S21400A85820462CF0C6FC60BB5E200BB0BDE8F08F2F
S21400A8682368E26B606C576900FB0530052205A972
S21400A878B84705A82DF0EFF8012807460CD1294659
S21400A88820462CF0FFFC012F024600D10132294653
S21400A89820462CF0C5FC03E02DF007F90028EED181
S21400A8A80135E3699D42DBD320462CF09AFC00284C
S21400A8B8CAD000254FF0FF394FF6FF73CA46A846A0
S21400A8C8C4E90853E36998450AD3A5EB0905012DA1
S21400A8D82CD84FF6FF72636A93423CD16720BCE7D8
S21400A8E82368E26B606C576900FB0830052205A9EF
S21400A8F8B84705A82DF0AFF8834605A82DF082F8CE
S21400A908074658462DF0CCF868B1574538BFC4F806
S21400A9182480B94528BFB946BD4238BF3D46BA4629
S21400A928236A0133236208F10108CBE74FF6FF7369
S21400A93800256362E3699D42CBD2676C2068E36BAF
S21400A948052207FB05005B6905A9984705A82DF0B1
S21400A95859F80135EEE7E26B676C2068694607FB35
S21400A968030055690522A84768462DF04BF8626A29
S21400A9782368606C4B4D00FB02302DF09CF84FF0BE
S21400A988FF33A062E3622A466FF00101204605AB5A
S21400A998FFF75EFE002846D1AD6829462046E562E8
S21400A9A82CF0FBFB206320B92046E16A2CF0D6FC8D
S21400A9B8E062294620462CF0D1FC0546A36A9D4253
S21400A9C833D120462CF0BCFB00278046B946E36905
S21400A9D899453CD3B84559D92046616A2CF031FCD4
S21400A9E80026054604F1400AB74212D8626C23686E
S21400A9F8694602FB0539E36B05225B6948469847BA
S21400AA0868462CF0FFFF534602464946E06B2DF099
S21400AA1854F8294620462CF014FC0136B045054665
S21400AA28E2D1642019E7A56AB7E7294620462CF044
S21400AA38B4FB236B294603440746236320462CF0C1
S21400AA488DFC0546002FB9D1C4E90B07B6E7636C41
S21400AA582568052203FB0955E36B05A95B692846AB
S21400AA68984705A82CF0F7FF2DF01AF858B1284695
S21400AA782DF021F8014620462CF08FFB636C143B22
S21400AA88984208BF013709F10109A0E730462CF0C3
S21400AA986AFE002320461946034AFFF783FE002075
S21400AAA8DBE600BF8C3D0020517403002DE9F04121
S21400AAB8036B9046826B07689A4288BF8363426C32
S21400AAC8436A90B002FB0377C36B0E46052201A9C2
S21400AAD85B6904463846984701A82CF0BCFF012855
S21400AAE80146307057D0656CE26B2368606AD2F80E
S21400AAF814C005FB0030052206A9E04706A82CF07E
S21400AB08AAFF01284FF0000523D0D4E90A32012114
S21400AB189342CDE90B458DF834800E958DF83C10A0
S21400AB282AD1194620462CF019FC236B626C143384
S21400AB389B1AE06223630C9B53B99DF83C303BB1EB
S21400AB48626A616C2368E06B01FB02312CF03BFF04
S21400AB580C9DE36B05225B6901A93846984701A856
S21400AB682CF079FF30702846236BA26B9A4288BF78
S21400AB78A36310B0BDE8F081237C33B91C490BAA47
S21400AB8804F1080001F096F8D5E72046194A0BAB01
S21400AB98FFF708FECFE7237C23BB2246164904F1BD
S21400ABA8080001F087F8616A20462CF06BFB616AA2
S21400ABB8421C20462CF034FB054620B9236B626CF9
S21400ABC81344143B23632046A16A2CF0C7FB236872
S21400ABD8A062C01A636CB0FBF3F0606220462CF0EB
S21400ABE800FCB6E700232046044AFFF7DBFDDAE759
S21400ABF859B30000D5B20000EB7403008774030055
S21400AC0873B50D46D11E4A421C461B7E4A419A42DF
S21400AC1826D129682368994222D3636899421FD8A7
S21400AC28114E0DF107033246FFF712FDC0B97268E0
S21400AC386B689A4214D19DF80730DA1E5342534186
S21400AC48227E93420CD1636901336361D4E90323FE
S21400AC58934205D22968A26842F82310013323617B
S21400AC68012002B070BD00BF8C3D00202DE9F04FDA
S21400AC789B4689B09DF848309046514A019313691F
S21400AC8807465B450D46C0F09580D9465368009345
S21400AC98B9F1000F7BD0FB6B01225B6905A9009810
S21400ACA8984705A82CF049FE454B1B68984240F08B
S21400ACB8848005A82CF04DFE0428064615D105A864
S21400ACC82CF04EFE009B04461E44019B002B3ED1F2
S21400ACD8804512D91C46A8EB0008384600992CF087
S21400ACE83DFBA9EB04090090D2E7FB6B02225B69E7
S21400ACF8009806A9984706A8E2E7A0EB08045C4572
S21400AD0828BF5C46032C4644ABEB040B1DD9FB6BF3
S21400AD18294630465B69A208984724F0030304F0E6
S21400AD28030A1E441D44DDF80480BAF1000FD4D08F
S21400AD38FB6B012206A930465B69984752462846AF
S21400AD4806A912F0B3FE5544C7E7A246EBE78246CB
S21400AD5800F0030302932B1803930644039BA6EB09
S21400AD680A00A3EB0A05029B9A4514D1BAF1000F14
S21400AD78B3D0FB6B012206A95B6998475246284662
S21400AD8806A913F04FF80028DDD04FF036094846DC
S21400AD9809B0BDE8F08FFB6B012206A95B699847EE
S21400ADA80422284606A913F03DF80028EDD1AAF19A
S21400ADB8040AD3E74FF06309E9E74FF06F09E6E7BF
S21400ADC8B83D00202DE9F0410F4616469846044641
S21400ADD888B060B390F83450FDB101212CF0F6F934
S21400ADE800210E9BCDE90511CDE902379DF83C30D0
S21400ADF8CDF804808DF81C30237C04968BB90D4959
S21400AE0801AA04F1080000F055FFDDE90553E06BE0
S21400AE18002E08BF1D462CF072FB284608B0BDE879
S21400AE28F0812046044A01ABFFF7BCFCEDE7054677
S21400AE38F3E700BFB574030009AC00007FB590F8CF
S21400AE484260044601920DF10B030A46304611494A
S21400AE582CF05DFB012E0546E36B17D132465B6985
S21400AE6803A998479DF80B10039B019A59B19BB20A
S21400AE7843EA0243012228460393E36B03A99B692E
S21400AE88984704B070BD62F30F03F3E701229B698D
S21400AE9801A9F5E7B83D00202DE9F04F99B00E4618
S21400AEA80D920A69416C0B931439D31DB3FBF1F369
S21400AEB8013302EBC302036B04469342C0F00182DF
S21400AEC80023DFF804940893E36A48461946059376
S21400AED800F074FFD6E9033707930B9B022B4DD17E
S21400AEE8CC2F40F0D7810D9B3BB1314620462CF045
S21400AEF864FB656C1490012044E00120079B656C98
S21400AF081B68149300F0010000280CBF04230823D4
S21400AF18782F0E9349D8059A6B1E1340ED1A3B1DE1
S21400AF289D423CD2002F3DD0082D3ED80023042554
S21400AF3806934FF0040A336806990B98C9F8003050
S21400AF48C9F810702CF01FFD4FEA9A030F93059B63
S21400AF5889F814000393002309930C9304930A9327
S21400AF68616C039B4A1E1A408B1A27B35544AB42A2
S21400AF7823D8236B5B1A134423632FE1782F656C61
S21400AF88B9D8F07D0D9B002BBCD0E36B01225B6922
S21400AF98706816A9984716A82CF0D3FCB4E70025C5
S21400AFA80695C6E704250697C3E7012300254FF054
S21400AFB8080A0693BFE75345DBD3A3EB0A0297427A
S21400AFC8039BB84628BF90469742534428D9012287
S21400AFD8D9F8101089F817208F4226D10399C9F896
S21400AFE80410049299F817200AB399F818100398D1
S21400AFF8CA1C09EBC202506004980131A2F8088006
S21400B008907289F81810B8F1000F07D00B9A022A28
S21400B01840F08180099A72B1012209929B46ABE002
S21400B028049A002A18BF0322DBE70222D9E7039A0C
S21400B038C9F80420E7E70C9A4244032AEED9E26BE3
S21400B0481846956914A901220993A847099B05463D
S21400B0580028E1D03D2D40F01E8104F1080303933B
S21400B0682368059A606CA2EB030ABAFBF0FA00FBA9
S21400B0780A302CF020FDE16A804620462CF06EF956
S21400B088A26A824200F00F81626CD9F80830511E1D
S21400B0980B40216B2768891A0B442363089BE062E0
S21400B0A8DF1BB7FBF2F7BA4540F0FA80059BB3EB17
S21400B0B8080A12D0E36B4FEA9A0241469B69984702
S21400B0C88346E36A059A5344E362236B03989B1A04
S21400B0D8434423632CF047FBDA462368616CE06B35
S21400B0E801FB07312CF05CFC20462CF07AF8204651
S21400B0F82CF077F92063BAF1000F00F0D48032699B
S21400B108616CD31D1439B3FBF1F3013302EBC302B0
S21400B1189042A5D2BFE00D9A002A77D1B8F1030F66
S21400B1284FEA98026ED9E16B18468D690799109315
S21400B138A847109B0546C0B918F0030515D0079A0E
S21400B14828F0030B02EB0B019B444FF0FF3215A8C7
S21400B15815922A46109312F0A9FCE26B5846956998
S21400B16815A90122A8470546109B9B46079A424404
S21400B1780792002D40F08B80049B16A80193069B2F
S21400B188009399F814204346316800F0CDFDE36B30
S21400B1980F9A9B69039816A99847039A051E089B59
S21400B1A818BF1346089343465246204603992CF088
S21400B1B802F9236B08F10302A3EB0A0322F0030249
S21400B1C89B1AC9F808002363002D7FF443AF0C9B35
S21400B1D8A7EB080743440C93CDF80CB02046039918
S21400B1E82CF0BCF800250390002F7FF4B9AE364A41
S21400B1F83168936804F10800E36252680B9B00F01C
S21400B2080BFD49E09B46454607999EE79B4606F197
S21400B21820021092F27D7068A2B1002296F818C03B
S21400B2280A99D5B2AC4511D9109D02F1010E35F830
S21400B23832508D4228D90E9806EBC2020144D069D6
S21400B248084403E00E9A0A990A441044E26B15A9CA
S21400B258556901221193A847159A0A9B1392E26B27
S21400B268043395695846012213A90A93A847119BE7
S21400B278054603EB0802A2EB0B02042A7FF679AF19
S21400B28828B90BF1040BC5E77246491BC9E7CDF888
S21400B29820B088E770252F46384619B0BDE8F08FED
S21400B2A84FF0000A19E73269616CD31D1439B3FBF5
S21400B2B8F1F3013302EBC302236B9342BFF404AEEF
S21400B2C8E9E71C27E8E700BF603D0020032A2DE9D0
S21400B2D8F34106460D4617461C4606D1237A012B2F
S21400B2E823D0012002B0BDE8F081DFF8608009684D
S21400B2F842460DF10703FFF7ABF960600028EDD171
S21400B3089DF80720237A032AE8D0D8F804106A683C
S21400B3189142E3D1012B2969D4F80CC007D1726990
S21400B3280CEB0103934202D92074207CDAE708313B
S21400B3386144E1603B46012229463046FFF7ACFDF2
S21400B34860600028CAD00020CCE700BF8C3D0020F3
S21400B3582DE9F341089C032A1746266806D1237A66
S21400B368012B24D0012002B0BDE8F081DFF89080E0
S21400B378304642460DF10703FFF76AF96060002879
S21400B388EDD12568D8F80400A96AD5F844C0484025
S21400B398CCF100031840227AE1D1012A09D1E268EB
S21400B3A8D8F8103013447269934202D92074207C6E
S21400B3B8D9E72868EB6A1B1A081AB3FBFCF3B0FB3C
S21400B3C8FCF083420BD1706CF36A421E1340326B5A
S21400B3D8121A1344284633632BF0C0FFE862D8F8E5
S21400B3E81020E36808321344E36001223B46044910
S21400B3F82068FFF751FD60600028B0D00020B2E753
S21400B4088C3D00202DE9F0410025604B0E46D3F810
S21400B418008004461D6018B921252846BDE8F0813D
S21400B42890F8347007B30A6803689A4240F0A3801D
S21400B4384A6843689A4240F09E808A6883689A42BF
S21400B44840F09980CA68C3689A4240F094800A69B6
S21400B45843699A4240F08F808A69C36B9A4240F0EB
S21400B4688A804B698361D8E768223946856B12F073
S21400B4788DF9D6E90212336804F108002360736870
S21400B488A5636360336963617369A3612CF07DF912
S21400B498B36904F14000E3639B68984720B9676C7A
S21400B4A817B16368B3FBF7F794F84330E761002BEE
S21400B4B8B2D00023656C2366002D64D0002F62D0BE
S21400B4C82368B3FBF5F205FB1233002B55D16668EB
S21400B4D8B6FBF5F305FB1363002B4ED120462BF085
S21400B4E84CFEA369043303449E4248D340F63472A4
S21400B4F86369CC3B934244D8B5F5805F43D30321B8
S21400B50820462BF063FED4E90001E36B1B689847DE
S21400B5180546E36B0220DB689847CDB941462046CE
S21400B528FFF77AF96428054604D141462046FFF716
S21400B53873F90546666C5DB9236A2046143E5E4379
S21400B5482BF01BFEA369043303449E4238BF5A25DA
S21400B558002D0CBF0123002384F8343007D1D4E92A
S21400B56800010B4A1368013313602CF0A8F9E06B4E
S21400B5782BF0C5FF51E75D254FE759254DE75A25BE
S21400B5884BE75F2549E75B2547E700BFF036002015
S21400B598EC3600202DE9FF410C4616461F460546A8
S21400B5A880B390F834307BB3B1F5801F2ED2DFF825
S21400B5B8608001212BF00AFE2146424628460DF1FE
S21400B5C80F03FFF745F8044670B99DF80F30012BB6
S21400B5D811D1D8F81030BB4212D10246009031463D
S21400B5E82846FFF743FB0446E86B2BF088FF204607
S21400B5F804B0BDE8F081022B14BF2D246024F3E7C5
S21400B6086324F1E72124F2E71124F0E72924EEE782
S21400B618B83D00202DE9F04385B00C4617461E4677
S21400B6280546DDF8308098B390F8343093B3B1F51A
S21400B638801F31D2DFF8649001212BF0C7FD214628
S21400B6484A4628460DF10F03FFF702F8044688B964
S21400B6589DF80F30012B14D1D9F8102006EB0803FB
S21400B6689A4213D300904346324639462846FFF797
S21400B678FDFA0446E86B2BF042FF204605B0BDE80D
S21400B688F083022B14BF2D246024F3E76324F1E72C
S21400B6982124F2E71124F0E72924EEE7B83D00203C
S21400B6A873B50C461646054630B390F834302BB3BF
S21400B6B8B1F5801F24D201212BF088FD21462846AB
S21400B6C8104A0DF10703FEF7C3FF044680B99DF83C
S21400B6D80730032B0CD0022B0CD1284609492BF037
S21400B6E86CFF3060E86B2BF00AFF204602B070BD96
S21400B6F82D24F7E76124F5E72124F6E71124F4E77B
S21400B7082924F2E7B83D00202DE9F3411E46002320
S21400B7180C4617460546336050B390F834304BB3A2
S21400B728B1F5801F28D2DFF8548001212BF04EFD9A
S21400B7382146424628460DF10703FEF789FF0446D0
S21400B748A0B99DF80730032B10D0022B03BF0123A6
S21400B7583B600423D8F8103018BF38603360E86BB5
S21400B7682BF0CDFE204602B0BDE8F0812D24F6E78A
S21400B7782124F7E71124F5E72924F3E7B83D00204C
S21400B78873B50446056B2BF0F8FC636E03449D42C4
S21400B7982CBF00230123854294BF00252D1A207C48
S21400B7A884F85030656584F85800A8B100230C4E1C
S21400B7B81A461946204600962BF0C3FF0023054676
S21400B7C81A461946204600962BF0C4FFE36828441C
S21400B7D8984294BF0020C01AE06502B070BD00BF52
S21400B7E8FFFF0F002DE9F3471E4643690446B342A0
S21400B7F8884617469DF828904ED300258DF80750A2
S21400B80820462BF0BAFCD4F830A082450AD2236A28
S21400B818B5EB430F06D2002220460DF10701FFF7CD
S21400B82845F9B8B39DF80730012B05D1002220460C
S21400B8380DF10701FFF73AF9B9F1030F06D03146C3
S21400B84820462BF08AFC256B854227D3144D4FF0F3
S21400B858FF31284600F0B2FA4B4629460022204619
S21400B868C5E90376C5F80080FFF716FB236E054684
S21400B87863B12046FFF784FF94F8503013B994F864
S21400B88858301BB1236E04F150009847284602B082
S21400B898BDE8F0870135B3E76225F7E71C25F5E72D
S21400B8A88C3D00202DE9FF410F4690461E46054672
S21400B8B898B390F8343093B3B1F5801F31D21A4C50
