S01B00006275696C642F72656C656173652F7A69676265652E73333714
S21400600008100020D9A30000F9EB0000432E03007F
S214006010432E030001EC000009EC0000432E0300B1
S214006020432E0300432E0300432E0300432E03009B
S2140060300DEC000010700400432E0300432E0300F6
S214006040432E0300432E0300432E0300A99E0000A8
S214006050432E0300432E0300432E0300432E03006B
S214006060432E0300432E0300432E0300432E03005B
S21400607079F10000432E0300432E0300432E030055
S214006080432E0300432E0300432E0300432E03003B
S214006090432E0300432E0300432E0300432E03002B
S2140060A0432E0300A5A7000085A70000432E03008B
S2140060B0432E0300E9340200432E03004D3F020046
S2140060C0638603005F860300293702007986030093
S2140060D0678603001D3F02006B8603008D3F0200AB
S2140060E0F9450200F5220200F93F0200432E0300A4
S2140060F0432E0300432E0300432E0300432E0300CB
S214006100432E0300432E0300432E0300432E0300BA
S214006110432E0300432E0300432E0300432E0300AA
S214006120432E0300432E0300432E0300432E03009A
S214006130432E0300432E0300432E0300432E03008A
S21400614082B030BF074BD3F8F030DB0704D500230E
S2140061500193019B052B01DD02B07047019B0133C3
S214006160F6E700BF00ED00E0F0B5114A114C124E04
S21400617000F00105E3695F0713D40DB9334213D16C
S21400618003EA00078F4207D10B4A1A40002A14BFC1
S2140061906FF001000020F0BD013AEBD16FF0020075
S2140061A0F9E74FF0FF30F6E76FF00100F3E700BFC6
S2140061B08096980000000350020001000B4B70B55B
S2140061C0D96911F480310DD101244FF48072084E44
S2140061D0084DF46020462C641A61FFF7C5FF34644E
S2140061E0EC6070BD6FF00100FBE700BF00000350DD
S2140061F000100350002003504FF4003238B50F4B08
S2140062000F4C9A6641F671330122E569E3630D4B44
S2140062100021DA60022360612120236105F48035C5
S214006220FFF7A2FF10B92120FFF79EFF0122064BC1
S214006230DA600DB10023E36338BD00BF0090005064
S21400624000000350001003500020035070B5134C9C
S2140062506061E3695B071ED40E4656F8043B8D1852
S214006260A361AE420BD10423002121202361FFF756
S2140062707BFF58B9BDE870402120FFF775BF0821A5
S2140062800846FFF771FF10B10423236170BD56F86E
S214006290043BA361E5E74FF0FF30F7E7000003504B
S2140062A02DE9F84315464FF40032184B89469A6696
S2140062B041F6713203F51C33DF69DA6301220646C4
S2140062C003F58053DFF84C8007F48037DA6055B961
S2140062D0284601220E4BDA601FB10022A3F50053B8
S2140062E0DA63BDE8F88306F5005404EA0804A41B44
S2140062F0AC4228BF2C46494622463046FFF7A6FF4A
S2140063000028E6D12644A1442D1BE0E7009000506B
S20C0063100020035000E0FFFF2F
S2140063182DE9F04F4FF0FD0BC9B09A460DF11B0959
S2140063289DF8503108AFCDF80C90CDF808B001971D
S214006338059303890446009383790E469046418860
S2140063488288407812F03EFE054650B10090A38839
S214006358002062883A4913F079F9284649B0BDE822
S214006368F08F99F800002FF086FC38B12846A388ED
S2140063786288344913F06AF98D25EEE75A4639469D
S21400638899F800002FF01FFC8346002851D0529B36
S2140063981BB1BDF84C3198424BD8002399F80090B1
S2140063A80793A9F14102012A5FFA8BF123D83846F0
S2140063B80139254ADFF898C05FFA81FE734513DB7A
S2140063C8059B04210792C3B907AF18221F489FED03
S2140063D81A7B02FB060420460A460830394684ED36
S2140063E8027B17F087FF11E010F8011F01335140B8
S2140063F80CFB01F2E2E7059B33B123464A463846D2
S214006408009610F061FDA8E70829DED9B8F1000F5C
S21400641801D088F80090BAF1000F01D0AAF800B0B1
S214006428529B002B99D05A46184608A917F062FFC7
S21400643893E7012591E700BF000000000000000078
S214006448DC18040011190400C59D1C81F0100020FA
S21400645893010001000000002DE9F04F93B0CDE94C
S2140064680A32DDE91C530E9353EC102BCDE90801D4
S214006478104619468DED060B1E9E17F0C5F980B11D
S214006488DDE906014FF0FF32C54B17F0E5F940B9D4
S214006498DDE906014FF0FF326FF4801317F0BEF9FE
S2140064A870B1DDE908019DED060B0E9B1E96CDE941
S2140064B81C53DDE90A3213B0BDE8F04F00F088B986
S2140064C80022DDE90601002317F0A8F9002800F0ED
S2140064D83381DDE906A303F1004BCBF30A5016F42B
S2140064E88063A0F2FF3008BF06250F9316F0BAFEA9
S2140064F89BA3D3E9002316F01FFF9BA3D3E9002331
S21400650816F064FDCBF31304894644F07F518046A9
S2140065180022A44B504641F4401116F055FD94A3B2
S214006528D3E9002316F008FF02460B4640464946C4
S21400653816F04CFD17F09AF9044616F093FE8EA353
S214006548D3E900238046894616F0F6FE0022964BCD
S21400655816F03CFD17F08AF989A3D3E9002307460D
S2140065684946404616F0E8FE80463846894616F004
S21400657879FE85A3D3E9002316F0DEFE02460B4615
S2140065884046494616F020FD02460B46CDE90C2348
S21400659816F0D2FEDDE90C238046894610461946D9
S2140065A816F014FD0022CDE91001804B40464946FE
S2140065B816F0ECFF00227E4B16F008FD02460B464E
S2140065C84046494616F0E2FF00227A4B16F0FEFCDB
S2140065D802460B464046494616F0D8FFDDE90C232E
S2140065E88046894600204FF0804116F0EDFC0246B2
S2140065F80B464046494616F0E9FC02460B46DDE9DE
S214006608100116F0C3FF07F2FF3700226A4B16F098
S214006618DDFC00223B0516F08FFE52465B468046A0
S214006628894617F019F9002840F08980CDE90C89C9
S21400663804F16303C62B8CBF0527042731051BD539
S21400664853A3D3E900235046594617F0FBF8002811
S2140066587FD051A3D3E900235046594617F0DEF8F9
S214006668002876D00027A542C6BF2C1B04F1FF35AC
S21400667800253C4646F480660E9B9F422CBF4FF092
S2140066880008A3EB070816F0020903D0002F18BF6E
S2140066984FF000083CB1DDE90C235046594616F089
S2140066A875FF82468B46DDE906010022002317F0B7
S2140066B8B5F810B10BF100439B46DDE9080126F456
S2140066C80063CDE90183DDE90A324BEC10AB009597
S2140066D800F07EF802465FB3DDE9091316F0200FD6
S2140066E800F10105089E0CBF65204520B047DDE98E
S2140066F808010523002205930A23002CCDE902325F
S21400670807F1FF374FEAD473B8BF64422A460193AD
S21400671804970A9B009431F0DEF90246B9F1000F9F
S21400672806D00B9BC41A0B9B1A190E9BA34245D87E
S214006738104613B0BDE8F08FDDE906ABCDE60022C3
S214006748404649461A4B16F021FF013CCDE90C019C
S2140067586EE7002D90D00F9B002B8DD0013D8BE768
S214006768FB799F501344D33FB3C8608B288AC63F33
S21400677861436F63A787D23F71A379094F930A4095
S2140067881655B5BBB16B0240EF39FAFE422EE63F0E
S2140067982D431CEBE2361A3F0000000080842E4191
S2140067A8FFFFEF7F0000F83F0000E03F00002C40AE
S2140067B800002440000018400000F03F2020DDE9DB
S2140067C80913089DA8470134ADE700BF0000000084
S2140067D82DE9F04F5BEC10AB97B0CDE90501DDE98C
S2140067E82058CDE90723504652465B465946229F15
S2140067F817F00AF870B90323CDE902870193AA4B6C
S2140068080093DDE90501DDE9072331F096F817B0B6
S214006818BDE8F08F4FF0FF326FF4801350465946AC
S21400682816F0FCFF28B10423CDE9028701939F4B9D
S214006838E6E74FF0FF32504659469D4B17F00CF8E6
S21400684868B19C4A07F00403002B08BF03229A4B42
S2140068581CBF13460422CDE902870192D0E75046B2
S2140068688DA3D3E90023594616F0F6FF38B98CA352
S214006878D3E900235046594616F0D0FF68B1DDE943
S2140068880723DDE905014BEC10ABCDE92187209500
S21400689817B0BDE8F04FFFF7DFBD002200235046D3
S2140068A8594616F0BBFF002800F091805B4652461A
S2140068B80020002116F088FB012382468B460993A8
S2140068C817F4806400F08580092D40F28580002446
S2140068D830210EABA5F109020134202C03F8011B68
S2140068E8A5EB040901D09442F6D15946504616F055
S2140068F8BDFF724B054603EBC90393ED007B8DED98
S2140069080A7B16F0AFFC02460B465046594616F070
S2140069185BFBDDE90A2316F00FFD02460B46CDE9C0
S2140069280C2316F0CBFF064616F08CFC02460B46E8
S214006938DDE90C0116F048FB02460B46CDE90C23B0
S21400694800225F4B16F088FF002848D001363046F4
S21400695816F078FC02460B46DDE90A0116F068FFD9
S21400696808B100260135B9F1000F45D1284616F0C2
S21400697879FC02460B465046594616F025FB00227F
S2140069884F4B16F04BFF10B9E90700D501350A2121
S2140069980EAB1A19202C0AD095FBF1F001FB105506
S2140069A8303502F8015B013405460028F2D107F0BD
S2140069B80302012A55D1B8F1000F52D0099A12B92C
S2140069C817F00C0F01D008F1FF38302240E009908C
S2140069D876E74FF0060988E7A946002485E70022EF
S2140069E8DDE90C01364B16F019FF0028BBD10EB1B5
S2140069F8F007B8D50136B6E70A210EAB1A19202CCF
S214006A080DD0B6FBF1F001FB1063092E03F130033D
S214006A1809F1FF3904F1010402F8013B11D83021CD
S214006A28A1440EAA202CB2D04C4504F101030AD189
S214006A3804F158020DEB02042E2204F8202C1C4602
S214006A48A5E70646DBE7A1541C46EBE71A550134D2
S214006A58444506D2202CF9D1CDE9028701940EAB25
S214006A68CEE6202CF8D0099B3BB12D2204F1580322
S214006A786B4403F8202C0134EEE77A0704D504F1BA
S214006A8858032B226B44F4E73B07E5D504F158037B
S214006A9820226B44EDE700BF0000000065CDCD4125
S214006AA80000000065CDCDC1FF35040003360400A4
S214006AB8FFFFEF7FF6350400FB350400087F04006F
S214006AC80000E03F0000000070B58EB02C220021C8
S214006AD803A817F07FFA64234FF002320893CDE933
S214006AE805230B2301218DF834305B4B8DF81010ED
S214006AF81D880D4040F0A980084635F05DF80A224A
S214006B08564B574C1A704FF42873ADF812304FF0A6
S214006B18FF332360534B54491B8820460B82534B44
S214006B28534A1B68CD828B61524B0D621B884B8281
S214006B38514B1B68CB611DF027FB20B14FF41B712E
S214006B484E4836F066F80521206831F02CFE20B154
S214006B5840F27D21494836F05CF8206816F0F0F9D6
S214006B68474B2068196831F098F90C2535F08CFCED
S214006B786843099035F088FC68430DEB05010790DB
S214006B88206817F0C3FE20B140F295213B4836F046
S214006B9840F825681FF022FF00220146284631F0FB
S214006BA8F4F920B140F29721344836F032F840F232
S214006BB80353344D344E2B80052396F90000AB70F2
S214006BC87F2801D11DF0C8FD3378EB7035F05CFCEA
S214006BD800EB80008000A88035F056FC0023C0003B
S214006BE84FF0FF31E880AB604FF0FF3018A3D3E9D1
S214006BF8002335F033F92549206831F07FF92068FD
S214006C0802A931F077FE20B14FF434711B4836F0F4
S214006C1800F8042220680DEB020131F013F904286D
S214006C2804D040F2D721154835F0F3FF01A901201A
S214006C3830F0D4FC08F020F801201EF011FA2CF0F1
S214006C48EAFE1EF037FA1DF01FFD0EB070BD00BF3D
S214006C580A0020FF42030000FA5A00202F62002094
S214006C6820550020A898040054690020B098040015
S214006C78E9BB0300A6980400AC980400C86E04009C
S214006C8894660020145500202A6C00205DBC030082
S214006C980348044B834202D0034B03B1184770479E
S214006CA8586C0020586C002000000000064B07496E
S214006CB8C91A891048BF0131491003D0044B0BB1DB
S214006CC801481847704700BF586C0020586C0020D1
S214006CD80000000010B5064C237843B9FFF7D8FF2C
S214006CE8044B13B10448AFF300800123237010BD92
S214006CF82816002000000000C8D3040008B5044B7E
S214006D081BB104490448AFF30080BDE80840CDE74E
S214006D18000000002C160020C8D30400A3F5803A13
S214006D28704700BF154B002B08BF114B9D46FFF759
S214006D38F5FF00218B460F461148124A121A17F023
S214006D4849F90C4B002B00D098470B4B002B00D072
S214006D5898470020002104000D000B4817F080FC1F
S214006D6817F010F9200029002BF047FD17F066FCF5
S214006D7800000800000000000000000008100020C6
S214006D880810002084620020D1E6010007B5012122
S214006D9820200DF1070201F0FBF958B1022301216A
S214006DA820200DF107028DF8073001F001FA03B034
S214006DB85DF804FB9DF807100229F8D0022209485E
S214006DC815F0EAFF022301210DF1070220208DF8B5
S214006DD8073001F0EDF92BF06AFC4FF4FA6001F089
S214006DE81FF8E4E750D0030038B502F0DDFA01F0EA
S214006DF86DFB012805D001F069FB022801D001F0DF
S214006E088BFB064D2B783BB901F060FB0128044646
S214006E1802D12BF0D5FC2C7038BD00BFD85B002003
S214006E2810B5044600882BF00DFCA37884F84400BF
S214006E38834202BF0123E3702371074B04F11C0051
S214006E48C4E9073401F0FAF9224620880349BDE868
S214006E58104001F037B900BFE3230300AD23030059
S214006E6870B5C37804460D461646002B34D1D1B10A
S214006E78214815F091FF0123E370E36CA6600BB17F
S214006E88E06D9847E368F61A63699E4221D2217E30
S214006E981A480131C9B2217615F07EFFA36D13B1E9
S214006EA8217EE06D9847E5702BF014FC15B3237926
S214006EB803BBA268238A801A83421BD80123104882
S214006EC8237115F069FF236DA3B1E06DBDE870402E
S214006ED8184701232376E6E70029E4D1094815F088
S214006EE85BFF636DE660E5702571002BDBD0E06D17
S214006EF89847D8E770BD00BF78D0030089D0030054
S214006F08B7D00300A4D0030070B51E468388044695
S214006F180D46C18002810BB1868070BD81780088DD
S214006F282BF07CFA0123E370064BA680C4E90334F1
S214006F380C34204601F082F929462046BDE8704008
S214006F482BF0BFBB2F2403002DE9F04104462BF09D
S214006F58C1FB94F93C60656C6064451B30462BF0B9
S214006F689BFB30462BF094FB074630462BF092FBF3
S214006F7830462BF090FB94F93D8040462BF08CFB76
S214006F8840462BF085FB064640462BF083FB4046E2
S214006F982BF081FB002D54D0394B4FF47A72BB424C
S214006FA828BF3B465343B3FBF5F105FB1133534368
S214006FB8B3FBF5F302FB0133E268B3FBF2F347F6E3
S214006FC8FF729A4228BF1A4622840A22B3FBF2F3BB
S214006FD86362D4E90A32DB1942F10002C4E90A32D4
S214006FE8236CA2693B442364236C93422BD27DB165
S214006FF8234B9E4228BF1E464FF47A735E43B6FB69
S214007008F5F205FB12665E43B6FBF5F603FB026572
S21400701894F83E204FF6FF71DAB16369B5FBF3F3D7
S2140070288B4228BF0B46E383002A0CBF01230023AC
S214007038A08884F83E30A37913D1A3B92BF0F8FAC8
S21400704813E02B46B8E79B1A2364236B01332363AC
S214007058CAE72369B5FBF3F58D4228BF0D46A5831D
S214007068E2E7002BEAD12BF0D9FA636B0BB1A06BE1
S2140070789847A16804F14800BDE8F0412BF021BB11
S21400708800093D0038B58368044613B94FF4FA631F
S2140070988360E3680BB95323E360236913B940F2AE
S2140070A81F33236163690BB96C236361A36913B942
S2140070B84FF47A73A3610022012120882BF0E4FAAA
S2140070C884F83C00013005D1234815F065FE4FF0E2
S2140070D8FF3038BD0022012160882BF0D5FA431C0A
S2140070E8054684F83D0009D11C4815F055FE94F96C
S2140070F83C002BF0CCFA84F83C50E8E70022A08845
S21400710811462BF06CFAA379A0880BB32BF086FAFD
S214007118012394F93C0084F83E302BF0BCFA94F92D
S2140071283D002BF0B8FA2BF0D5FA0D4B04F14805C4
S214007138C4E912346064284601F080F82846A1683D
S2140071482BF0BFFAA168074815F026FE0020C0E716
S2140071582BF06EFADCE700BFCDD00300F5D00300B5
S214007168516F00001ED1030010B501790446B1FA2C
S21400717881F1008849092BF0C8F921796088B1FAAD
S21400718881F149092BF0C1F9034B1A68A24204BFE2
S21400719800221A6010BD00BF4416002070B543795F
S2140071A80446A3B100880E4E04F10805336813B1EF
S2140071B80C4B1B786BB121792BF0A7F964210A4B8D
S2140071C83460A3602846BDE870402BF07ABA408841
S2140071D8E9E7064815F0E0FD054B3221A360F1E724
S2140071E844160020DA5B00207171000051D10300BC
S2140071F8A571000010B50446E0B10F4815F0CCFDA7
S21400720801236371A37953B9217920882BF07DF97E
S214007218236B7BB1606B0121BDE810401847204600
S214007228FFF7A2FF04F108002BF050FA2046FFF7FC
S214007238B5FFEDE710BD00BF87D1030010B50446C3
S214007248F8B1104815F0A8FD00236371A3796BB94F
S21400725821792088B1FA81F149092BF056F9236B78
S2140072687BB1606B0021BDE8104018472046FFF749
S2140072787BFF04F108002BF029FA2046FFF78EFF63
S214007288EDE710BD92D1030010B5044668B1074873
S21400729815F082FD637920461BB1BDE81040FFF764
S2140072A8CDBFBDE81040FFF7A5BF10BD9ED10300B7
S2140072B810B50E4C0E48214615F06EFD82210D487D
S2140072C815F06AFD82210220A21E00F071FF014619
S2140072D830B134F8022C0848BDE8104015F05CBD03
S2140072E80648BDE8104015F057BD00BF665600209A
S2140072F8ADD10300C8D10300D3D1030017D20300D1
S21400730838B5114C82212246022000F041FFA51C08
S214007318014688B122880D4815F03EFD2A460C4BDA
S21400732803F12C0153F8040B8B4242F8040BF9D1F5
S2140073381B7813702C23238035F8021C054A064850
S214007348BDE8384015F028BD6456002022D2030058
S214007358A2D203006656002080D20300034B1B7897
S2140073681BB18B4201D82BF0A2B97047D26B002014
S214007378F8B51E4B1E4F1B78A3B11E4D1E4C2B781E
S2140073885BB11E4B5B7943B100211D4B4FF60C7267
S2140073981878297021702BF0DAF91A4B1B883BB93C
S2140073A800232370B9681848BDE8F8402BF089B95F
S2140073B87A6A9A42F4D32378FF2B10D12E78002EBF
S2140073C8F0D10E48FFF73AFF01232B700C4B4FF60F
S2140073D80C723146187826702BF0B9F9E2E70133BB
S2140073E8DBB2022B2370DDD9E8E700BFE05B0020A4
S2140073F808100020E35B0020D95B0020EC2000206A
S214007408381700208C6B00201017002010B5044693
S21400741801460E4815F0C0FC012C11D10C4B0D4846
S2140074281A884FF6FF739A421EBF0022094B5A74F9
S2140074382BF051F802F00EF9BDE8104001F0E0BF5D
S2140074480448BDE810402BF048B800BFCFD2030070
S214007458846B00202066002070B50024254D264E3B
S2140074683378A34225DC0024244D254E3378A342E6
S21400747825DC0024234D244E3378A34225DC234CF8
S214007488237833B1224D2846FFF7FCFD18B30023B6
S214007498237001F01BF801281E4828D12BF01BF892
S2140074A802F0D8F801F0ACFFBDE870401A4801F0C9
S2140074B82DB82846FFF7B4FC01346035D0E72846D7
S2140074C82AF0EFFF01343435D0E728462BF022F8AF
S2140074D801343835D0E7114C114BC4E9003020464A
S2140074E800F0ACFE2046A9682BF0EBF8D1E72AF0AE
S2140074F8F4FFD9E71C230020E15B00203C2700208E
S214007508E25B0020EC200020E05B0020DE5B002031
S21400751808100020206600201574000010170020B0
S214007528797300002DE9F04F87B0FFF7E9FEAE4B00
S21400753805A805932BF012F8054616F047FCAB4C49
S214007548C2B21F2A627004D9A94815F025FC00F0BB
S2140075585BFC2946A01C16F0CDFE05A82AF0FEFF07
S214007568054616F033FCC2B21F2A84F8212001D93A
S214007578A048EAE7294604F1220016F0BBFE05A853
S2140075882AF0ECFF3226044600272578002D40F026
S214007598A780994CFFF760FF2378DFF8A4A2DFF8EE
S2140075A8A482964F00939AF8003098F8002039780D
S2140075B8934815F0F1FB3A7898F800109AF800000E
S2140075C853180344DFF874B220782C460344584610
S2140075D8DBB2AA4200F32783012B38BF0123894E6A
S2140075E802933246002335464FF482704FF6FF71F9
S2140075F8029C01339C4213705080918002F10C0269
S214007608F6DC814B7F497948AB6001F047F8E879AA
S214007618AB6800EB400003EB800000F003FEEB795C
S2140076280133EB71794B1B782BB17948794B754947
S214007638436001F025FC4FF6FF73774C22889A4288
S21400764803D07049754801F04DF94FF6FF7322884C
S2140076586C49D21A18BF0122714801F011FE4FF08A
S2140076680009694C3A784A4500F3E58200264FF04F
S2140076780C096C4ADFF88CB198F800003978B042EB
S21400768800F3ED8246180C21002501FB06B19AF896
S21400769800009423A842644A00F3FF820C253E7833
S2140076A898F8003000274FF070081E44064405FB83
S2140076B806B5DFF894A1504B1B78BB4200F3008355
S2140076C80299504800F03CFE059B47491A468B42F3
S2140076D840F00983554807B0BDE8F04F15F05CBB8D
S2140076E8532D0BD163784C2B40F04D81A378502B4B
S2140076F840F049814E4B01221A7011E0442D18D1F2
S2140077086378303B092B0BD8601C2AF034FF494BB2
S214007718494A1978002386B2994202F1600204DCCD
S21400772805A82AF01BFF04462FE722F8466C01330B
S214007738F2E7422D0CD16378542B40F08780A01CCA
S21400774800F00EFD344B188018462AF008FEE7E7CE
S214007758582D33D8412DE3D9433D152DE0D801A344
S21400776853F825F09D7B000029770000897A0000F1
S214007778297700002977000029770000E1780000C3
S214007788297700002977000093780000D777000053
S214007798297700002977000029770000297700005C
S2140077A8137A00008F7900002977000029770000F7
S2140077B82977000029770000B17A0000692DAFD13B
S2140077C8601C2AF0D8FE80B22AF06DFFA8E70B4BA3
S2140077D8012019780023194A994202F1A8029FDD70
S2140077E802F8A60C0133F7E7665600200465002069
S2140077F8EED2030005D30300DB5B0020DF5B00202E
S21400780815D3030038170020B0170020DE5B0020D1
S2140078183C1D002008100020846B0020C0160020A5
S214007828481600203C1C0020801A002065D3030060
S214007838DA5B0020E15B00201C230020401E0020AD
S214007848DC5B0020DD5B002030190020601C00F0A7
S21400785887FC0546E01C2AF006FF0121024628465A
S2140078682AF0BDFE6021BA48BA4C0378594362181C
S21400787865524FF4FA6111824FF448715161B64966
S21400788856831165013303704AE7601C00F068FCF4
S21400789800224FF034088146B04F11462AF09FFE6A
S2140078A83878AF4D08FB00F325F80390EA18E3781C
S2140078B81046693B18BF012393702AF0F2FD002199
S2140078C8A84A3B785160012103FB08550B443B70DE
S2140078D815600F46117423E7601C00F041FC002277
S2140078E8114681462AF07BFE34229C4DDFF87082D2
S2140078F8287802FB00F328F8039008EB0301E378E6
S2140079080846693B18BF01238B702AF0CAFD964AC1
S21400791800231046916B31BB00EB831034232A7882
S21400792802FB03838363914A00231046D2F8A4100F
S214007938F9B9A82202FB030034232A7802FB038342
S214007948C0F8A4305FB9874A3B46114652F8040B84
S214007958A8B93422287800FB028241F823202B7825
S21400796801332B70DCE60133042B02F14002D1D13F
S214007978D9E70133042B02F1A802D7D1E2E7013395
S214007988042BE3D1EBE7601C00F0EAFB8046E01C22
S2140079982AF069FE0121024640462AF020FE6021B0
S2140079A86B486C4D0278DFF8E4C151436B1825F834
S2140079B801804FF44871198259616D495E83996553
S2140079C8E178A824642904BF012199709CF8003046
S2140079D8DFF898E15C430EEB04010EF804304FF430
S2140079E800744C8003240C718C7102EB420405EB86
S2140079F8441532240133DBB201324B718D6081F8B5
S214007A08A04002708CF800308AE6601C00F0A8FBE4
S214007A1800224FF0380A8146DFF86C8111462AF0BA
S214007A28DEFD98F80030534D0AFB03F325F8039063
S214007A384FF00109EA1882F80490E37873B1E01C65
S214007A4800F08EFB0022044611462AF0C8FD98F87E
S214007A5800300AFB03535C8083F806904648424A87
S214007A6803789901535498F8001002EB8314C1EB7D
S214007A78C10205EBC2054A1C656388F8002001E7C9
S214007A88601C00F06DFB3D4D2880E01C00F068FB94
S214007A986880601D00F064FBE379A880693B18BF26
S214007AA80123AB71364B26E6601C00F059FB804676
S214007AB8E01C00F055FB0546601D2AF0D4FD044680
S214007AC80246012140462AF08AFD22462846012120
S214007AD82AF085FD60204FF4487CDFF874E01D4AE4
S214007AE89EF8003000FB03F422F80480DFF880805C
S214007AF81119A1F810C0C1F814C04E83C1F85880F7
S214007B08591CC9B248431418A4F810C0C4F814C0C5
S214007B186683C4F85880942415521A4D981C8EF81B
S214007B2800002878DFF868C0444303EB430301EB02
S214007B3841010CEB040E02EB431302EB41120CF866
S214007B480400CEF80430CEF8082001302870E7E5A7
S214007B58E15B00201C2300204F250300E25B002089
S214007B683C270020206600203C1C0020401E0020E9
S214007B7865730000EC200020DD5B00200810002064
S214007B88DE5B0020DC5B0020E05B0020DF5B002083
S214007B98801A0020601C00F0E3FA8046E01C00F023
S214007BA8DFFA00220546114640462AF018FD002254
S214007BB83824114628462AF012FD4F484F4A0378C3
S214007BC84FF0000E04FB03FC22F80C804FF001086F
S214007BD802EB0C0181F806E081F8048003EB08014B
S214007BE8C9B24C4302EB040C15539C1C0470702459
S214007BF8434D8CF806E028788CF804804443DFF878
S214007C0808C1C3EBC303C1EBC1010CEB040E02EBC6
S214007C18C30302EBC1020CF80400CEF80430CEF819
S214007C280820404492E7467901358E4284BF0471A5
S214007C384471A830CDE4B9F1000F06D016F8052C2B
S214007C4802EB420204EB8204B4603146584601F067
S214007C58D5FE09F101090BF1A80B0C3602E57118DF
S214007C680AD0481E09FB00B0C07900EB400004EBC0
S214007C78800409FB01B08460104609FB0151039299
S214007C8801F07AFC39781F48314409FB015101F0AC
S214007C98DDF8039A01364032EEE4F54218BF11F8D3
S214007CA8050C03911EBF00EB400004EB80048C60BB
S214007CB803FB052000F0DAFF039901350C31E6E4F2
S214007CC8F74218BF15F8053C29461CBF03EB4303CB
S214007CD804EB830408FB07A018BFAC6000F09CFE0A
S214007CE801370C35E7E413F8011D00297FF4EDACE5
S214007CF83B2102F8011CE8E4E05B0020EC200020B1
S214007D08DB5B0020E02000203019002007B50121A9
S214007D1821200DF1050200F03BFA18B99DF8052060
S214007D28074B1A70022123200DF1060200F030FAE4
S214007D3818B9044BBDF806201A8003B05DF804FB9A
S214007D48D26B00208C6B002007B5064B8DF8070019
S214007D58187001210DF10702212000F029FA03B05E
S214007D685DF804FBD26B002007B5064BADF806009D
S214007D78188002210DF10602232000F019FA03B03C
S214007D885DF804FB8C6B002007B5022101200DF17D
S214007D98060200F0FDF938B9044814F0FDFFBDF8F6
S214007DA8060003B05DF804FB0020FAE782D3030060
S214007DB807B50221ADF806000DF10602012000F015
S214007DC8F7F9014610B1034814F0E6FF03B05DF872
S214007DD804FB00BFA3D3030010B5FFF7D5FF044686
S214007DE80146074814F0D8FF0121064814F0D4FFCE
S214007DF824B9BDE810400120FFF7DABF10BD00BF68
S214007E08D3D30300E5D3030008B5044814F0C4FF31
S214007E1800F0DEF92AF04BFC2AF046FCFBD3030000
S214007E2838B50446084D094B28462B6000F006FA7C
S214007E38002C18BF21462846BDE8384008BF4FF436
S214007E4896712AF03EBC00BF402800209D250300FE
S214007E582DE9F043394D93B008AC0746894690465D
S214007E680FCD0FC40FCD00260FC495E803000323DB
S214007E78012584E80300324C3248CDE90366CDE993
S214007E8805668DF80E300796029534F05CFE2E488F
S214007E9834F059FE32462D4920468DF8176005F015
S214007EA84DF9334632462A498DF819000090204687
S214007EB88DF82390CDF82C808DF8216005F058F9C0
S214007EC80A9020468DF8097005F0B8F8204608AAEA
S214007ED805A905F073F902AA204603A92BF019FD97
S214007EE84FF400721B4B5A62194BE560626A9205A2
S214007EF810D46BB94FF40072164B11485A6205F04D
S214007F089DF8114834F022FE002013B0BDE8F08337
S214007F18013BEBE7002BEDD0094908A82BF02CFD18
S214007F284FF400720B4B06485A6205F087F806486D
S214007F3834F00CFEBDF82000E7E700BFC06F040071
S214007F480040005A107204000C72040080841E0060
S214007F5840420F000060005A0122034B1870034B82
S214007F681980034B1A707047E55B00208E6B002063
S214007F78E45B0020F8B5454B1B780BB90020F8BD2C
S214007F88434B1B78012B03D1BDE8F8402AF005BB0C
S214007F98404B1C884FF6FF739C42EFD03E4834F0A7
S214007FA8D2FD0023260AE4B21A462146304605F0DA
S214007FB805F8012E354604F0010335D015D9B51E4F
S214007FC8012DDBD8002B0BBF4FF480754FF0807562
S214007FD84FF470614FF070610BBF01274FF4803784
S214007FE80F204FF470202D4B11E0002B0BBF4FF4E1
S214007FF880754FF080754FF470614FF070610BBF5D
S21400800801274FF480370F204FF47020244B1A684E
S21400801802401CD0BA421AD01A680A4032D11A68EE
S21400802822EA01022A4316E0002B0BBF4FF48075A4
S2140080384FF080754FF470614FF070610BBF0127E9
S2140080484FF480370F204FF47020164BDFE71A687E
S21400805822EA00023A431A602AF09FFA05460028E8
S2140080688CD0083644EA06102A460321C0B2FFF729
S214008078EFFE40F6FF73684300F2FF70B0FBF3F0C4
S21400808880B27CE795427FF479AFC8E7E45B0020CE
S214008098E55B00208E6B00201072040028C3035096
S2140080A820C3035024C3035010B5044C237823B9C7
S2140080B8034834F048FD0123237010BDE75B002019
S2140080C8107204002DE9F0431F4C85B00746884619
S2140080D89146FFF7E9FF23781BB902F015FA01234A
S2140080E823707BBAADF80C3030220023174E02FB03
S2140080F803F4315DA51901BB012333554FF0FF3357
S21400810804F1100012493044AB606F80C5F8048053
S214008118C5F80C9009F0F0FC04F10801042231447B
S2140081280C4B009503A802F0C5FAA96802460A484F
S21400813814F032FE05B0BDE8F0830133102BD6D11B
S214008148064814F029FEF5E7E65B002068280020BC
S214008158C7250300D925030008D4030036D4030036
S21400816880B10278A2F14103032B0BD8407830384F
S214008178C0B2082806D8054B134413F8413C40EA19
S214008188032070474FF6FF70704700BFE86F040083
S21400819808B50B4642B101460448006803F0D2FB16
S2140081A8BDE808402AF079BA022008BD8C6600208F
S2140081B808B50B4642B101460448006803F04AFD7C
S2140081C8BDE808402AF069BA022008BD8C6600207F
S2140081D8F0B50026124F8DB0FF2300930A223346CF
S2140081E8386802A92BF03AF9C0B102AB1D4603EB7A
S2140081F8800404E055F8043BB34228BF5E1CAC423A
S2140082083868E9D9296803F0ABFE0028F2D02D2893
S214008218F0D00DB0BDE8F0402AF03FBA0DB0F0BD82
S2140082288C66002028B1034B0360034B4360002391
S214008238836070471900000334660020FF2307B5E3
S2140082480021044A0093083009F0DAFB03B05DF811
S21400825804FB00BFC52603000B460449024608680F
S2140082680349097808B12AF050BA7047742B0020E1
S214008278E95B0020F7B50C4618B12921194834F0F7
S214008288C8FC246823685E795F8830463946FFF75D
S214008298E3FFF0B18568E5B1A089227D39469042B2
S2140082A891BF0020801AA36880B294BF03469B182B
S2140082B8E27C00903046A8470138032803D8DFE858
S2140082C800F0080F0B0D002420462EF03CFA20463E
S2140082D800E0812003B0F0BD8024F5E79324F3E79F
S2140082E88724F1E75ED40300F8B515460D4A044620
S2140082F810680D4A0B46117850B122462AF005FA46
S214008308034628B100210C27C678B14201DB0020BD
S214008318F8BD07FB01F45A681019125BAA42F7D099
S2140083280131F2E7742B0020E95B002008B5034B07
S2140083381B6803B19847002008BD00BF702B0020BB
S2140083482DE9F74F04460D460026454B454F186065
S214008358454B197033010021F85C013610F020FCFB
S2140083680C2EF7D10C2D28BF0C254FF000090195CF
S2140083783C4EDFF800A13D4DDFF8FC80019B4B45E5
S21400838802DC03B0BDE8F08F23784FF0000B3370A3
S21400839863887380A388B380A379C6F80880B3710E
S2140083A8E379C8F8005088F804304FF00003A7684F
S2140083B8A8F80630E3795B450ADC012116F8100BAD
S2140083C810F0EEFB08F1080809F101090C34D5E7AE
S2140083D84FF0000338886B812880FB784FF0000C3C
S2140083E82B81BA78C5F804A0002A00920CBF802218
S2140083F840222A7379680AF10C02634513DC03EB02
S21400840843030AEB830ABB6843B1009A4FF6FF7131
S214008418B2FA82F2164B52092EF025F914350BF1F2
S214008428010B0C37C6E7B1F800E00CF1010C22F896
S2140084380CEC91F802E00C3202F816EC91F804E025
S2140084480C3102F815EC11F809ECBEF1010F14BF57
S2140084584FF0100E4FF0110E02F814ECCDE700BFE7
S214008468742B0020CC420020E95B002078310020E5
S2140084787D820000782B0020F8330020014B18601E
S214008488704700BF6C2B0020014B1860704700BF78
S214008498702B002070B5128805460E46FFF724FF9D
S2140084A8044670B102790499806815F0E5FD064B1C
S2140084B81B680BB9002070BD3146284622889847AD
S2140084C8F8E78620F7E700BF6C2B002008B50FF00A
S2140084D803FC022806D0012806D0044B1878400072
S2140084E8C0B208BD0120FCE70220FAE7E85B0020DE
S2140084F8054B10B51C682CB1FFF7E8FF2346BDE80E
S2140085081040184710BD00BF682B0020014B1860AC
S214008518704700BF682B0020034B1A781AB901224F
S2140085281A700BF039BC7047E85B00200022024B3B
S2140085381A70FFF7DDBF00BFE85B002037B50446BA
S214008548002836D00FF0C8FB022834D160892EF0F8
S2140085585CFCE079237A003818BF0120012B637A87
S21400856808BF40F008000BB140F0100063890BB15B
S21400857840F00400257CA188A2790DB1E36893B980
S2140085880F4B10F0E9FE2178084610F061FF2DF039
S21400859865FF044610F01AFF7CB100280CBF0020C7
S2140085A8032003B030BDCDE90035064B10F0D4FEED
S2140085B8E9E70220F5E70120F3E72046F1E700BFE8
S2140085C829250400F2F4030008B50DF043FD014622
S2140085D830B1044814F0E0FBBDE808400EF0DEB801
S2140085E808BD00BFD0D40300034B044A5B7C0121BE
S2140085F803201370FFF7DCBD20660020EA5B00202E
S21400860810B50446FFF7F0FFB4F57F4F0BD10024F2
S214008618144B1A8813449C70FEF74AFE2046BDE8A1
S2140086281040FFF7FDBB4FF601739C4204D1BDE82E
S21400863810400D4829F037BF4FF602739C4205D10B
S214008648BDE81040094B1878FFF77EBB4FF60B7352
S2140086589C4205D1BDE81040054B1888FFF784BB3F
S21400866810BD00BF6456002020660020D26B002094
S2140086788C6B002010B5074C012122460320FFF71B
S21400868887FD28B92378044A003B18BF0123537492
S21400869810BD00BFEA5B002020660020F8B5624BDC
S2140086A8624D1A884FF6FF739A421CBF03232B703D
S2140086B808235F4A32241370302393705371D371A2
S2140086C834235470D470362413724FF40013147184
S2140086D839244364574B9471C364574B012403658C
S2140086E8564B06198365564BC667C365554B564E9B
S2140086F84366564B80F848408366554B80F854408E
S2140087080367544B80F860404367202380F878302E
S21400871880F8843000F12103C0F888304E4B80F88A
S2140087286C40C0F88C30C0F8806080F89040C0F884
S21400873894504A4D4A4BC0F8AC504A4DC0F8983051
S214008748C0F8B050092580F8B450474D474BC0F8DC
S214008758C450474DC0F8B820C0F8C8508225454ACE
S214008768C0F8A430C0F8BC200F23022280F8CC50F2
S214008778414D80F89C40C0F8D050404DC0F8A0004D
S214008788C0F8D4503E4D80F8A830C0F8DC503D4DB7
S21400879880F8C0202D7880F8D840002D40D080F88A
S2140087A8E420394A394DC0F8E820394AC0F8E05084
S2140087B8C0F8EC20374A80F8F040C0F8F420364C71
S2140087C8227C62B10C2202FB0302344D013355644D
S2140087D8012582F8485004F11105D564DBB24FF044
S2140087E8000CCD798E6805EB4502970006EB8202F1
S2140087F826F807C0D370012344309370EB185060F6
S214008808CB71FFF783FAFFF735FFFFF75FFE012806
S21400881808D1237C33B1BDE8F8401F4829F043BE91
S2140088280D23CCE7F8BD00BF846B0020D36B002077
S214008838EB5B0020017004000100200000700400BB
S21400884802002000FF6F040005004200030020001D
S214008858FE6F04000400420007003000EC6F0400BE
S2140088681200100106004200FC6F0400004042009F
S21400887800FF4401FDFF21006456002002FF20018E
S214008888D26B0020DE5B00208C6B00200BFF2101E2
S2140088980CFF1000E35B00202066002001FF10019B
S2140088A813B504460D4829F065FD6422C0F30F434E
S2140088B8637083B2B3FBF2F3A07823702022012101
S2140088C829F045FFA0782122012129F040FF04491C
S2140088D8201D02B0BDE8104029F0F3BE846B0020CE
S2140088E8E09304000B7870B583704CF61E03038083
S2140088F84FF02013C362012380F8303080F83C30F4
S214008908C3180364124B044643640223114A80F8D2
S2140089184830114B8263C3644063CA798D6802EBA2
S214008928420305EB830004F12C0646600B4E45F81F
S214008938236000238360531CCB71094B201DC4E9B8
S2140089480134FFF77BFC2046BDE87040FFF7A8BF60
S214008958FDFF210021002000027004000100010331
S214008968A9880000437B044A01211370007811305F
S214008978C0B2FFF71DBC00BFF55B002038B5044643
S2140089880078054D11302A460121C0B2FFF700FCD9
S21400899808B92B78637338BDF55B0020024B53F893
S2140089A8200029F0AFBF00BF58340020012908B5C1
S2140089B806D0022907D049B929F09BFF002008BD38
S2140089C829F09AFFFAE729F09AFFF7E7024814F029
S2140089D8E3F90120F3E700BFFDD4030010B4054C0B
S2140089E8114654F820001A46BDF804305DF8044BCA
S2140089F8FFF7DCBF58340020002310B504468381F7
S214008A080364A0F844304830FFF718FC014BC4E96B
S214008A18123410BDF328030038B504460B781A4AFA
S214008A2843700D4642F82300FFF7E6FF2046FFF79F
S214008A38A5FF4FF4401323610123144A2375A2614E
S214008A48134A84F82030E261124A84F82C306262B5
S214008A58114A84F83830A26204F10C0222630F4AE5
S214008A6804F10D036263E363EA79A86802EB420344
S214008A7800EB830110344C60094C40F82340094B46
S214008A888B60531CEB7138BD58340020F45B002013
S214008A9808002000D46B002000FF300001FF100102
S214008AA802010104E589000010B47024427B0D48D9
S214008AB8013A012904FB020006D0022908D059B958
S214008AC85DF8044B29F015BF5DF8044B29F014BF78
S214008AD85DF8044B29F013BF03485DF8044B14F007
S214008AE85BB900BF3019002019D50300B0F85C3018
S214008AF82DE9F0418B4204460E4638D0437B077C6E
S214008B088BB31C4A12789A422DD370251A4A013B19
S214008B1805FB032390F80F801B7B424629F000FFD5
S214008B28B845054601D1FF281FD13A4631462046AA
S214008B3894F8903029F0F4FE2F4605465522122167
S214008B486078A4F85C6029F002FEFF2F03D039464F
S214008B582046FFF7A9FFFF2D09D029462046BDE885
S214008B68F04129F01DBFFF25DFE70746E6E7BDE829
S214008B78F08100BFDB5B0020301900204168826866
S214008B88C978D27849B112B10321FFF7AFBF837B0A
S214008B98002B0CBF01210221F7E72AB1837B002BAB
S214008BA80CBF02210121F0E7014814F0F5B800BF18
S214008BB82AD50300037BD3B14368DA7812B18268FA
S214008BC8D278A2B91B7933B1837B002B0CBF042162
S214008BD80521FFF78BBF83681B792BB1837B002B9E
S214008BE80CBF05210421F4E7014814F0D5B87047F6
S214008BF85CD50300084A437B05211370837B5370BA
S214008C08C37B9370037CD370037B137100780E309C
S214008C18C0B2FFF7CDBA00BFF65B002038B50446F1
S214008C2800780C4D0E302A460521C0B2FFF7B0FA80
S214008C3820B1BDE83840084814F0AEB82B78637306
S214008C486B78A373AB78E373EB7823742B79237371
S214008C5838BD00BFF65B002098D50300024B53F8DA
S214008C68200029F0E7BE00BF80340020F8B504468F
S214008C780B78424A43700D4642F82300404E29F0CE
S214008C88F7FEFFF7CBFF6268A3683E483E49D66406
S214008C981165D4655065C3E91410DE64DC654FF0D1
S214008CA8987302266361012304F10C01E1613749D8
S214008CB81032216204F10D01A16235492376E16282
S214008CC804F10E016163334984F82430A16304F18A
S214008CD80F012164304984F83030616404F11001D2
S214008CE8E1642E4984F83C3084F84830216584F8DD
S214008CF85460A265E879A96800EB400201EB820798
S214008D0804F1140CC7F804C04FF4817C244F41F8D2
S214008D182270C218D2B202EB420241F822C001EB1E
S214008D28820700227A601F4A84F8703022661E4A3C
S214008D3884F88830A2661D4A1D4BE2661D4AC4F8B0
S214008D488C3062671C4A8319A26704F15C02C4F877
S214008D588020DBB2194A03EB4303C4F8842084F866
S214008D68646084F87C6001EB830260345460144AC3
S214008D78033041F82320E871F8BD00BF8034002096
S214008D88858B0000FF290300BD8B00000100200131
S214008D980200100103003001040030010500210123
S214008DA801FC01064A00210004700400510010006E
S214008DB80670040007700400550021006F001800B4
S214008DC81200010470B50D460646144613460A46B8
S214008DD801461A4813F0E0FF25B92046BDE8704062
S214008DE8FFF70EBC072D05D121463046BDE870407A
S214008DF800F0C8BD4FF601439D4205D121463046D6
S214008E08BDE87040FFF72ABF062D05D1214630463B
S214008E18BDE8704000F06ABBB5F5817F05D12146F4
S214008E283046BDE87040FFF7B9BD202D04D1204676
S214008E38BDE8704000F0F0B970BD00BFC7D50300AC
S214008E480148FFF71BBB00BFCD8D00004FF4C013D1
S214008E5830B5036001230371074B8C688360CA79B9
S214008E6802EB420304EB83056860044844F82300D9
S214008E78531CCB7130BD00BF08700400040001010C
S214008E880B786E4A03700123836003F52023C0E93C
S214008E980423C3604FF4D81383610423037700F1D7
S214008EA808030362664B426843620223F0B502F188
S214008EB81C04C462634C80F82830046302F11E0464
S214008EC88463614C80F83430C46302F1200444643F
S214008ED85E4C80F84030846400F10C0404655C4CF9
S214008EE880F84C30446500F10E04C465594C80F88F
S214008EF85830046600F110048466574C80F86430D5
S214008F08C46600F112044467544C80F870308467D5
S214008F1800F11404C0F88040514C80F87C3080F88A
S214008F28883000F11603C0F88440C0F88C30CD793C
S214008F388C6805EB450304EB830600F11807776099
S214008F48484F00F1900C44F8237000246B1CB46062
S214008F58CB712346D2F830E000F18F07C3F1200624
S214008F68A3F120052EFA03F204FA06F6324324FA91
S214008F7805F508332A43302B07F8012FEED10123D5
S214008F884FF47A72C0E926322B22A0F8A0204FF4BC
S214008F981412C0F8A420062280F8B43080F8C03036
S214008FA880F8E43080F8F03000F1A103C0F8F4301F
S214008FB82D4B0025C0F8C830032380F8A8202B4A7C
S214008FC880F8CC30C0F8B02000F19602C0F8B8207F
S214008FD8274A80F8D830C0F8BC2000F19702C0F8BD
S214008FE8C42000F19802C0F8D02000F19C02C0F816
S214008FF8DC20204AA0F89650C0F8E02000F1A00235
S214009008C0F8E8201C4AC0F8ACC0C0F8EC201B4AE0
S21400901800F1A407C0F8D420CA798E6802EB420390
S21400902806EB83046760164F46F82370531CA5604A
S214009038CB714368134AC3E90D20F0BD0100E8036D
S21400904805052100080521000B052900000621005A
S214009058010621000206210003062100040621005D
S21400906805062100040B010A01032200000218006D
S214009078000330000303180006031800020322004A
S21400908802070107992A03000368064A0C211360A1
S2140090984368536003891381438922205381FFF76D
S2140090A887B800BFA834002010B50368044686B009
S2140090B8FBB1114813F070FEA37B104A8DF80430FC
S2140090C84FF48273ADF806300123CDE9022300235E
S2140090D801A804938DF81430FFF730FA204661890A
S2140090E829F029FD2046FA2150F8143B594329F067
S2140090F8E8FA06B010BD00BFFAD50300200000014C
S21400910810B5064C236843B1054813F045FE2068A1
S214009118BDE81040418929F00EBD10BDB4340020CA
S2140091281BD6030070B5364910460C68BDF81020EB
S214009138002C5ED003285CD8DFE800F0021E274526
S214009148002B5AD0022A58D91D78B3F80160291E78
S21400915818BF012132462B4813F01EFE2DB13146AA
S214009168204629F0E8FC002070BDE573FA20636805
S214009178584329F02DFBF6E7234813F00DFEE37B52
S214009188002B38D00023E373F0E7002B35D0032AF2
S21400919833D91D681D48294613F0FEFD1C4B2A1FAF
S2140091A89A4201D90220DFE723680BB19D42F9D81D
S2140091B823899D42F6D3E37B6560B3B9FA206843FA
S2140091C829F006FB11E0002BCED0012ACCD91D8849
S2140091D81048294613F0E0FD002DE3D063689D4251
S2140091E8E0D8E37B2581002BE8D12046FFF74CFF2B
S2140091F8B9E70120B8E70420B6E70320B4E700BFC4
S214009208B43400203ED6030075D6030094D6030077
S214009218FCFF6D00BFD6030038B5154B1C6834B389
S214009228F0B92168134813F0B7FD23683BB16268AC
S214009238934204D2104813F0AFFD6368236004F12C
S2140092481405284629F042FA236823B1FA2128464D
S214009258594329F036FA2046BDE83840FFF714BFD0
S214009268032804D16189054813F096FDF3E738BD55
S214009278B4340020EAD6030018D703004DD70300FD
S21400928870B53E4B0D46044609781860002A6FD123
S21400929801231A46A1730021E1730121A1814FF42D
S2140092A86151C4E900132823354E22810C21324629
S2140092B822206381FEF76CFF60B9D6E900230AB165
S2140092C89A4207D3318999429FBFC4E9002373891C
S2140092D8218163812B4B2C4AE363042384F84030B6
S2140092E884F84C30E3182365284BA2646365022390
S2140092F804F10802E265264A84F85830226604F12A
S2140093080A02A266234A84F8643084F8703004F1AE
S2140093180C03E26663676464EA79A86802EB4203B2
S21400932800EB830104F13C064E601B4E40F82360B8
S214009338FA261A4B1A488B60531CEB71FFF7A4F8F1
S214009348208904F11405704329F042FA6189204601
S21400935829F0F1FB134B2846C4E90534FEF76EFFE7
S214009368216849B128467143BDE8704029F0A9B97B
S2140093784FF4F07302228DE770BD00BFB4340020AE
S214009388A834002000002301010023000200210069
S21400939803002101FDFF2100200001052D9100009A
S2140093A809910000B1900000134B10B51C680CB36F
S2140093B8E37BEBB129F08EF92369C01A002809DB94
S2140093C80E4813F0E9FC0023FA20E3736368584359
S2140093D829F0FEF9E37B5BB12489FA235C4329F084
S2140093E802FAA04206D02046BDE8104029F0F0B99F
S2140093F86468F2E710BD00BFB43400207AD70300D3
S21400940838B50024044D55F8040B08B129F0A6FB1E
S21400941801340A2CF7D138BDB8340020042908B521
S2140094280AD172B16BB113781BB929F0C2FB0020C0
S21400943808BD29F0B4FBFAE7034813F0ADFC012099
S214009448F6E70320F4E700BFB4D7030010B4054CD2
S214009458114654F820001A46BDF804305DF8044B4F
S214009468FFF7DCBFB83400200229024608B50ED044
S21400947804D839B9104629F09CFB06E04029F9D0F3
S214009488412907D1104629F08AFB002008BD29F09B
S2140094989AFBFAE7024813F07FFC0120F6E700BFC4
S2140094A8D4D7030010B4054C114654F820001A46C9
S2140094B8BDF804305DF8044BFFF7D6BFB83400207B
S2140094C8426B094B52791A7082785A70C2789A7031
S2140094D8826B12B190F83C20DA70007804210930CB
S2140094E8014AC0B2FEF764BEFB5B0020024B53F88D
S2140094F8200029F084BB00BFB834002038B50446E5
S2140095080078084D09302A460421C0B2FEF740FE0E
S21400951830B96B78A370AB78E370EB7884F83C309E
S21400952838BD00BFFB5B002038B504460078114DF7
S21400953809302A460421C0B2FEF72AFEC8B9A37825
S2140095482A78022B0CD004D863B9204629F031FBC0
S21400955801E0FF2B0AD02046BDE8384029F0FEBAC5
S214009568002AF2D1204629F01AFBF4E7002AF9D19E
S214009578EBE738BDFB5B0020F8B504460B78284AB5
S2140095880D4642F823004370FFF7B8FF636B254A81
S2140095985C631A632046FFF7C7FF204629F0DEFA09
S2140095A84FF4801363600123626BA66B0532E2609A
S2140095B81D4A23722261A21C2375A26166B11B4A4A
S2140095C884F82030E261E21C6262194A84F82C3082
S2140095D804F13C03A26223630627EA79A96802EB32
S2140095E84203002E21F8237001EB83000CBF0223F0
S2140095F80423C370012383700E4B04348360531C0A
S2140096084460DBB20C4C03EB430341F8234001EB08
S214009618830000234360094B02328360EA71F8BD79
S214009628B8340020E32B03000340300101FF30016B
S21400963802FF1001AD9400000800010055940000D8
S21400964828B1034B1B78834234BF002001207047A3
S214009658DD5B002070B500250A4C0B4E3378AB4214
S21400966800DC70BDD4F8A42042B123791BB1607920
S214009678FFF7E6FF10B9104628F006FF0135A834B4
S214009688ECE700BF401E0020DF5B002008B54279EB
S21400969801461046FFF7D4FFA8B1CB780A48013A2E
S2140096A8042B00EB82100ED8012B08D81BB9BDE896
S2140096B8084029F074BABDE8084029F07ABABDE82F
S2140096C8084029F080BA08BD3C1C002008B542793D
S2140096D801461046FFF7B4FFA8B1CB780A48013A0E
S2140096E8042B00EB82100ED8012B08D81BB9BDE856
S2140096F8084029F05EBABDE8084029F050BABDE82F
S214009708084029F060BA08BD3C1C002010B586B099
S2140097180446FEF7DBFE012830D1E278042A2DD86D
S214009728DFE802F013323403030061790846FFF7D6
S21400973887FF58B31648032A00EB811050F80C3CF4
S21400974858791DD1003818BF012063784FF480720D
S2140097588DF804304FF48273ADF806300623ADF862
S214009768083001238DF80B3000238DF80A0001A875
S214009778CDE903238DF81430FEF7E0FE06B010BDE1
S214009788B0FA80F04009E0E70020DEE70220DCE7D8
S2140097983C1C002010B586B00446FEF797FE01284C
S2140097A830D1E278042A2DD8DFE802F0131332030A
S2140097B8030061790846FFF743FF48B31548032AB4
S2140097C800EB811050F80C3C5B791DD11A1E18BFAF
S2140097D8012263788DF80A208DF804304FF48273DE
S2140097E8ADF806300623ADF8083001234FF4807232
S2140097F88DF80B30002301A8CDE903238DF814302B
S214009808FEF79CFE06B010BDB3FA83F25209E0E7F5
S2140098180222DEE73C1C002010B586B00446FEF7A0
S21400982855FE012812D16378094A8DF804304FF4A2
S2140098388273ADF806304FF48073CDE90223002317
S21400984801A804938DF81430FEF778FE06B010BD14
S2140098580800070110B586B00446FEF737FE012853
S21400986820D16278104B8DF804204FF4827294F859
S214009878A01094F8A10059701870ADF8062004934B
S2140098884FF480720223094901A88DF81430CDE9F7
S2140098980212FEF753FE94F8A130013B18BF0123CD
S2140098A884F8A13006B010BDFF5B00200800050153
S2140098B810B58378044603B30379022B0AD142799C
S2140098C81046FFF7BDFE28B10C48013A00EB82109F
S2140098D829F079F9A379022B02D12046FFF716FF63
S2140098E82046FFF7B7FF02236078A4F86C305522AD
S2140098F8BDE81040122128F02ABF10BD3C1C0020ED
S2140099084388094A082113808388538083681B8A02
S214009918938090F8A03093718379D37100780430DF
S214009928C0B2FEF745BC00BFE656002038B50D4667
S21400993804460178114813F02FFA4FF602739D4239
S2140099480ED10F4B1B782BB963712046BDE8384003
S214009958FFF7D6BF62790AB19342F6D20123F3E73E
S214009968B5F57F4FF1D1204629F0C6F9A378022B2A
S2140099780CBF01220022A3689A70E6E7F0D703001E
S214009988DD5B0020024B53F82000FFF7CFBF00BF77
S214009998E034002038B504460078144D04302A46D2
S2140099A80821C0B2FEF7F4FB20B1BDE838401048E5
S2140099B813F0F2B92B8863806B88E978A380AA88AD
S2140099C8A3681A82AB7984F8A030EB79A371094BA7
S2140099D81B780BB9637138BD09B19942FBD90648A3
S2140099E813F0DAF923780133F4E700BFE6560020CF
S2140099F80AD80300DD5B002033D80300F8B5044618
S214009A080B78474A0D4642F823004370FFF7C2FF1B
S214009A18A268444BD465D364434B02265365434B34
S214009A28A11C13654FF44013E36001236161E162F2
S214009A383F49103221632265211D3E4AA1633E48F4
S214009A483E49626504F1A002A061E163E265E01C9C
S214009A58611D3B4A206261643A483B492266A21D62
S214009A682374237784F8283084F8343084F8403018
S214009A78A16484F84C6084F8583084F864306062D6
S214009A88A266E879AA6800EB400102EB810704F1B8
S214009A980C0CC7F804C04FF0060C2C4F42F8217087
S214009AA8C118C9B201EB410142F821C002EB810797
S214009AB800217960264F84F880302767254F84F880
S214009AC89830A767244F254BE767254F84F87460BE
S214009AD884F88C60C4F89C3004F16C06831CC4F8C7
S214009AE88470C4F890601F4F1F4EDBB203EB43032D
S214009AF8C4F89460C4F8887002EB83067034746007
S214009B0808261A4C42F82340C31CDBB203EB430377
S214009B1802EB8304043042F823606160E871F8BD04
S214009B28E0340020572C0300A12C0300B99800004D
S214009B3801FF300104FF20011000300102FF200160
S214009B4805FF300100FF300103FF2101070001086F
S214009B584A0021000A700400510010000C7004002E
S214009B680D700400550021006F0018001200010453
S214009B7800239B6AB3F5C04F03D21968064A914280
S214009B8803D00023037083607047012202709A682E
S214009B989B694260F7E700BF07B0CD5E024B034AF9
S214009BA81A602AF0F9BA00BF0000002002020FF07F
S214009BB873B5534B04461A781AB102221A7002B0CB
S214009BC870BDCDE900220028F9D001261E7032F0BB
S214009BD899FF4C4D4C4B186017F0E0FA2B785BB9A0
S214009BE802F062FA40B949480823494A49490068D8
S214009BF801F0A8FE00B92E70474B5A6E62619B6E44
S214009C08464AA3614FF40043936603F188435968B4
S214009C18E16143499960196E2160596E6160D3F815
S214009C287011A160196CE160596C21613D49086C9E
S214009C381864496C5964012151664FF400519166C5
S214009C481A6E560436D53849CA68D407FCD45B6EF3
S214009C585A0434D5354AD36B13F0430FFBD1344B33
S214009C681A68531C31D04FF400139340314A1366D8
S214009C780423304C684623664FF48063236610231B
S214009C8823664FF4005323664FF0804323664FF451
S214009C98804301A9636629F047F8009B2366019B69
S214009CA863662B78002B8AD0194B1A6822665B6885
S214009CB8636684E72049CA68D007FCD4C7E71F4A0A
S214009CC8D36B13F0430FFBD1C9E71D4B1B78002B52
S214009CD8CED14FF48072114B5A661A4A52681AB996
S214009CE84FF40011134A11664FF400725A66164B69
S214009CF85B68002BBCD14FF480020E4B1A66B7E7A0
S214009D08025C0020035C0020283500208C660020BA
S214009D182C3500200071080000800050009000508C
S214009D2855CEAC0000C00054000004400000024CB1
S214009D385866002000900044000004500000025CB2
S214009D48015C002000C005500000065070B52C4D80
S214009D5804462E78012E02D001232B7070BD0028F1
S214009D68FCD029F006F801300BD029F002F840F2B2
S214009D780113984205D0234B234A5E66D368DE0754
S214009D88FCD4224B22491B6E13F0040F4FF40053E9
S214009D9814BF1C4A1F4A9366CA6B12F04302FBD1D3
S214009DA821681A4B196661685966A168C3F870116C
S214009DB8E168196421695964E169C80748BF9A606F
S214009DC8154B1A6801320DD1144A127852B9144943
S214009DD84968C90748BF1A60124A5268D20744BF82
S214009DE801221A606269104B5A66A2699A6617F0D1
S214009DF8DDF90E4B186832F080FE0023ADE700BF91
S214009E08025C0020009000400000044000800044EF
S214009E180000024C0090005058660020015C0020AC
S214009E2800C005500000065000800050283500206D
S214009E3870B50024A36AB3F5C04F23D21A68134B33
S214009E489A421FD1124E337813F0FD0518D14FF4FD
S214009E5880341048FFF7ACFE032004F0B9FC0E4B24
S214009E680320DC6004F098FC0C4B1C61AB6ADB69D1
S214009E78984704460748FFF769FF0CB90123337073
S214009E88204670BD4FF48174FAE700BF07B0CD5E78
S214009E98015C00200835002000A000440090004423
S214009EA813B5204B1B7803B9FEE700231E4CCDE9FB
S214009EB800336A4608231D49206801F043FDF8B9B7
S214009EC81B4AD2F84031D2F840211F2B4FF001032D
S214009ED811D9203A9340019A1A43019208236A46F8
S214009EE81249206801F0B6FE124B134A1A602AF08F
S214009EF853F902B010BD9340009A1A430092EDE75A
S214009F082D28F1D10A4AD2F84031D2F840211F2B29
S214009F184FF0010385BF203A93409340019398BFC2
S214009F280093DBE7025C00208C66002000710800C6
S214009F3800800044000000200B020FF038B5002512
S214009F48AB6A0446B3F5C04F10D21B6BB3F5C04FCF
S214009F580CD20748FFF72CFEAB6A20461B6B5B68E3
S214009F689847BDE838400248FFF7F0BE38BD00BF46
S214009F783435002013B50024A36A0190B3F5C04F0A
S214009F8813D21B6BB3F5C04F0FD20948FFF710FE6C
S214009F98A36A01211B6B01A89B69984704460448DD
S214009FA8FFF7D4FE204602B010BD4FF48174F9E7DF
S214009FB83435002070B50026B36A0446B3F5C04FA2
S214009FC80D4612D21B6BB3F5C04F0ED20848FFF7EA
S214009FD8EFFDB36A20461B6B29469B6998470446E3
S214009FE80348FFF7B3FE204670BD4FF48174FAE7C6
S214009FF83435002070B50026B36A0446B3F5C04F62
S21400A0080D4612D21B6BB3F5C04F0ED20848FFF7A9
S21400A018CFFDB36A20461B6B2946DB699847044682
S21400A0280348FFF793FE204670BD4FF48174FAE7A5
S21400A03834350020F8B50027BB6A0446B3F5C04F90
S21400A0480D46164611D21B6B7BB10948FFF7B0FDCB
S21400A058BB6A20461B6B324629465B6A984704460D
S21400A0680348FFF773FE2046F8BD4FF40174FAE77D
S21400A0783435002070B50026B36A0446B3F5C04FE1
S21400A0880D4612D21B6BB3F5C04F0ED20848FFF729
S21400A0988FFDB36A20461B6B29469B6A9847044681
S21400A0A80348FFF753FE204670BD4FF40174FAE7E5
S21400A0B834350020F0B50027BB6A0446B3F5C04F18
S21400A0C80D461646ADF5177D20D21B6BB3F5C04F6F
S21400A0D81CD21048FFF76CFDBB6A20461B6B40F28B
S21400A0E851225B6A01A99847044630B10948FFF730
S21400A0F82DFE20460DF5177DF0BD836A32461B6B94
S21400A1082946DB6A01A898470446EFE74FF401742E
S21400A118EFE700BF3435002010B50024A36AB3F576
S21400A128C04F10D21B6BB3F5C04F0CD20748FFF7D1
S21400A1383FFDA36A1B6B1B6B984704460348FFF753
S21400A14805FE204610BD0124FBE700BF343500207D
S21400A158F0B58FB0044601A80E461546FFF7EEFE8A
S21400A1689DF80C30012B12D1B5F5002F27D8B4F581
S21400A178002F24D86319B3F5002F20D821462A4685
S21400A188304614F0B7F8002420460FB0F0BD00277C
S21400A198BB6AB3F5C04F15D21B6BB3F5C04F11D2CF
S21400A1A80A48FFF705FDBB6A2A461B6B3146204660
S21400A1B85B6B984704460548FFF7C8FDE4E740F29E
S21400A1C80244E1E740F20114DEE700BF3435002020
S21400A1D8F0B58FB0044601A80E461546FFF7AEFE4A
S21400A1E89DF80C30012B1FD1B5F5002F06D8B4F515
S21400A1F8002F03D86319B3F5002F13D940F2024491
S21400A20820460FB0F0BDE258013225D104339D42F6
S21400A218F9D82A463146204600F082F80028EDD0C4
S21400A2280024EDE70023F2E70027BB6AB3F5C04F2A
S21400A23815D21B6BB3F5C04F11D20A48FFF7B8FC0E
S21400A248BB6A2A461B6B314620469B6B98470446DA
S21400A2580448FFF77BFDD3E740F20344D0E740F21B
S21400A2680114CDE73435002070B58EB0044601A839
S21400A2780D46FFF763FE9DF80C30012B22D144EA09
S21400A2880503C3F30C03002B33D1B5F5002F04D90F
S21400A29840F2024420460EB070BDB4F5002FF7D841
S21400A2A82544B5F5002FF3D8204604F5005400F0F1
S21400A2B829F8AC4202D00028F6D1E9E70028E7D012
S21400A2C80024E7E70026B36AB3F5C04F14D21B6B29
S21400A2D8B3F5C04F10D20A48FFF76AFCB36A29469E
S21400A2E81B6B2046DB6B984704460548FFF72EFD98
S21400A2F8D0E740F20444CDE740F20114CAE700BFB5
S21400A308343500204FF4003208B5044B9A6632F014
S21400A3188FFEB0FA80F0400908BD00BF00900050DC
S21400A328134610B562B103439B070BD14FF40034B4
S21400A338054B9C6632F084FEB0FA80F0400910BDEA
S21400A3480120FCE70020FAE700900050BFF34F8F8B
S21400A3580549064BCA6802F4E0621343CB60BFF3B4
S21400A3684F8F00BFFDE700BF00ED00E00400FA05D0
S21400A37870B5D0B1C9B10E4E431E013913F8014F5E
S21400A3882046325D02F00302012A11F8012F08BFA9
S21400A39804F12000B55C05F00305012D08BF203246
S21400A3A8801A01D1002CE9D170BD0120FCE700BF5E
S21400A3B8A59704000348044A0449121A921028F084
S21400A3C83DBD00BF40610000186300002063002008
S21400A3D808B5154B83F30A8800F030F8FFF7EAFF54
S21400A3E8124B13498B4212D30020124B12498B4250
S21400A3F818D3FCF797FC186850F82240586840F8BD
S21400A4082240013298688242F5D30C33EAE70022EC
S21400A418F8E71C6844F8220001325C68A242F8D3C8
S21400A4280833E4E70022F8E708000020D0D3040049
S21400A438DCD30400DCD30400DCD304004FF4004172
S21400A448134B144A70B59A60D3F88820124D42F41C
S21400A4587002C3F88820114A05F5005491664FF03B
S21400A468FF3222664FF6DF7262660222C3F8D020F9
S21400A478BFF34F8FBFF36F8F4FF44036032004F0BF
S21400A488A7F90320E66004F087F92E6170BD00BFC7
S21400A49800ED00E0006000000080004400900050DE
S21400A4A8054B1860054B1B6F03F00703032B01D100
S21400A4B830F074BC704700BF68660020008000500B
S21400A4C82DE9F04104464FF001080C250D4E0CB955
S21400A4D8BDE8F08194FAA4F0B0FA80F00F2808FAE4
S21400A4E800F2C8BF103824EA0204CABF05FB00629F
S21400A4F805FB0062B4325768002FE8D09168C0B2F6
S21400A508B847E4E75435002008B50C4832F01BFB82
S21400A518192004F04FF928B1192004F059F9192028
S21400A52804F03AF91A2004F045F928B11A2004F084
S21400A5384FF91A2004F030F9002008BD1072040004
S21400A5482DE9F0410E461746054618B30F2923D8BD
S21400A5580378DBB1013BDBB2022B19D8104AD35C77
S21400A5686A78D340DB0717D50E4BD3F81043ACB93F
S21400A57832F0C8FA80463A462846314603F064F870
S21400A588404632F0BAFA2046BDE8F0817F23E7E776
S21400A5980023E5E72224F6E72124F4E70224F2E77D
S21400A5A86070040000C0035010B5044610B303786A
S21400A5B8E3B1013BDBB2022B1AD8104AD35C6278AF
S21400A5C8D340DB0718D532F09DFA0122617823784C
S21400A5D88A4030214B4341F2100103F1A04303F5B2
S21400A5E870335A5032F089FA002010BD7F23E6E710
S21400A5F80023E4E72220F8E72120F6E7607004004D
S21400A60810B5044610B30378E3B1013BDBB2022B66
S21400A6181AD8104AD35C6278D340DB0718D532F0D4
S21400A62871FA0122617823788A4030214B4342F23E
S21400A638100103F1A04303F570335A5032F05DFA67
S21400A648002010BD7F23E6E70023E4E72220F8E792
S21400A6582120F6E76070040038B50D46044618B3A6
S21400A66811B30378E3B1013BDBB2022B1AD8104AC8
S21400A678D35C6278D340DB0718D532F043FA302231
S21400A6882378534303F1A04303F570335B6962787C
S21400A698D34003F001032B7032F02FFA002038BDA8
S21400A6A87F23E6E70023E4E72220F8E72120F6E701
S21400A6B8607004002DE9F0410D461646984604469B
S21400A6C800284FD000294DD00178002940D04B1ED5
S21400A6D8DBB2022B3ED8254AD25C6378DA40D20732
S21400A6E801D4FF2940D1022E01D9042E3CD132F0E4
S21400A6F809FA23780746FF2B05D0324620462968F4
S21400A70802F0E8FF28602B68013309D12378FF2B75
S21400A71806D1174B6078D3F8241429F060F928601E
S21400A72829684B1C18D00C23124A03FB0122069BEF
S21400A738C2F8048093602378FF2B04D001230E4AC6
S21400A7488B40C2F82434384632F0D7F9002007E0A8
S21400A7587F22C2E70022C0E7384632F0CEF92D2025
S21400A768BDE8F0812220FBE72120F9E760700400AD
S21400A77800C003505435002000D0035008B502F03E
S21400A78859FF054B00F0553020F05020C3F8200440
S21400A798BDE80840FFF794BE00E0035008B502F095
S21400A7A849FF054B00F0AA3020F0A020C3F820048B
S21400A7B8BDE80840FFF784BE00E003502DE9F04FDF
S21400A7C8144605460E469B46C36B87B001225B6956
S21400A7D802A960689847EB6B01225B6903A93046BB
S21400A7E8984702A828F029FF074648B10023A37512
S21400A7F863754FF0FF33A360002007B0BDE8F08F05
S21400A80803A828F027FF0123A375237E04EBC303C0
S21400A818DE611F846368B3420ED1206003A828F067
S21400A8283BFF4FF0FF332075A360237D043B022BCC
S21400A83826D80023A375DFE723681A1A5342534124
S21400A848A37503A828F028FF237D834218BFA775A1
S21400A85803A828F003FF074602A828F0FFFE874251
S21400A86818BF002303A818BFA37528F0FFFE0746E5
S21400A87802A828F0FBFE87421CBF0023A375D4E776
S21400A88803A828F0EBFE80B1EB6B022230465B692A
S21400A89804A9984704A828F0F0FE0346207D03285C
S21400A8A839D8DFE800F03838040903A8F3E7CC22E3
S21400A8B8237E04EBC3031A8401F06EFC109B187009
S21400A8C803A8277E28F0BEFE04EBC70787F82200F9
S21400A8D8237E03A804EBC303B3F8209093F82270F2
S21400A8E828F0BCFE804603A828F0C0FE8246B8F1D1
S21400A8F8000F15D0EB6B022230465B6904A9984717
S21400A90804A828F07FFE6075637D6BB90023A375E5
S21400A9184FF0000838E0227E04EBC2021384CBE72F
S21400A92803A828F05AFEEEE794F81680B8F1000F50
S21400A938EED0B9F1000F09D1DFB10123E375637ECC
S21400A948002B4FD1012F42D1677614E06B6C06EBD3
S21400A9580A015A4286EA010010421CBF0022A2756C
S21400A9685A1E0A409B1A9945D0D8A37D002BE3D1DE
S21400A978CEE7E37D43B94FF000084B4652463146D2
S21400A988284628F0A5FBA060A27D12B123694B4497
S21400A99823611A49237E097899422AD901332376F6
S21400A9A8BBF1000F27D032B3E37D23B3B8F1000F15
S21400A9B821D1032F1FD0A1684B1C1CD0109B224608
S21400A9C8009328460123FFF7F9FEA07513E095F8D3
S21400A9D8343063B9EB6A0133CFD1032FCDD10123CD
S21400A9E8A376C8E7012FCFD0032FC4D1F7E7984640
S21400A9F8C3E70023A375A07DFFE600BF84700400AC
S21400AA082DE9F04F0E46984600238BB004464FF0CB
S21400AA18FF31104617468DF8133001F0A7FBB6F540
S21400AA28801F20D2314605AA04F1080028F057FDF9
S21400AA38451C014603D1237CBBB92D2010E03846BF
S21400AA4801F094FB0122394620460DF1130328F045
S21400AA5891FB0028EFD09DF8133088F800300020CE
S21400AA680BB0BDE8F08FB01CE5D1E56A691C36D19D
S21400AA782046616A28F072FA0546B31C18BF0123FF
S21400AA88DFF8CC900193636A626C0293236805A989
S21400AA9802FB053AE36B05225B695046984705A812
S21400AAA828F066FE28F089FE504628F091FE4FF002
S21400AAB8000B824601464B1C05D0636C81EA0A02ED
S21400AAC85B42134211D02946204628F047FA029BDB
S21400AAD8AB422CD0BBF1000F2CD10546D3E7236838
S21400AAE8ED1A636CB5FBF3F5C7E7484601F03EFB85
S21400AAF80DF1130349462046019A28F03BFB03460E
S21400AB0890B1B21C03D0D9F80020B2420CD19DF8FF
S21400AB18132003930D4B88F8002049461A683846D8
S21400AB2813F0E8FB039B9B46D9F80810C3E7BBF174
S21400AB38000F82D0B6F5801F91D2314698F80030C3
S21400AB487A6804F1080001F03FFA88E7807004008C
S21400AB58303D00202DE9F3410446174698460E4638
S21400AB68184D816AE36A8B4201D04B1C02D102B0B1
S21400AB78BDE8F081284601F0F9FA01222946204668
S21400AB880DF1070328F0F6FA38B143462946204661
S21400AB989DF80720B8470028E9D0A9684A1C04D1C0
S21400ABA86968204628F067FA0146012EDAD16B68F4
S21400ABB881EA0302636C5B421A4218BF4FF0FF310A
S21400ABC8D0E700BF043D00202DE9F04F4FF0FF33DB
S21400ABD84FF6FF720025044600F10806C0E909236F
S21400ABE88BB0C362056205633046884628F048FC89
S21400ABF8204628F083F960BB2046414628F0FEF937
S21400AC08204628F07BF960BB5E200BB0BDE8F08FCD
S21400AC182368E26B606C576900FB0530052205A9BE
S21400AC28B84705A828F0A4FD012807460CD12946F0
S21400AC38204628F0B4F9012F024600D101322946F1
S21400AC48204628F07AF903E028F0BCFD0028EED16B
S21400AC580135E3699D42DBD3204628F04FF90028EA
S21400AC68CAD000254FF0FF394FF6FF73CA46A846EC
S21400AC78C4E90853E36998450AD3A5EB0905012DED
S21400AC882CD84FF6FF72636A93423CD16720BCE724
S21400AC982368E26B606C576900FB0830052205A93B
S21400ACA8B84705A828F064FD834605A828F037FDB0
S21400ACB80746584628F081FD68B1574538BFC4F89E
S21400ACC82480B94528BFB946BD4238BF3D46BA4676
S21400ACD8236A0133236208F10108CBE74FF6FF73B6
S21400ACE800256362E3699D42CBD2676C2068E36BFC
S21400ACF8052207FB05005B6905A9984705A828F003
S21400AD080EFD0135EEE7E26B676C2068694607FBC7
S21400AD18030055690522A847684628F000FD626AC0
S21400AD282368606C4B4D00FB023028F051FD4FF055
S21400AD38FF33A062E3622A466FF00101204605ABA6
S21400AD48FFF75EFE002846D1AD6829462046E56234
S21400AD5828F0B0F8206320B92046E16A28F08BF97D
S21400AD68E0622946204628F086F90546A36A9D42F1
S21400AD7833D1204628F071F800278046B946E369A3
S21400AD8899453CD3B84559D92046616A28F0E6F873
S21400AD980026054604F1400AB74212D8626C2368BA
S21400ADA8694602FB0539E36B05225B694846984706
S21400ADB8684628F0B4FC534602464946E06B28F03D
S21400ADC809FD2946204628F0C9F80136B04505464B
S21400ADD8E2D1642019E7A56AB7E72946204628F095
S21400ADE869F8236B2946034407462363204628F060
S21400ADF842F90546002FB9D1C4E90B07B6E7636CDC
S21400AE082568052203FB0955E36B05A95B692846F7
S21400AE18984705A828F0ACFC28F0CFFC58B128467F
S21400AE2828F0D6FC0146204628F044F8636C143B0C
S21400AE38984208BF013709F10109A0E7304628F013
S21400AE481FFB002320461946034AFFF783FE00200F
S21400AE58DBE600BF5C3D00206B3103002DE9F041C6
S21400AE68036B9046826B07689A4288BF8363426C7E
S21400AE78436A90B002FB0377C36B0E46052201A90E
S21400AE885B6904463846984701A828F071FC0128F3
S21400AE980146307057D0656CE26B2368606AD2F85A
S21400AEA814C005FB0030052206A9E04706A828F0CE
S21400AEB85FFC01284FF0000523D0D4E90A320121AF
S21400AEC89342CDE90B458DF834800E958DF83C10ED
S21400AED82AD11946204628F0CEF8236B626C143324
S21400AEE89B1AE06223630C9B53B99DF83C303BB138
S21400AEF8626A616C2368E06B01FB023128F0F0FBA4
S21400AF080C9DE36B05225B6901A93846984701A8A2
S21400AF1828F02EFC30702846236BA26B9A4288BF16
S21400AF28A36310B0BDE8F081237C33B91C490BAA93
S21400AF3804F1080001F096F8D5E72046194A0BAB4D
S21400AF48FFF708FECFE7237C23BB2246164904F109
S21400AF58080001F087F8616A204628F020F8616A40
S21400AF68421C204627F0E9FF054620B9236B626C91
S21400AF781344143B23632046A16A28F07CF8236810
S21400AF88A062C01A636CB0FBF3F06062204628F03B
S21400AF98B5F8B6E700232046044AFFF7DBFDDAE7F4
S21400AFA809B7000085B6000005320300A13103008A
S21400AFB873B50D46D11E4A421C461B7E4A419A422C
S21400AFC826D129682368994222D3636899421FD8F4
S21400AFD8114E0DF107033246FFF712FDC0B972682D
S21400AFE86B689A4214D19DF80730DA1E53425341D3
S21400AFF8227E93420CD1636901336361D4E903234B
S21400B008934205D22968A26842F8231001332361C7
S21400B018012002B070BD00BF5C3D00202DE9F04F56
S21400B0289B4689B09DF848309046514A019313696B
S21400B03807465B450D46C0F09580D9465368009391
S21400B048B9F1000F7BD0FB6B01225B6905A900985C
S21400B058984705A828F0FEFA454B1B68984240F02A
S21400B068848005A828F002FB0428064615D105A802
S21400B07828F003FB009B04461E44019B002B3ED190
S21400B088804512D91C46A8EB00083846009927F0D8
S21400B098F2FFA9EB04090090D2E7FB6B02225B697A
S21400B0A8009806A9984706A8E2E7A0EB08045C45BE
S21400B0B828BF5C46032C4644ABEB040B1DD9FB6B40
S21400B0C8294630465B69A208984724F0030304F033
S21400B0D8030A1E441D44DDF80480BAF1000FD4D0DC
S21400B0E8FB6B012206A930465B69984752462846FC
S21400B0F806A913F0FFF85544C7E7A246EBE78246D1
S21400B10800F0030302932B1803930644039BA6EB55
S21400B1180A00A3EB0A05029B9A4514D1BAF1000F60
S21400B128B3D0FB6B012206A95B69984752462846AE
S21400B13806A913F09BFA0028DDD04FF036094846DA
S21400B14809B0BDE8F08FFB6B012206A95B6998473A
S21400B1580422284606A913F089FA0028EDD1AAF198
S21400B168040AD3E74FF06309E9E74FF06F09E6E70B
S21400B178883D00202DE9F0410F46164698460446BD
S21400B18888B060B390F83450FDB1012127F0ABFECB
S21400B19800210E9BCDE90511CDE902379DF83C301C
S21400B1A8CDF804808DF81C30237C04968BB90D49A5
S21400B1B801AA04F1080000F055FFDDE90553E06B2D
S21400B1C8002E08BF1D4628F027F8284608B0BDE818
S21400B1D8F0812046044A01ABFFF7BCFCEDE70546C4
S21400B1E8F3E700BFCF310300B9AF00007FB590F892
S21400B1F84260044601920DF10B030A463046114997
S21400B20828F012F8012E0546E36B17D132465B6923
S21400B21803A998479DF80B10039B019A59B19BB256
S21400B22843EA0243012228460393E36B03A99B697A
S21400B238984704B070BD62F30F03F3E701229B69D9
S21400B24801A9F5E7883D00202DE9F04F99B00E4694
S21400B2580D920A69416C0B931439D31DB3FBF1F3B5
S21400B268013302EBC302036B04469342C0F001822B
S21400B2780023DFF804940893E36A484619460593C2
S21400B28800F074FFD6E9033707930B9B022B4DD1CA
S21400B298CC2F40F0D7810D9B3BB13146204628F095
S21400B2A819F8656C1490012044E00120079B656C32
S21400B2B81B68149300F0010000280CBF0423082321
S21400B2C8782F0E9349D8059A6B1E1340ED1A3B1D2E
S21400B2D89D423CD2002F3DD0082D3ED800230425A1
S21400B2E806934FF0040A336806990B98C9F800309D
S21400B2F8C9F8107028F0D4F94FEA9A030F93059B03
S21400B30889F814000393002309930C9304930A9373
S21400B318616C039B4A1E1A408B1A27B35544AB42EE
S21400B32823D8236B5B1A134423632FE1782F656CAD
S21400B338B9D8F07D0D9B002BBCD0E36B01225B696E
S21400B348706816A9984716A828F088F9B4E7002563
S21400B3580695C6E704250697C3E7012300254FF0A0
S21400B368080A0693BFE75345DBD3A3EB0A029742C6
S21400B378039BB84628BF90469742534428D90122D3
S21400B388D9F8101089F817208F4226D10399C9F8E2
S21400B3980410049299F817200AB399F8181003981D
S21400B3A8CA1C09EBC202506004980131A2F8088052
S21400B3B8907289F81810B8F1000F07D00B9A022A75
S21400B3C840F08180099A72B1012209929B46ABE04F
S21400B3D8049A002A18BF0322DBE70222D9E7039A59
S21400B3E8C9F80420E7E70C9A4244032AEED9E26B30
S21400B3F81846956914A901220993A847099B05468A
S21400B4080028E1D03D2D40F01E8104F10803039387
S21400B4182368059A606CA2EB030ABAFBF0FA00FBF5
S21400B4280A3028F0D5F9E16A8046204627F023FE40
S21400B438A26A824200F00F81626CD9F80830511E69
S21400B4480B40216B2768891A0B442363089BE0622C
S21400B458DF1BB7FBF2F7BA4540F0FA80059BB3EB63
S21400B468080A12D0E36B4FEA9A0241469B6998474E
S21400B4788346E36A059A5344E362236B03989B1A50
S21400B4884344236327F0FCFFDA462368616CE06BCD
S21400B49801FB073128F011F9204627F02FFD20463A
S21400B4A827F02CFE2063BAF1000F00F0D480326932
S21400B4B8616CD31D1439B3FBF1F3013302EBC302FD
S21400B4C89042A5D2BFE00D9A002A77D1B8F1030FB3
S21400B4D84FEA98026ED9E16B18468D690799109362
S21400B4E8A847109B0546C0B918F0030515D0079A5B
S21400B4F828F0030B02EB0B019B444FF0FF3215A814
S21400B50815922A46109312F0F5FEE26B5846956996
S21400B51815A90122A8470546109B9B46079A424450
S21400B5280792002D40F08B80049B16A80193069B7B
S21400B538009399F814204346316800F0CDFDE36B7C
S21400B5480F9A9B69039816A99847039A051E089BA5
S21400B55818BF13460893434652462046039927F0D9
S21400B568B7FD236B08F10302A3EB0A0322F00302DC
S21400B5789B1AC9F808002363002D7FF443AF0C9B81
S21400B588A7EB080743440C93CDF80CB02046039964
S21400B59827F071FD00250390002F7FF4B9AE364AD8
S21400B5A83168936804F10800E36252680B9B00F068
S21400B5B80BFD49E09B46454607999EE79B4606F1E4
S21400B5C820021092F27D7068A2B1002296F818C088
S21400B5D80A99D5B2AC4511D9109D02F1010E35F87D
S21400B5E832508D4228D90E9806EBC2020144D06923
S21400B5F8084403E00E9A0A990A441044E26B15A917
S21400B608556901221193A847159A0A9B1392E26B73
S21400B618043395695846012213A90A93A847119B33
S21400B628054603EB0802A2EB0B02042A7FF679AF65
S21400B63828B90BF1040BC5E77246491BC9E7CDF8D4
S21400B64820B088E770252F46384619B0BDE8F08F39
S21400B6584FF0000A19E73269616CD31D1439B3FB41
S21400B668F1F3013302EBC302236B9342BFF404AE3B
S21400B678E9E71C27E8E700BF303D0020032A2DE94C
S21400B688F34106460D4617461C4606D1237A012B7B
S21400B69823D0012002B0BDE8F081DFF86080096899
S21400B6A842460DF10703FFF7ABF960600028EDD1BD
S21400B6B89DF80720237A032AE8D0D8F804106A6889
S21400B6C89142E3D1012B2969D4F80CC007D17269DD
S21400B6D80CEB0103934202D92074207CDAE7083188
S21400B6E86144E1603B46012229463046FFF7ACFD3F
S21400B6F860600028CAD00020CCE700BF5C3D002070
S21400B7082DE9F341089C032A1746266806D1237AB2
S21400B718012B24D0012002B0BDE8F081DFF890802C
S21400B728304642460DF10703FFF76AF960600028C5
S21400B738EDD12568D8F80400A96AD5F844C0484071
S21400B748CCF100031840227AE1D1012A09D1E26837
S21400B758D8F8103013447269934202D92074207CBA
S21400B768D9E72868EB6A1B1A081AB3FBFCF3B0FB88
S21400B778FCF083420BD1706CF36A421E1340326BA6
S21400B788121A13442846336327F075FCE862D8F883
S21400B7981020E36808321344E36001223B4604495C
S21400B7A82068FFF751FD60600028B0D00020B2E79F
S21400B7B85C3D00202DE9F0410025604B0E46D3F88D
S21400B7C8008004461D6018B921252846BDE8F0818A
S21400B7D890F8347007B30A6803689A4240F0A3806A
S21400B7E84A6843689A4240F09E808A6883689A420C
S21400B7F840F09980CA68C3689A4240F094800A6903
S21400B80843699A4240F08F808A69C36B9A4240F037
S21400B8188A804B698361D8E768223946856B12F0BF
S21400B828D9FBD6E90212336804F10800236073686E
S21400B838A5636360336963617369A36127F032FEA9
S21400B848B36904F14000E3639B68984720B9676CC6
S21400B85817B16368B3FBF7F794F84330E761002B3A
S21400B868B2D00023656C2366002D64D0002F62D00A
S21400B8782368B3FBF5F205FB1233002B55D1666837
S21400B888B6FBF5F305FB1363002B4ED1204627F0D5
S21400B89801FBA369043303449E4248D340F634723E
S21400B8A86369CC3B934244D8B5F5805F43D3032104
S21400B8B8204627F018FBD4E90001E36B1B6898477D
